{
	"contract-8f3861590a.sol": {
		"ERC1155Escrow": {
			"abi": [
				{
					"anonymous": false,
					"inputs": [
						{
							"indexed": true,
							"internalType": "uint256",
							"name": "escrowId",
							"type": "uint256"
						}
					],
					"name": "EscrowCanceled",
					"type": "event"
				},
				{
					"anonymous": false,
					"inputs": [
						{
							"indexed": true,
							"internalType": "uint256",
							"name": "escrowId",
							"type": "uint256"
						},
						{
							"indexed": true,
							"internalType": "address",
							"name": "confirmer",
							"type": "address"
						}
					],
					"name": "EscrowConfirmed",
					"type": "event"
				},
				{
					"anonymous": false,
					"inputs": [
						{
							"indexed": true,
							"internalType": "uint256",
							"name": "escrowId",
							"type": "uint256"
						},
						{
							"indexed": true,
							"internalType": "address",
							"name": "seller",
							"type": "address"
						},
						{
							"indexed": true,
							"internalType": "address",
							"name": "buyer",
							"type": "address"
						},
						{
							"indexed": false,
							"internalType": "address",
							"name": "nftAddress",
							"type": "address"
						},
						{
							"indexed": false,
							"internalType": "uint256",
							"name": "tokenId",
							"type": "uint256"
						},
						{
							"indexed": false,
							"internalType": "uint256",
							"name": "amount",
							"type": "uint256"
						},
						{
							"indexed": false,
							"internalType": "uint256",
							"name": "price",
							"type": "uint256"
						}
					],
					"name": "EscrowCreated",
					"type": "event"
				},
				{
					"anonymous": false,
					"inputs": [
						{
							"indexed": true,
							"internalType": "uint256",
							"name": "escrowId",
							"type": "uint256"
						}
					],
					"name": "EscrowFinalized",
					"type": "event"
				},
				{
					"anonymous": false,
					"inputs": [
						{
							"indexed": true,
							"internalType": "uint256",
							"name": "escrowId",
							"type": "uint256"
						},
						{
							"indexed": true,
							"internalType": "address",
							"name": "buyer",
							"type": "address"
						},
						{
							"indexed": false,
							"internalType": "uint256",
							"name": "amount",
							"type": "uint256"
						}
					],
					"name": "EscrowFunded",
					"type": "event"
				},
				{
					"inputs": [
						{
							"internalType": "uint256",
							"name": "_escrowId",
							"type": "uint256"
						}
					],
					"name": "cancelEscrow",
					"outputs": [],
					"stateMutability": "nonpayable",
					"type": "function"
				},
				{
					"inputs": [
						{
							"internalType": "uint256",
							"name": "_escrowId",
							"type": "uint256"
						}
					],
					"name": "confirmFinalize",
					"outputs": [],
					"stateMutability": "nonpayable",
					"type": "function"
				},
				{
					"inputs": [
						{
							"internalType": "address",
							"name": "_buyer",
							"type": "address"
						},
						{
							"internalType": "address",
							"name": "_nftAddress",
							"type": "address"
						},
						{
							"internalType": "uint256",
							"name": "_tokenId",
							"type": "uint256"
						},
						{
							"internalType": "uint256",
							"name": "_amount",
							"type": "uint256"
						},
						{
							"internalType": "uint256",
							"name": "_price",
							"type": "uint256"
						}
					],
					"name": "createEscrow",
					"outputs": [
						{
							"internalType": "uint256",
							"name": "",
							"type": "uint256"
						}
					],
					"stateMutability": "nonpayable",
					"type": "function"
				},
				{
					"inputs": [
						{
							"internalType": "uint256",
							"name": "",
							"type": "uint256"
						}
					],
					"name": "escrows",
					"outputs": [
						{
							"internalType": "address",
							"name": "seller",
							"type": "address"
						},
						{
							"internalType": "address",
							"name": "buyer",
							"type": "address"
						},
						{
							"internalType": "address",
							"name": "nftAddress",
							"type": "address"
						},
						{
							"internalType": "uint256",
							"name": "tokenId",
							"type": "uint256"
						},
						{
							"internalType": "uint256",
							"name": "amount",
							"type": "uint256"
						},
						{
							"internalType": "uint256",
							"name": "price",
							"type": "uint256"
						},
						{
							"internalType": "bool",
							"name": "isActive",
							"type": "bool"
						},
						{
							"internalType": "bool",
							"name": "isFunded",
							"type": "bool"
						},
						{
							"internalType": "bool",
							"name": "sellerConfirmed",
							"type": "bool"
						},
						{
							"internalType": "bool",
							"name": "buyerConfirmed",
							"type": "bool"
						}
					],
					"stateMutability": "view",
					"type": "function"
				},
				{
					"inputs": [
						{
							"internalType": "uint256",
							"name": "_escrowId",
							"type": "uint256"
						}
					],
					"name": "finalizeEscrow",
					"outputs": [],
					"stateMutability": "nonpayable",
					"type": "function"
				},
				{
					"inputs": [
						{
							"internalType": "uint256",
							"name": "_escrowId",
							"type": "uint256"
						}
					],
					"name": "fundEscrow",
					"outputs": [],
					"stateMutability": "payable",
					"type": "function"
				},
				{
					"inputs": [],
					"name": "nextEscrowId",
					"outputs": [
						{
							"internalType": "uint256",
							"name": "",
							"type": "uint256"
						}
					],
					"stateMutability": "view",
					"type": "function"
				},
				{
					"inputs": [
						{
							"internalType": "address",
							"name": "",
							"type": "address"
						},
						{
							"internalType": "address",
							"name": "",
							"type": "address"
						},
						{
							"internalType": "uint256[]",
							"name": "",
							"type": "uint256[]"
						},
						{
							"internalType": "uint256[]",
							"name": "",
							"type": "uint256[]"
						},
						{
							"internalType": "bytes",
							"name": "",
							"type": "bytes"
						}
					],
					"name": "onERC1155BatchReceived",
					"outputs": [
						{
							"internalType": "bytes4",
							"name": "",
							"type": "bytes4"
						}
					],
					"stateMutability": "pure",
					"type": "function"
				},
				{
					"inputs": [
						{
							"internalType": "address",
							"name": "",
							"type": "address"
						},
						{
							"internalType": "address",
							"name": "",
							"type": "address"
						},
						{
							"internalType": "uint256",
							"name": "",
							"type": "uint256"
						},
						{
							"internalType": "uint256",
							"name": "",
							"type": "uint256"
						},
						{
							"internalType": "bytes",
							"name": "",
							"type": "bytes"
						}
					],
					"name": "onERC1155Received",
					"outputs": [
						{
							"internalType": "bytes4",
							"name": "",
							"type": "bytes4"
						}
					],
					"stateMutability": "pure",
					"type": "function"
				}
			],
			"devdoc": {
				"kind": "dev",
				"methods": {
					"cancelEscrow(uint256)": {
						"details": "아직 완료되지 않은 거래만 취소 가능",
						"params": {
							"_escrowId": "에스크로 ID"
						}
					},
					"confirmFinalize(uint256)": {
						"params": {
							"_escrowId": "에스크로 ID"
						}
					},
					"createEscrow(address,address,uint256,uint256,uint256)": {
						"params": {
							"_amount": "거래할 수량",
							"_buyer": "구매자 주소",
							"_nftAddress": "ERC1155 토큰 컨트랙트 주소",
							"_price": "총 거래 금액(ETH)",
							"_tokenId": "토큰 ID"
						}
					},
					"finalizeEscrow(uint256)": {
						"params": {
							"_escrowId": "에스크로 ID"
						}
					},
					"fundEscrow(uint256)": {
						"params": {
							"_escrowId": "에스크로 ID"
						}
					}
				},
				"title": "ERC1155Escrow",
				"version": 1
			},
			"evm": {
				"assembly": "    /* \"contract-8f3861590a.sol\":575:8690  contract ERC1155Escrow is Context, ReentrancyGuard {... */\n  mstore(0x40, 0x80)\n  callvalue\n  dup1\n  iszero\n  tag_1\n  jumpi\n  0x00\n  dup1\n  revert\ntag_1:\n  pop\n    /* \"@openzeppelin/contracts/security/ReentrancyGuard.sol\":1716:1717  1 */\n  0x01\n    /* \"@openzeppelin/contracts/security/ReentrancyGuard.sol\":1821:1828  _status */\n  0x00\n    /* \"@openzeppelin/contracts/security/ReentrancyGuard.sol\":1821:1843  _status = _NOT_ENTERED */\n  dup2\n  swap1\n  sstore\n  pop\n    /* \"contract-8f3861590a.sol\":575:8690  contract ERC1155Escrow is Context, ReentrancyGuard {... */\n  dataSize(sub_0)\n  dup1\n  dataOffset(sub_0)\n  0x00\n  codecopy\n  0x00\n  return\nstop\n\nsub_0: assembly {\n        /* \"contract-8f3861590a.sol\":575:8690  contract ERC1155Escrow is Context, ReentrancyGuard {... */\n      mstore(0x40, 0x80)\n      jumpi(tag_1, lt(calldatasize, 0x04))\n      shr(0xe0, calldataload(0x00))\n      dup1\n      0xbc197c81\n      gt\n      tag_11\n      jumpi\n      dup1\n      0xbc197c81\n      eq\n      tag_6\n      jumpi\n      dup1\n      0xc9c31af5\n      eq\n      tag_7\n      jumpi\n      dup1\n      0xd9daea51\n      eq\n      tag_8\n      jumpi\n      dup1\n      0xe0182436\n      eq\n      tag_9\n      jumpi\n      dup1\n      0xf23a6e61\n      eq\n      tag_10\n      jumpi\n      jump(tag_1)\n    tag_11:\n      dup1\n      0x012f52ee\n      eq\n      tag_2\n      jumpi\n      dup1\n      0x3bf3110f\n      eq\n      tag_3\n      jumpi\n      dup1\n      0x89cb29dd\n      eq\n      tag_4\n      jumpi\n      dup1\n      0xb43a405a\n      eq\n      tag_5\n      jumpi\n    tag_1:\n      0x00\n      dup1\n      revert\n        /* \"contract-8f3861590a.sol\":1236:1281  mapping(uint256 => EscrowDeal) public escrows */\n    tag_2:\n      callvalue\n      dup1\n      iszero\n      tag_12\n      jumpi\n      0x00\n      dup1\n      revert\n    tag_12:\n      pop\n      tag_13\n      0x04\n      dup1\n      calldatasize\n      sub\n      dup2\n      add\n      swap1\n      tag_14\n      swap2\n      swap1\n      tag_15\n      jump\t// in\n    tag_14:\n      tag_16\n      jump\t// in\n    tag_13:\n      mload(0x40)\n      tag_17\n      swap11\n      swap10\n      swap9\n      swap8\n      swap7\n      swap6\n      swap5\n      swap4\n      swap3\n      swap2\n      swap1\n      tag_18\n      jump\t// in\n    tag_17:\n      mload(0x40)\n      dup1\n      swap2\n      sub\n      swap1\n      return\n        /* \"contract-8f3861590a.sol\":2112:3405  function createEscrow(... */\n    tag_3:\n      callvalue\n      dup1\n      iszero\n      tag_19\n      jumpi\n      0x00\n      dup1\n      revert\n    tag_19:\n      pop\n      tag_20\n      0x04\n      dup1\n      calldatasize\n      sub\n      dup2\n      add\n      swap1\n      tag_21\n      swap2\n      swap1\n      tag_22\n      jump\t// in\n    tag_21:\n      tag_23\n      jump\t// in\n    tag_20:\n      mload(0x40)\n      tag_24\n      swap2\n      swap1\n      tag_25\n      jump\t// in\n    tag_24:\n      mload(0x40)\n      dup1\n      swap2\n      sub\n      swap1\n      return\n        /* \"contract-8f3861590a.sol\":1287:1314  uint256 public nextEscrowId */\n    tag_4:\n      callvalue\n      dup1\n      iszero\n      tag_26\n      jumpi\n      0x00\n      dup1\n      revert\n    tag_26:\n      pop\n      tag_27\n      tag_28\n      jump\t// in\n    tag_27:\n      mload(0x40)\n      tag_29\n      swap2\n      swap1\n      tag_25\n      jump\t// in\n    tag_29:\n      mload(0x40)\n      dup1\n      swap2\n      sub\n      swap1\n      return\n        /* \"contract-8f3861590a.sol\":5551:6169  function finalizeEscrow(uint256 _escrowId) external nonReentrant {... */\n    tag_5:\n      callvalue\n      dup1\n      iszero\n      tag_30\n      jumpi\n      0x00\n      dup1\n      revert\n    tag_30:\n      pop\n      tag_31\n      0x04\n      dup1\n      calldatasize\n      sub\n      dup2\n      add\n      swap1\n      tag_32\n      swap2\n      swap1\n      tag_15\n      jump\t// in\n    tag_32:\n      tag_33\n      jump\t// in\n    tag_31:\n      stop\n        /* \"contract-8f3861590a.sol\":8235:8478  function onERC1155BatchReceived(... */\n    tag_6:\n      callvalue\n      dup1\n      iszero\n      tag_34\n      jumpi\n      0x00\n      dup1\n      revert\n    tag_34:\n      pop\n      tag_35\n      0x04\n      dup1\n      calldatasize\n      sub\n      dup2\n      add\n      swap1\n      tag_36\n      swap2\n      swap1\n      tag_37\n      jump\t// in\n    tag_36:\n      tag_38\n      jump\t// in\n    tag_35:\n      mload(0x40)\n      tag_39\n      swap2\n      swap1\n      tag_40\n      jump\t// in\n    tag_39:\n      mload(0x40)\n      dup1\n      swap2\n      sub\n      swap1\n      return\n        /* \"contract-8f3861590a.sol\":3528:4061  function fundEscrow(uint256 _escrowId) external payable nonReentrant {... */\n    tag_7:\n      tag_41\n      0x04\n      dup1\n      calldatasize\n      sub\n      dup2\n      add\n      swap1\n      tag_42\n      swap2\n      swap1\n      tag_15\n      jump\t// in\n    tag_42:\n      tag_43\n      jump\t// in\n    tag_41:\n      stop\n        /* \"contract-8f3861590a.sol\":4322:5298  function confirmFinalize(uint256 _escrowId) external nonReentrant {... */\n    tag_8:\n      callvalue\n      dup1\n      iszero\n      tag_44\n      jumpi\n      0x00\n      dup1\n      revert\n    tag_44:\n      pop\n      tag_45\n      0x04\n      dup1\n      calldatasize\n      sub\n      dup2\n      add\n      swap1\n      tag_46\n      swap2\n      swap1\n      tag_15\n      jump\t// in\n    tag_46:\n      tag_47\n      jump\t// in\n    tag_45:\n      stop\n        /* \"contract-8f3861590a.sol\":7019:7974  function cancelEscrow(uint256 _escrowId) external nonReentrant {... */\n    tag_9:\n      callvalue\n      dup1\n      iszero\n      tag_48\n      jumpi\n      0x00\n      dup1\n      revert\n    tag_48:\n      pop\n      tag_49\n      0x04\n      dup1\n      calldatasize\n      sub\n      dup2\n      add\n      swap1\n      tag_50\n      swap2\n      swap1\n      tag_15\n      jump\t// in\n    tag_50:\n      tag_51\n      jump\t// in\n    tag_49:\n      stop\n        /* \"contract-8f3861590a.sol\":8018:8229  function onERC1155Received(... */\n    tag_10:\n      callvalue\n      dup1\n      iszero\n      tag_52\n      jumpi\n      0x00\n      dup1\n      revert\n    tag_52:\n      pop\n      tag_53\n      0x04\n      dup1\n      calldatasize\n      sub\n      dup2\n      add\n      swap1\n      tag_54\n      swap2\n      swap1\n      tag_55\n      jump\t// in\n    tag_54:\n      tag_56\n      jump\t// in\n    tag_53:\n      mload(0x40)\n      tag_57\n      swap2\n      swap1\n      tag_40\n      jump\t// in\n    tag_57:\n      mload(0x40)\n      dup1\n      swap2\n      sub\n      swap1\n      return\n        /* \"contract-8f3861590a.sol\":1236:1281  mapping(uint256 => EscrowDeal) public escrows */\n    tag_16:\n      mstore(0x20, 0x01)\n      dup1\n      0x00\n      mstore\n      keccak256(0x00, 0x40)\n      0x00\n      swap2\n      pop\n      swap1\n      pop\n      dup1\n      0x00\n      add\n      0x00\n      swap1\n      sload\n      swap1\n      0x0100\n      exp\n      swap1\n      div\n      0xffffffffffffffffffffffffffffffffffffffff\n      and\n      swap1\n      dup1\n      0x01\n      add\n      0x00\n      swap1\n      sload\n      swap1\n      0x0100\n      exp\n      swap1\n      div\n      0xffffffffffffffffffffffffffffffffffffffff\n      and\n      swap1\n      dup1\n      0x02\n      add\n      0x00\n      swap1\n      sload\n      swap1\n      0x0100\n      exp\n      swap1\n      div\n      0xffffffffffffffffffffffffffffffffffffffff\n      and\n      swap1\n      dup1\n      0x03\n      add\n      sload\n      swap1\n      dup1\n      0x04\n      add\n      sload\n      swap1\n      dup1\n      0x05\n      add\n      sload\n      swap1\n      dup1\n      0x06\n      add\n      0x00\n      swap1\n      sload\n      swap1\n      0x0100\n      exp\n      swap1\n      div\n      0xff\n      and\n      swap1\n      dup1\n      0x06\n      add\n      0x01\n      swap1\n      sload\n      swap1\n      0x0100\n      exp\n      swap1\n      div\n      0xff\n      and\n      swap1\n      dup1\n      0x06\n      add\n      0x02\n      swap1\n      sload\n      swap1\n      0x0100\n      exp\n      swap1\n      div\n      0xff\n      and\n      swap1\n      dup1\n      0x06\n      add\n      0x03\n      swap1\n      sload\n      swap1\n      0x0100\n      exp\n      swap1\n      div\n      0xff\n      and\n      swap1\n      pop\n      dup11\n      jump\t// out\n        /* \"contract-8f3861590a.sol\":2112:3405  function createEscrow(... */\n    tag_23:\n        /* \"contract-8f3861590a.sol\":2299:2306  uint256 */\n      0x00\n        /* \"@openzeppelin/contracts/security/ReentrancyGuard.sol\":2261:2282  _nonReentrantBefore() */\n      tag_59\n        /* \"@openzeppelin/contracts/security/ReentrancyGuard.sol\":2261:2280  _nonReentrantBefore */\n      tag_60\n        /* \"@openzeppelin/contracts/security/ReentrancyGuard.sol\":2261:2282  _nonReentrantBefore() */\n      jump\t// in\n    tag_59:\n        /* \"contract-8f3861590a.sol\":2335:2336  0 */\n      0x00\n        /* \"contract-8f3861590a.sol\":2326:2332  _price */\n      dup3\n        /* \"contract-8f3861590a.sol\":2326:2336  _price > 0 */\n      gt\n        /* \"contract-8f3861590a.sol\":2318:2358  require(_price > 0, \"Price must be > 0\") */\n      tag_62\n      jumpi\n      mload(0x40)\n      0x08c379a000000000000000000000000000000000000000000000000000000000\n      dup2\n      mstore\n      0x04\n      add\n      tag_63\n      swap1\n      tag_64\n      jump\t// in\n    tag_63:\n      mload(0x40)\n      dup1\n      swap2\n      sub\n      swap1\n      revert\n    tag_62:\n        /* \"contract-8f3861590a.sol\":2386:2387  0 */\n      0x00\n        /* \"contract-8f3861590a.sol\":2376:2383  _amount */\n      dup4\n        /* \"contract-8f3861590a.sol\":2376:2387  _amount > 0 */\n      gt\n        /* \"contract-8f3861590a.sol\":2368:2410  require(_amount > 0, \"Amount must be > 0\") */\n      tag_65\n      jumpi\n      mload(0x40)\n      0x08c379a000000000000000000000000000000000000000000000000000000000\n      dup2\n      mstore\n      0x04\n      add\n      tag_66\n      swap1\n      tag_67\n      jump\t// in\n    tag_66:\n      mload(0x40)\n      dup1\n      swap2\n      sub\n      swap1\n      revert\n    tag_65:\n        /* \"contract-8f3861590a.sol\":2446:2447  0 */\n      0x00\n        /* \"contract-8f3861590a.sol\":2428:2448  _buyer != address(0) */\n      0xffffffffffffffffffffffffffffffffffffffff\n      and\n        /* \"contract-8f3861590a.sol\":2428:2434  _buyer */\n      dup7\n        /* \"contract-8f3861590a.sol\":2428:2448  _buyer != address(0) */\n      0xffffffffffffffffffffffffffffffffffffffff\n      and\n      sub\n        /* \"contract-8f3861590a.sol\":2420:2481  require(_buyer != address(0), \"Buyer cannot be zero address\") */\n      tag_68\n      jumpi\n      mload(0x40)\n      0x08c379a000000000000000000000000000000000000000000000000000000000\n      dup2\n      mstore\n      0x04\n      add\n      tag_69\n      swap1\n      tag_70\n      jump\t// in\n    tag_69:\n      mload(0x40)\n      dup1\n      swap2\n      sub\n      swap1\n      revert\n    tag_68:\n        /* \"contract-8f3861590a.sol\":2492:2508  uint256 escrowId */\n      0x00\n        /* \"contract-8f3861590a.sol\":2511:2523  nextEscrowId */\n      sload(0x02)\n        /* \"contract-8f3861590a.sol\":2492:2523  uint256 escrowId = nextEscrowId */\n      swap1\n      pop\n        /* \"contract-8f3861590a.sol\":2533:2545  nextEscrowId */\n      0x02\n      0x00\n        /* \"contract-8f3861590a.sol\":2533:2547  nextEscrowId++ */\n      dup2\n      sload\n      dup1\n      swap3\n      swap2\n      swap1\n      tag_71\n      swap1\n      tag_72\n      jump\t// in\n    tag_71:\n      swap2\n      swap1\n      pop\n      sstore\n      pop\n        /* \"contract-8f3861590a.sol\":2578:2913  EscrowDeal({... */\n      mload(0x40)\n      dup1\n      0x0140\n      add\n      0x40\n      mstore\n      dup1\n        /* \"contract-8f3861590a.sol\":2611:2623  _msgSender() */\n      tag_73\n        /* \"contract-8f3861590a.sol\":2611:2621  _msgSender */\n      tag_74\n        /* \"contract-8f3861590a.sol\":2611:2623  _msgSender() */\n      jump\t// in\n    tag_73:\n        /* \"contract-8f3861590a.sol\":2578:2913  EscrowDeal({... */\n      0xffffffffffffffffffffffffffffffffffffffff\n      and\n      dup2\n      mstore\n      0x20\n      add\n        /* \"contract-8f3861590a.sol\":2644:2650  _buyer */\n      dup9\n        /* \"contract-8f3861590a.sol\":2578:2913  EscrowDeal({... */\n      0xffffffffffffffffffffffffffffffffffffffff\n      and\n      dup2\n      mstore\n      0x20\n      add\n        /* \"contract-8f3861590a.sol\":2676:2687  _nftAddress */\n      dup8\n        /* \"contract-8f3861590a.sol\":2578:2913  EscrowDeal({... */\n      0xffffffffffffffffffffffffffffffffffffffff\n      and\n      dup2\n      mstore\n      0x20\n      add\n        /* \"contract-8f3861590a.sol\":2710:2718  _tokenId */\n      dup7\n        /* \"contract-8f3861590a.sol\":2578:2913  EscrowDeal({... */\n      dup2\n      mstore\n      0x20\n      add\n        /* \"contract-8f3861590a.sol\":2740:2747  _amount */\n      dup6\n        /* \"contract-8f3861590a.sol\":2578:2913  EscrowDeal({... */\n      dup2\n      mstore\n      0x20\n      add\n        /* \"contract-8f3861590a.sol\":2768:2774  _price */\n      dup5\n        /* \"contract-8f3861590a.sol\":2578:2913  EscrowDeal({... */\n      dup2\n      mstore\n      0x20\n      add\n        /* \"contract-8f3861590a.sol\":2798:2802  true */\n      0x01\n        /* \"contract-8f3861590a.sol\":2578:2913  EscrowDeal({... */\n      iszero\n      iszero\n      dup2\n      mstore\n      0x20\n      add\n        /* \"contract-8f3861590a.sol\":2826:2831  false */\n      0x00\n        /* \"contract-8f3861590a.sol\":2578:2913  EscrowDeal({... */\n      iszero\n      iszero\n      dup2\n      mstore\n      0x20\n      add\n        /* \"contract-8f3861590a.sol\":2862:2867  false */\n      0x00\n        /* \"contract-8f3861590a.sol\":2578:2913  EscrowDeal({... */\n      iszero\n      iszero\n      dup2\n      mstore\n      0x20\n      add\n        /* \"contract-8f3861590a.sol\":2897:2902  false */\n      0x00\n        /* \"contract-8f3861590a.sol\":2578:2913  EscrowDeal({... */\n      iszero\n      iszero\n      dup2\n      mstore\n      pop\n        /* \"contract-8f3861590a.sol\":2558:2565  escrows */\n      0x01\n        /* \"contract-8f3861590a.sol\":2558:2575  escrows[escrowId] */\n      0x00\n        /* \"contract-8f3861590a.sol\":2566:2574  escrowId */\n      dup4\n        /* \"contract-8f3861590a.sol\":2558:2575  escrows[escrowId] */\n      dup2\n      mstore\n      0x20\n      add\n      swap1\n      dup2\n      mstore\n      0x20\n      add\n      0x00\n      keccak256\n        /* \"contract-8f3861590a.sol\":2558:2913  escrows[escrowId] = EscrowDeal({... */\n      0x00\n      dup3\n      add\n      mload\n      dup2\n      0x00\n      add\n      exp(0x0100, 0x00)\n      dup2\n      sload\n      dup2\n      0xffffffffffffffffffffffffffffffffffffffff\n      mul\n      not\n      and\n      swap1\n      dup4\n      0xffffffffffffffffffffffffffffffffffffffff\n      and\n      mul\n      or\n      swap1\n      sstore\n      pop\n      0x20\n      dup3\n      add\n      mload\n      dup2\n      0x01\n      add\n      exp(0x0100, 0x00)\n      dup2\n      sload\n      dup2\n      0xffffffffffffffffffffffffffffffffffffffff\n      mul\n      not\n      and\n      swap1\n      dup4\n      0xffffffffffffffffffffffffffffffffffffffff\n      and\n      mul\n      or\n      swap1\n      sstore\n      pop\n      0x40\n      dup3\n      add\n      mload\n      dup2\n      0x02\n      add\n      exp(0x0100, 0x00)\n      dup2\n      sload\n      dup2\n      0xffffffffffffffffffffffffffffffffffffffff\n      mul\n      not\n      and\n      swap1\n      dup4\n      0xffffffffffffffffffffffffffffffffffffffff\n      and\n      mul\n      or\n      swap1\n      sstore\n      pop\n      0x60\n      dup3\n      add\n      mload\n      dup2\n      0x03\n      add\n      sstore\n      0x80\n      dup3\n      add\n      mload\n      dup2\n      0x04\n      add\n      sstore\n      0xa0\n      dup3\n      add\n      mload\n      dup2\n      0x05\n      add\n      sstore\n      0xc0\n      dup3\n      add\n      mload\n      dup2\n      0x06\n      add\n      exp(0x0100, 0x00)\n      dup2\n      sload\n      dup2\n      0xff\n      mul\n      not\n      and\n      swap1\n      dup4\n      iszero\n      iszero\n      mul\n      or\n      swap1\n      sstore\n      pop\n      0xe0\n      dup3\n      add\n      mload\n      dup2\n      0x06\n      add\n      exp(0x0100, 0x01)\n      dup2\n      sload\n      dup2\n      0xff\n      mul\n      not\n      and\n      swap1\n      dup4\n      iszero\n      iszero\n      mul\n      or\n      swap1\n      sstore\n      pop\n      0x0100\n      dup3\n      add\n      mload\n      dup2\n      0x06\n      add\n      exp(0x0100, 0x02)\n      dup2\n      sload\n      dup2\n      0xff\n      mul\n      not\n      and\n      swap1\n      dup4\n      iszero\n      iszero\n      mul\n      or\n      swap1\n      sstore\n      pop\n      0x0120\n      dup3\n      add\n      mload\n      dup2\n      0x06\n      add\n      exp(0x0100, 0x03)\n      dup2\n      sload\n      dup2\n      0xff\n      mul\n      not\n      and\n      swap1\n      dup4\n      iszero\n      iszero\n      mul\n      or\n      swap1\n      sstore\n      pop\n      swap1\n      pop\n      pop\n        /* \"contract-8f3861590a.sol\":3026:3037  _nftAddress */\n      dup6\n        /* \"contract-8f3861590a.sol\":3017:3055  IERC1155(_nftAddress).safeTransferFrom */\n      0xffffffffffffffffffffffffffffffffffffffff\n      and\n      0xf242432a\n        /* \"contract-8f3861590a.sol\":3069:3081  _msgSender() */\n      tag_75\n        /* \"contract-8f3861590a.sol\":3069:3079  _msgSender */\n      tag_74\n        /* \"contract-8f3861590a.sol\":3069:3081  _msgSender() */\n      jump\t// in\n    tag_75:\n        /* \"contract-8f3861590a.sol\":3103:3107  this */\n      address\n        /* \"contract-8f3861590a.sol\":3122:3130  _tokenId */\n      dup9\n        /* \"contract-8f3861590a.sol\":3144:3151  _amount */\n      dup9\n        /* \"contract-8f3861590a.sol\":3017:3177  IERC1155(_nftAddress).safeTransferFrom(... */\n      mload(0x40)\n      dup6\n      0xffffffff\n      and\n      0xe0\n      shl\n      dup2\n      mstore\n      0x04\n      add\n      tag_76\n      swap5\n      swap4\n      swap3\n      swap2\n      swap1\n      tag_77\n      jump\t// in\n    tag_76:\n      0x00\n      mload(0x40)\n      dup1\n      dup4\n      sub\n      dup2\n      0x00\n      dup8\n      dup1\n      extcodesize\n      iszero\n      dup1\n      iszero\n      tag_78\n      jumpi\n      0x00\n      dup1\n      revert\n    tag_78:\n      pop\n      gas\n      call\n      iszero\n      dup1\n      iszero\n      tag_80\n      jumpi\n      returndatasize\n      0x00\n      dup1\n      returndatacopy\n      revert(0x00, returndatasize)\n    tag_80:\n      pop\n      pop\n      pop\n      pop\n        /* \"contract-8f3861590a.sol\":3268:3274  _buyer */\n      dup7\n        /* \"contract-8f3861590a.sol\":3193:3372  EscrowCreated(... */\n      0xffffffffffffffffffffffffffffffffffffffff\n      and\n        /* \"contract-8f3861590a.sol\":3242:3254  _msgSender() */\n      tag_81\n        /* \"contract-8f3861590a.sol\":3242:3252  _msgSender */\n      tag_74\n        /* \"contract-8f3861590a.sol\":3242:3254  _msgSender() */\n      jump\t// in\n    tag_81:\n        /* \"contract-8f3861590a.sol\":3193:3372  EscrowCreated(... */\n      0xffffffffffffffffffffffffffffffffffffffff\n      and\n        /* \"contract-8f3861590a.sol\":3220:3228  escrowId */\n      dup3\n        /* \"contract-8f3861590a.sol\":3193:3372  EscrowCreated(... */\n      0x348031cd285968b4adff7fef56c95316db316985cb29bd301bf6734eb4fe5f19\n        /* \"contract-8f3861590a.sol\":3288:3299  _nftAddress */\n      dup10\n        /* \"contract-8f3861590a.sol\":3313:3321  _tokenId */\n      dup10\n        /* \"contract-8f3861590a.sol\":3335:3342  _amount */\n      dup10\n        /* \"contract-8f3861590a.sol\":3356:3362  _price */\n      dup10\n        /* \"contract-8f3861590a.sol\":3193:3372  EscrowCreated(... */\n      mload(0x40)\n      tag_82\n      swap5\n      swap4\n      swap3\n      swap2\n      swap1\n      tag_83\n      jump\t// in\n    tag_82:\n      mload(0x40)\n      dup1\n      swap2\n      sub\n      swap1\n      log4\n        /* \"contract-8f3861590a.sol\":3390:3398  escrowId */\n      dup1\n        /* \"contract-8f3861590a.sol\":3383:3398  return escrowId */\n      swap2\n      pop\n      pop\n        /* \"@openzeppelin/contracts/security/ReentrancyGuard.sol\":2303:2323  _nonReentrantAfter() */\n      tag_84\n        /* \"@openzeppelin/contracts/security/ReentrancyGuard.sol\":2303:2321  _nonReentrantAfter */\n      tag_85\n        /* \"@openzeppelin/contracts/security/ReentrancyGuard.sol\":2303:2323  _nonReentrantAfter() */\n      jump\t// in\n    tag_84:\n        /* \"contract-8f3861590a.sol\":2112:3405  function createEscrow(... */\n      swap6\n      swap5\n      pop\n      pop\n      pop\n      pop\n      pop\n      jump\t// out\n        /* \"contract-8f3861590a.sol\":1287:1314  uint256 public nextEscrowId */\n    tag_28:\n      sload(0x02)\n      dup2\n      jump\t// out\n        /* \"contract-8f3861590a.sol\":5551:6169  function finalizeEscrow(uint256 _escrowId) external nonReentrant {... */\n    tag_33:\n        /* \"@openzeppelin/contracts/security/ReentrancyGuard.sol\":2261:2282  _nonReentrantBefore() */\n      tag_87\n        /* \"@openzeppelin/contracts/security/ReentrancyGuard.sol\":2261:2280  _nonReentrantBefore */\n      tag_60\n        /* \"@openzeppelin/contracts/security/ReentrancyGuard.sol\":2261:2282  _nonReentrantBefore() */\n      jump\t// in\n    tag_87:\n        /* \"contract-8f3861590a.sol\":5626:5649  EscrowDeal storage deal */\n      0x00\n        /* \"contract-8f3861590a.sol\":5652:5659  escrows */\n      0x01\n        /* \"contract-8f3861590a.sol\":5652:5670  escrows[_escrowId] */\n      0x00\n        /* \"contract-8f3861590a.sol\":5660:5669  _escrowId */\n      dup4\n        /* \"contract-8f3861590a.sol\":5652:5670  escrows[_escrowId] */\n      dup2\n      mstore\n      0x20\n      add\n      swap1\n      dup2\n      mstore\n      0x20\n      add\n      0x00\n      keccak256\n        /* \"contract-8f3861590a.sol\":5626:5670  EscrowDeal storage deal = escrows[_escrowId] */\n      swap1\n      pop\n        /* \"contract-8f3861590a.sol\":5688:5692  deal */\n      dup1\n        /* \"contract-8f3861590a.sol\":5688:5701  deal.isActive */\n      0x06\n      add\n      0x00\n      swap1\n      sload\n      swap1\n      0x0100\n      exp\n      swap1\n      div\n      0xff\n      and\n        /* \"contract-8f3861590a.sol\":5680:5723  require(deal.isActive, \"Escrow not active\") */\n      tag_89\n      jumpi\n      mload(0x40)\n      0x08c379a000000000000000000000000000000000000000000000000000000000\n      dup2\n      mstore\n      0x04\n      add\n      tag_90\n      swap1\n      tag_91\n      jump\t// in\n    tag_90:\n      mload(0x40)\n      dup1\n      swap2\n      sub\n      swap1\n      revert\n    tag_89:\n        /* \"contract-8f3861590a.sol\":5741:5745  deal */\n      dup1\n        /* \"contract-8f3861590a.sol\":5741:5754  deal.isFunded */\n      0x06\n      add\n      0x01\n      swap1\n      sload\n      swap1\n      0x0100\n      exp\n      swap1\n      div\n      0xff\n      and\n        /* \"contract-8f3861590a.sol\":5733:5776  require(deal.isFunded, \"Escrow not funded\") */\n      tag_92\n      jumpi\n      mload(0x40)\n      0x08c379a000000000000000000000000000000000000000000000000000000000\n      dup2\n      mstore\n      0x04\n      add\n      tag_93\n      swap1\n      tag_94\n      jump\t// in\n    tag_93:\n      mload(0x40)\n      dup1\n      swap2\n      sub\n      swap1\n      revert\n    tag_92:\n        /* \"contract-8f3861590a.sol\":5794:5798  deal */\n      dup1\n        /* \"contract-8f3861590a.sol\":5794:5814  deal.sellerConfirmed */\n      0x06\n      add\n      0x02\n      swap1\n      sload\n      swap1\n      0x0100\n      exp\n      swap1\n      div\n      0xff\n      and\n        /* \"contract-8f3861590a.sol\":5794:5837  deal.sellerConfirmed && deal.buyerConfirmed */\n      dup1\n      iszero\n      tag_95\n      jumpi\n      pop\n        /* \"contract-8f3861590a.sol\":5818:5822  deal */\n      dup1\n        /* \"contract-8f3861590a.sol\":5818:5837  deal.buyerConfirmed */\n      0x06\n      add\n      0x03\n      swap1\n      sload\n      swap1\n      0x0100\n      exp\n      swap1\n      div\n      0xff\n      and\n        /* \"contract-8f3861590a.sol\":5794:5837  deal.sellerConfirmed && deal.buyerConfirmed */\n    tag_95:\n        /* \"contract-8f3861590a.sol\":5786:5867  require(deal.sellerConfirmed && deal.buyerConfirmed, \"Both parties must confirm\") */\n      tag_96\n      jumpi\n      mload(0x40)\n      0x08c379a000000000000000000000000000000000000000000000000000000000\n      dup2\n      mstore\n      0x04\n      add\n      tag_97\n      swap1\n      tag_98\n      jump\t// in\n    tag_97:\n      mload(0x40)\n      dup1\n      swap2\n      sub\n      swap1\n      revert\n    tag_96:\n        /* \"contract-8f3861590a.sol\":6025:6029  deal */\n      dup1\n        /* \"contract-8f3861590a.sol\":6025:6036  deal.seller */\n      0x00\n      add\n      0x00\n      swap1\n      sload\n      swap1\n      0x0100\n      exp\n      swap1\n      div\n      0xffffffffffffffffffffffffffffffffffffffff\n      and\n        /* \"contract-8f3861590a.sol\":6009:6036  _msgSender() == deal.seller */\n      0xffffffffffffffffffffffffffffffffffffffff\n      and\n        /* \"contract-8f3861590a.sol\":6009:6021  _msgSender() */\n      tag_99\n        /* \"contract-8f3861590a.sol\":6009:6019  _msgSender */\n      tag_74\n        /* \"contract-8f3861590a.sol\":6009:6021  _msgSender() */\n      jump\t// in\n    tag_99:\n        /* \"contract-8f3861590a.sol\":6009:6036  _msgSender() == deal.seller */\n      0xffffffffffffffffffffffffffffffffffffffff\n      and\n      eq\n        /* \"contract-8f3861590a.sol\":6009:6066  _msgSender() == deal.seller || _msgSender() == deal.buyer */\n      dup1\n      tag_100\n      jumpi\n      pop\n        /* \"contract-8f3861590a.sol\":6056:6060  deal */\n      dup1\n        /* \"contract-8f3861590a.sol\":6056:6066  deal.buyer */\n      0x01\n      add\n      0x00\n      swap1\n      sload\n      swap1\n      0x0100\n      exp\n      swap1\n      div\n      0xffffffffffffffffffffffffffffffffffffffff\n      and\n        /* \"contract-8f3861590a.sol\":6040:6066  _msgSender() == deal.buyer */\n      0xffffffffffffffffffffffffffffffffffffffff\n      and\n        /* \"contract-8f3861590a.sol\":6040:6052  _msgSender() */\n      tag_101\n        /* \"contract-8f3861590a.sol\":6040:6050  _msgSender */\n      tag_74\n        /* \"contract-8f3861590a.sol\":6040:6052  _msgSender() */\n      jump\t// in\n    tag_101:\n        /* \"contract-8f3861590a.sol\":6040:6066  _msgSender() == deal.buyer */\n      0xffffffffffffffffffffffffffffffffffffffff\n      and\n      eq\n        /* \"contract-8f3861590a.sol\":6009:6066  _msgSender() == deal.seller || _msgSender() == deal.buyer */\n    tag_100:\n        /* \"contract-8f3861590a.sol\":5988:6125  require(... */\n      tag_102\n      jumpi\n      mload(0x40)\n      0x08c379a000000000000000000000000000000000000000000000000000000000\n      dup2\n      mstore\n      0x04\n      add\n      tag_103\n      swap1\n      tag_104\n      jump\t// in\n    tag_103:\n      mload(0x40)\n      dup1\n      swap2\n      sub\n      swap1\n      revert\n    tag_102:\n        /* \"contract-8f3861590a.sol\":6136:6162  _finalizeEscrow(_escrowId) */\n      tag_105\n        /* \"contract-8f3861590a.sol\":6152:6161  _escrowId */\n      dup3\n        /* \"contract-8f3861590a.sol\":6136:6151  _finalizeEscrow */\n      tag_106\n        /* \"contract-8f3861590a.sol\":6136:6162  _finalizeEscrow(_escrowId) */\n      jump\t// in\n    tag_105:\n        /* \"contract-8f3861590a.sol\":5616:6169  {... */\n      pop\n        /* \"@openzeppelin/contracts/security/ReentrancyGuard.sol\":2303:2323  _nonReentrantAfter() */\n      tag_107\n        /* \"@openzeppelin/contracts/security/ReentrancyGuard.sol\":2303:2321  _nonReentrantAfter */\n      tag_85\n        /* \"@openzeppelin/contracts/security/ReentrancyGuard.sol\":2303:2323  _nonReentrantAfter() */\n      jump\t// in\n    tag_107:\n        /* \"contract-8f3861590a.sol\":5551:6169  function finalizeEscrow(uint256 _escrowId) external nonReentrant {... */\n      pop\n      jump\t// out\n        /* \"contract-8f3861590a.sol\":8235:8478  function onERC1155BatchReceived(... */\n    tag_38:\n        /* \"contract-8f3861590a.sol\":8410:8416  bytes4 */\n      0x00\n        /* \"contract-8f3861590a.sol\":8435:8471  this.onERC1155BatchReceived.selector */\n      shl(0xe0, 0xbc197c81)\n        /* \"contract-8f3861590a.sol\":8428:8471  return this.onERC1155BatchReceived.selector */\n      swap1\n      pop\n        /* \"contract-8f3861590a.sol\":8235:8478  function onERC1155BatchReceived(... */\n      swap9\n      swap8\n      pop\n      pop\n      pop\n      pop\n      pop\n      pop\n      pop\n      pop\n      jump\t// out\n        /* \"contract-8f3861590a.sol\":3528:4061  function fundEscrow(uint256 _escrowId) external payable nonReentrant {... */\n    tag_43:\n        /* \"@openzeppelin/contracts/security/ReentrancyGuard.sol\":2261:2282  _nonReentrantBefore() */\n      tag_110\n        /* \"@openzeppelin/contracts/security/ReentrancyGuard.sol\":2261:2280  _nonReentrantBefore */\n      tag_60\n        /* \"@openzeppelin/contracts/security/ReentrancyGuard.sol\":2261:2282  _nonReentrantBefore() */\n      jump\t// in\n    tag_110:\n        /* \"contract-8f3861590a.sol\":3607:3630  EscrowDeal storage deal */\n      0x00\n        /* \"contract-8f3861590a.sol\":3633:3640  escrows */\n      0x01\n        /* \"contract-8f3861590a.sol\":3633:3651  escrows[_escrowId] */\n      0x00\n        /* \"contract-8f3861590a.sol\":3641:3650  _escrowId */\n      dup4\n        /* \"contract-8f3861590a.sol\":3633:3651  escrows[_escrowId] */\n      dup2\n      mstore\n      0x20\n      add\n      swap1\n      dup2\n      mstore\n      0x20\n      add\n      0x00\n      keccak256\n        /* \"contract-8f3861590a.sol\":3607:3651  EscrowDeal storage deal = escrows[_escrowId] */\n      swap1\n      pop\n        /* \"contract-8f3861590a.sol\":3669:3673  deal */\n      dup1\n        /* \"contract-8f3861590a.sol\":3669:3682  deal.isActive */\n      0x06\n      add\n      0x00\n      swap1\n      sload\n      swap1\n      0x0100\n      exp\n      swap1\n      div\n      0xff\n      and\n        /* \"contract-8f3861590a.sol\":3661:3704  require(deal.isActive, \"Escrow not active\") */\n      tag_112\n      jumpi\n      mload(0x40)\n      0x08c379a000000000000000000000000000000000000000000000000000000000\n      dup2\n      mstore\n      0x04\n      add\n      tag_113\n      swap1\n      tag_91\n      jump\t// in\n    tag_113:\n      mload(0x40)\n      dup1\n      swap2\n      sub\n      swap1\n      revert\n    tag_112:\n        /* \"contract-8f3861590a.sol\":3723:3741  _isCompleted(deal) */\n      tag_114\n        /* \"contract-8f3861590a.sol\":3736:3740  deal */\n      dup2\n        /* \"contract-8f3861590a.sol\":3723:3741  _isCompleted(deal) */\n      mload(0x40)\n      dup1\n      0x0140\n      add\n      0x40\n      mstore\n      swap1\n      dup2\n      0x00\n      dup3\n      add\n      0x00\n      swap1\n      sload\n      swap1\n      0x0100\n      exp\n      swap1\n      div\n      0xffffffffffffffffffffffffffffffffffffffff\n      and\n      0xffffffffffffffffffffffffffffffffffffffff\n      and\n      0xffffffffffffffffffffffffffffffffffffffff\n      and\n      dup2\n      mstore\n      0x20\n      add\n      0x01\n      dup3\n      add\n      0x00\n      swap1\n      sload\n      swap1\n      0x0100\n      exp\n      swap1\n      div\n      0xffffffffffffffffffffffffffffffffffffffff\n      and\n      0xffffffffffffffffffffffffffffffffffffffff\n      and\n      0xffffffffffffffffffffffffffffffffffffffff\n      and\n      dup2\n      mstore\n      0x20\n      add\n      0x02\n      dup3\n      add\n      0x00\n      swap1\n      sload\n      swap1\n      0x0100\n      exp\n      swap1\n      div\n      0xffffffffffffffffffffffffffffffffffffffff\n      and\n      0xffffffffffffffffffffffffffffffffffffffff\n      and\n      0xffffffffffffffffffffffffffffffffffffffff\n      and\n      dup2\n      mstore\n      0x20\n      add\n      0x03\n      dup3\n      add\n      sload\n      dup2\n      mstore\n      0x20\n      add\n      0x04\n      dup3\n      add\n      sload\n      dup2\n      mstore\n      0x20\n      add\n      0x05\n      dup3\n      add\n      sload\n      dup2\n      mstore\n      0x20\n      add\n      0x06\n      dup3\n      add\n      0x00\n      swap1\n      sload\n      swap1\n      0x0100\n      exp\n      swap1\n      div\n      0xff\n      and\n      iszero\n      iszero\n      iszero\n      iszero\n      dup2\n      mstore\n      0x20\n      add\n      0x06\n      dup3\n      add\n      0x01\n      swap1\n      sload\n      swap1\n      0x0100\n      exp\n      swap1\n      div\n      0xff\n      and\n      iszero\n      iszero\n      iszero\n      iszero\n      dup2\n      mstore\n      0x20\n      add\n      0x06\n      dup3\n      add\n      0x02\n      swap1\n      sload\n      swap1\n      0x0100\n      exp\n      swap1\n      div\n      0xff\n      and\n      iszero\n      iszero\n      iszero\n      iszero\n      dup2\n      mstore\n      0x20\n      add\n      0x06\n      dup3\n      add\n      0x03\n      swap1\n      sload\n      swap1\n      0x0100\n      exp\n      swap1\n      div\n      0xff\n      and\n      iszero\n      iszero\n      iszero\n      iszero\n      dup2\n      mstore\n      pop\n      pop\n        /* \"contract-8f3861590a.sol\":3723:3735  _isCompleted */\n      tag_115\n        /* \"contract-8f3861590a.sol\":3723:3741  _isCompleted(deal) */\n      jump\t// in\n    tag_114:\n        /* \"contract-8f3861590a.sol\":3722:3741  !_isCompleted(deal) */\n      iszero\n        /* \"contract-8f3861590a.sol\":3714:3770  require(!_isCompleted(deal), \"Escrow already completed\") */\n      tag_116\n      jumpi\n      mload(0x40)\n      0x08c379a000000000000000000000000000000000000000000000000000000000\n      dup2\n      mstore\n      0x04\n      add\n      tag_117\n      swap1\n      tag_118\n      jump\t// in\n    tag_117:\n      mload(0x40)\n      dup1\n      swap2\n      sub\n      swap1\n      revert\n    tag_116:\n        /* \"contract-8f3861590a.sol\":3804:3808  deal */\n      dup1\n        /* \"contract-8f3861590a.sol\":3804:3814  deal.buyer */\n      0x01\n      add\n      0x00\n      swap1\n      sload\n      swap1\n      0x0100\n      exp\n      swap1\n      div\n      0xffffffffffffffffffffffffffffffffffffffff\n      and\n        /* \"contract-8f3861590a.sol\":3788:3814  _msgSender() == deal.buyer */\n      0xffffffffffffffffffffffffffffffffffffffff\n      and\n        /* \"contract-8f3861590a.sol\":3788:3800  _msgSender() */\n      tag_119\n        /* \"contract-8f3861590a.sol\":3788:3798  _msgSender */\n      tag_74\n        /* \"contract-8f3861590a.sol\":3788:3800  _msgSender() */\n      jump\t// in\n    tag_119:\n        /* \"contract-8f3861590a.sol\":3788:3814  _msgSender() == deal.buyer */\n      0xffffffffffffffffffffffffffffffffffffffff\n      and\n      eq\n        /* \"contract-8f3861590a.sol\":3780:3845  require(_msgSender() == deal.buyer, \"Only buyer can fund escrow\") */\n      tag_120\n      jumpi\n      mload(0x40)\n      0x08c379a000000000000000000000000000000000000000000000000000000000\n      dup2\n      mstore\n      0x04\n      add\n      tag_121\n      swap1\n      tag_122\n      jump\t// in\n    tag_121:\n      mload(0x40)\n      dup1\n      swap2\n      sub\n      swap1\n      revert\n    tag_120:\n        /* \"contract-8f3861590a.sol\":3864:3868  deal */\n      dup1\n        /* \"contract-8f3861590a.sol\":3864:3877  deal.isFunded */\n      0x06\n      add\n      0x01\n      swap1\n      sload\n      swap1\n      0x0100\n      exp\n      swap1\n      div\n      0xff\n      and\n        /* \"contract-8f3861590a.sol\":3863:3877  !deal.isFunded */\n      iszero\n        /* \"contract-8f3861590a.sol\":3855:3896  require(!deal.isFunded, \"Already funded\") */\n      tag_123\n      jumpi\n      mload(0x40)\n      0x08c379a000000000000000000000000000000000000000000000000000000000\n      dup2\n      mstore\n      0x04\n      add\n      tag_124\n      swap1\n      tag_125\n      jump\t// in\n    tag_124:\n      mload(0x40)\n      dup1\n      swap2\n      sub\n      swap1\n      revert\n    tag_123:\n        /* \"contract-8f3861590a.sol\":3927:3931  deal */\n      dup1\n        /* \"contract-8f3861590a.sol\":3927:3937  deal.price */\n      0x05\n      add\n      sload\n        /* \"contract-8f3861590a.sol\":3914:3923  msg.value */\n      callvalue\n        /* \"contract-8f3861590a.sol\":3914:3937  msg.value == deal.price */\n      eq\n        /* \"contract-8f3861590a.sol\":3906:3960  require(msg.value == deal.price, \"Invalid ETH amount\") */\n      tag_126\n      jumpi\n      mload(0x40)\n      0x08c379a000000000000000000000000000000000000000000000000000000000\n      dup2\n      mstore\n      0x04\n      add\n      tag_127\n      swap1\n      tag_128\n      jump\t// in\n    tag_127:\n      mload(0x40)\n      dup1\n      swap2\n      sub\n      swap1\n      revert\n    tag_126:\n        /* \"contract-8f3861590a.sol\":3987:3991  true */\n      0x01\n        /* \"contract-8f3861590a.sol\":3971:3975  deal */\n      dup2\n        /* \"contract-8f3861590a.sol\":3971:3984  deal.isFunded */\n      0x06\n      add\n      0x01\n        /* \"contract-8f3861590a.sol\":3971:3991  deal.isFunded = true */\n      0x0100\n      exp\n      dup2\n      sload\n      dup2\n      0xff\n      mul\n      not\n      and\n      swap1\n      dup4\n      iszero\n      iszero\n      mul\n      or\n      swap1\n      sstore\n      pop\n        /* \"contract-8f3861590a.sol\":4030:4042  _msgSender() */\n      tag_129\n        /* \"contract-8f3861590a.sol\":4030:4040  _msgSender */\n      tag_74\n        /* \"contract-8f3861590a.sol\":4030:4042  _msgSender() */\n      jump\t// in\n    tag_129:\n        /* \"contract-8f3861590a.sol\":4006:4054  EscrowFunded(_escrowId, _msgSender(), msg.value) */\n      0xffffffffffffffffffffffffffffffffffffffff\n      and\n        /* \"contract-8f3861590a.sol\":4019:4028  _escrowId */\n      dup3\n        /* \"contract-8f3861590a.sol\":4006:4054  EscrowFunded(_escrowId, _msgSender(), msg.value) */\n      0x4a2cd88ec7a748d5b20b3512d7249c67745777b219009075c745923684e9653d\n        /* \"contract-8f3861590a.sol\":4044:4053  msg.value */\n      callvalue\n        /* \"contract-8f3861590a.sol\":4006:4054  EscrowFunded(_escrowId, _msgSender(), msg.value) */\n      mload(0x40)\n      tag_130\n      swap2\n      swap1\n      tag_25\n      jump\t// in\n    tag_130:\n      mload(0x40)\n      dup1\n      swap2\n      sub\n      swap1\n      log3\n        /* \"contract-8f3861590a.sol\":3597:4061  {... */\n      pop\n        /* \"@openzeppelin/contracts/security/ReentrancyGuard.sol\":2303:2323  _nonReentrantAfter() */\n      tag_131\n        /* \"@openzeppelin/contracts/security/ReentrancyGuard.sol\":2303:2321  _nonReentrantAfter */\n      tag_85\n        /* \"@openzeppelin/contracts/security/ReentrancyGuard.sol\":2303:2323  _nonReentrantAfter() */\n      jump\t// in\n    tag_131:\n        /* \"contract-8f3861590a.sol\":3528:4061  function fundEscrow(uint256 _escrowId) external payable nonReentrant {... */\n      pop\n      jump\t// out\n        /* \"contract-8f3861590a.sol\":4322:5298  function confirmFinalize(uint256 _escrowId) external nonReentrant {... */\n    tag_47:\n        /* \"@openzeppelin/contracts/security/ReentrancyGuard.sol\":2261:2282  _nonReentrantBefore() */\n      tag_133\n        /* \"@openzeppelin/contracts/security/ReentrancyGuard.sol\":2261:2280  _nonReentrantBefore */\n      tag_60\n        /* \"@openzeppelin/contracts/security/ReentrancyGuard.sol\":2261:2282  _nonReentrantBefore() */\n      jump\t// in\n    tag_133:\n        /* \"contract-8f3861590a.sol\":4398:4421  EscrowDeal storage deal */\n      0x00\n        /* \"contract-8f3861590a.sol\":4424:4431  escrows */\n      0x01\n        /* \"contract-8f3861590a.sol\":4424:4442  escrows[_escrowId] */\n      0x00\n        /* \"contract-8f3861590a.sol\":4432:4441  _escrowId */\n      dup4\n        /* \"contract-8f3861590a.sol\":4424:4442  escrows[_escrowId] */\n      dup2\n      mstore\n      0x20\n      add\n      swap1\n      dup2\n      mstore\n      0x20\n      add\n      0x00\n      keccak256\n        /* \"contract-8f3861590a.sol\":4398:4442  EscrowDeal storage deal = escrows[_escrowId] */\n      swap1\n      pop\n        /* \"contract-8f3861590a.sol\":4460:4464  deal */\n      dup1\n        /* \"contract-8f3861590a.sol\":4460:4473  deal.isActive */\n      0x06\n      add\n      0x00\n      swap1\n      sload\n      swap1\n      0x0100\n      exp\n      swap1\n      div\n      0xff\n      and\n        /* \"contract-8f3861590a.sol\":4452:4495  require(deal.isActive, \"Escrow not active\") */\n      tag_135\n      jumpi\n      mload(0x40)\n      0x08c379a000000000000000000000000000000000000000000000000000000000\n      dup2\n      mstore\n      0x04\n      add\n      tag_136\n      swap1\n      tag_91\n      jump\t// in\n    tag_136:\n      mload(0x40)\n      dup1\n      swap2\n      sub\n      swap1\n      revert\n    tag_135:\n        /* \"contract-8f3861590a.sol\":4514:4532  _isCompleted(deal) */\n      tag_137\n        /* \"contract-8f3861590a.sol\":4527:4531  deal */\n      dup2\n        /* \"contract-8f3861590a.sol\":4514:4532  _isCompleted(deal) */\n      mload(0x40)\n      dup1\n      0x0140\n      add\n      0x40\n      mstore\n      swap1\n      dup2\n      0x00\n      dup3\n      add\n      0x00\n      swap1\n      sload\n      swap1\n      0x0100\n      exp\n      swap1\n      div\n      0xffffffffffffffffffffffffffffffffffffffff\n      and\n      0xffffffffffffffffffffffffffffffffffffffff\n      and\n      0xffffffffffffffffffffffffffffffffffffffff\n      and\n      dup2\n      mstore\n      0x20\n      add\n      0x01\n      dup3\n      add\n      0x00\n      swap1\n      sload\n      swap1\n      0x0100\n      exp\n      swap1\n      div\n      0xffffffffffffffffffffffffffffffffffffffff\n      and\n      0xffffffffffffffffffffffffffffffffffffffff\n      and\n      0xffffffffffffffffffffffffffffffffffffffff\n      and\n      dup2\n      mstore\n      0x20\n      add\n      0x02\n      dup3\n      add\n      0x00\n      swap1\n      sload\n      swap1\n      0x0100\n      exp\n      swap1\n      div\n      0xffffffffffffffffffffffffffffffffffffffff\n      and\n      0xffffffffffffffffffffffffffffffffffffffff\n      and\n      0xffffffffffffffffffffffffffffffffffffffff\n      and\n      dup2\n      mstore\n      0x20\n      add\n      0x03\n      dup3\n      add\n      sload\n      dup2\n      mstore\n      0x20\n      add\n      0x04\n      dup3\n      add\n      sload\n      dup2\n      mstore\n      0x20\n      add\n      0x05\n      dup3\n      add\n      sload\n      dup2\n      mstore\n      0x20\n      add\n      0x06\n      dup3\n      add\n      0x00\n      swap1\n      sload\n      swap1\n      0x0100\n      exp\n      swap1\n      div\n      0xff\n      and\n      iszero\n      iszero\n      iszero\n      iszero\n      dup2\n      mstore\n      0x20\n      add\n      0x06\n      dup3\n      add\n      0x01\n      swap1\n      sload\n      swap1\n      0x0100\n      exp\n      swap1\n      div\n      0xff\n      and\n      iszero\n      iszero\n      iszero\n      iszero\n      dup2\n      mstore\n      0x20\n      add\n      0x06\n      dup3\n      add\n      0x02\n      swap1\n      sload\n      swap1\n      0x0100\n      exp\n      swap1\n      div\n      0xff\n      and\n      iszero\n      iszero\n      iszero\n      iszero\n      dup2\n      mstore\n      0x20\n      add\n      0x06\n      dup3\n      add\n      0x03\n      swap1\n      sload\n      swap1\n      0x0100\n      exp\n      swap1\n      div\n      0xff\n      and\n      iszero\n      iszero\n      iszero\n      iszero\n      dup2\n      mstore\n      pop\n      pop\n        /* \"contract-8f3861590a.sol\":4514:4526  _isCompleted */\n      tag_115\n        /* \"contract-8f3861590a.sol\":4514:4532  _isCompleted(deal) */\n      jump\t// in\n    tag_137:\n        /* \"contract-8f3861590a.sol\":4513:4532  !_isCompleted(deal) */\n      iszero\n        /* \"contract-8f3861590a.sol\":4505:4561  require(!_isCompleted(deal), \"Escrow already completed\") */\n      tag_138\n      jumpi\n      mload(0x40)\n      0x08c379a000000000000000000000000000000000000000000000000000000000\n      dup2\n      mstore\n      0x04\n      add\n      tag_139\n      swap1\n      tag_118\n      jump\t// in\n    tag_139:\n      mload(0x40)\n      dup1\n      swap2\n      sub\n      swap1\n      revert\n    tag_138:\n        /* \"contract-8f3861590a.sol\":4640:4644  deal */\n      dup1\n        /* \"contract-8f3861590a.sol\":4640:4651  deal.seller */\n      0x00\n      add\n      0x00\n      swap1\n      sload\n      swap1\n      0x0100\n      exp\n      swap1\n      div\n      0xffffffffffffffffffffffffffffffffffffffff\n      and\n        /* \"contract-8f3861590a.sol\":4624:4651  _msgSender() == deal.seller */\n      0xffffffffffffffffffffffffffffffffffffffff\n      and\n        /* \"contract-8f3861590a.sol\":4624:4636  _msgSender() */\n      tag_140\n        /* \"contract-8f3861590a.sol\":4624:4634  _msgSender */\n      tag_74\n        /* \"contract-8f3861590a.sol\":4624:4636  _msgSender() */\n      jump\t// in\n    tag_140:\n        /* \"contract-8f3861590a.sol\":4624:4651  _msgSender() == deal.seller */\n      0xffffffffffffffffffffffffffffffffffffffff\n      and\n      sub\n        /* \"contract-8f3861590a.sol\":4620:5009  if (_msgSender() == deal.seller) {... */\n      tag_141\n      jumpi\n        /* \"contract-8f3861590a.sol\":4676:4680  deal */\n      dup1\n        /* \"contract-8f3861590a.sol\":4676:4696  deal.sellerConfirmed */\n      0x06\n      add\n      0x02\n      swap1\n      sload\n      swap1\n      0x0100\n      exp\n      swap1\n      div\n      0xff\n      and\n        /* \"contract-8f3861590a.sol\":4675:4696  !deal.sellerConfirmed */\n      iszero\n        /* \"contract-8f3861590a.sol\":4667:4725  require(!deal.sellerConfirmed, \"Seller already confirmed\") */\n      tag_142\n      jumpi\n      mload(0x40)\n      0x08c379a000000000000000000000000000000000000000000000000000000000\n      dup2\n      mstore\n      0x04\n      add\n      tag_143\n      swap1\n      tag_144\n      jump\t// in\n    tag_143:\n      mload(0x40)\n      dup1\n      swap2\n      sub\n      swap1\n      revert\n    tag_142:\n        /* \"contract-8f3861590a.sol\":4762:4766  true */\n      0x01\n        /* \"contract-8f3861590a.sol\":4739:4743  deal */\n      dup2\n        /* \"contract-8f3861590a.sol\":4739:4759  deal.sellerConfirmed */\n      0x06\n      add\n      0x02\n        /* \"contract-8f3861590a.sol\":4739:4766  deal.sellerConfirmed = true */\n      0x0100\n      exp\n      dup2\n      sload\n      dup2\n      0xff\n      mul\n      not\n      and\n      swap1\n      dup4\n      iszero\n      iszero\n      mul\n      or\n      swap1\n      sstore\n      pop\n        /* \"contract-8f3861590a.sol\":4620:5009  if (_msgSender() == deal.seller) {... */\n      jump(tag_145)\n    tag_141:\n        /* \"contract-8f3861590a.sol\":4803:4807  deal */\n      dup1\n        /* \"contract-8f3861590a.sol\":4803:4813  deal.buyer */\n      0x01\n      add\n      0x00\n      swap1\n      sload\n      swap1\n      0x0100\n      exp\n      swap1\n      div\n      0xffffffffffffffffffffffffffffffffffffffff\n      and\n        /* \"contract-8f3861590a.sol\":4787:4813  _msgSender() == deal.buyer */\n      0xffffffffffffffffffffffffffffffffffffffff\n      and\n        /* \"contract-8f3861590a.sol\":4787:4799  _msgSender() */\n      tag_146\n        /* \"contract-8f3861590a.sol\":4787:4797  _msgSender */\n      tag_74\n        /* \"contract-8f3861590a.sol\":4787:4799  _msgSender() */\n      jump\t// in\n    tag_146:\n        /* \"contract-8f3861590a.sol\":4787:4813  _msgSender() == deal.buyer */\n      0xffffffffffffffffffffffffffffffffffffffff\n      and\n      sub\n        /* \"contract-8f3861590a.sol\":4783:5009  if (_msgSender() == deal.buyer) {... */\n      tag_147\n      jumpi\n        /* \"contract-8f3861590a.sol\":4838:4842  deal */\n      dup1\n        /* \"contract-8f3861590a.sol\":4838:4857  deal.buyerConfirmed */\n      0x06\n      add\n      0x03\n      swap1\n      sload\n      swap1\n      0x0100\n      exp\n      swap1\n      div\n      0xff\n      and\n        /* \"contract-8f3861590a.sol\":4837:4857  !deal.buyerConfirmed */\n      iszero\n        /* \"contract-8f3861590a.sol\":4829:4885  require(!deal.buyerConfirmed, \"Buyer already confirmed\") */\n      tag_148\n      jumpi\n      mload(0x40)\n      0x08c379a000000000000000000000000000000000000000000000000000000000\n      dup2\n      mstore\n      0x04\n      add\n      tag_149\n      swap1\n      tag_150\n      jump\t// in\n    tag_149:\n      mload(0x40)\n      dup1\n      swap2\n      sub\n      swap1\n      revert\n    tag_148:\n        /* \"contract-8f3861590a.sol\":4921:4925  true */\n      0x01\n        /* \"contract-8f3861590a.sol\":4899:4903  deal */\n      dup2\n        /* \"contract-8f3861590a.sol\":4899:4918  deal.buyerConfirmed */\n      0x06\n      add\n      0x03\n        /* \"contract-8f3861590a.sol\":4899:4925  deal.buyerConfirmed = true */\n      0x0100\n      exp\n      dup2\n      sload\n      dup2\n      0xff\n      mul\n      not\n      and\n      swap1\n      dup4\n      iszero\n      iszero\n      mul\n      or\n      swap1\n      sstore\n      pop\n        /* \"contract-8f3861590a.sol\":4783:5009  if (_msgSender() == deal.buyer) {... */\n      jump(tag_151)\n    tag_147:\n        /* \"contract-8f3861590a.sol\":4956:4998  revert(\"Only seller or buyer can confirm\") */\n      mload(0x40)\n      0x08c379a000000000000000000000000000000000000000000000000000000000\n      dup2\n      mstore\n      0x04\n      add\n      tag_152\n      swap1\n      tag_153\n      jump\t// in\n    tag_152:\n      mload(0x40)\n      dup1\n      swap2\n      sub\n      swap1\n      revert\n        /* \"contract-8f3861590a.sol\":4783:5009  if (_msgSender() == deal.buyer) {... */\n    tag_151:\n        /* \"contract-8f3861590a.sol\":4620:5009  if (_msgSender() == deal.seller) {... */\n    tag_145:\n        /* \"contract-8f3861590a.sol\":5051:5063  _msgSender() */\n      tag_154\n        /* \"contract-8f3861590a.sol\":5051:5061  _msgSender */\n      tag_74\n        /* \"contract-8f3861590a.sol\":5051:5063  _msgSender() */\n      jump\t// in\n    tag_154:\n        /* \"contract-8f3861590a.sol\":5024:5064  EscrowConfirmed(_escrowId, _msgSender()) */\n      0xffffffffffffffffffffffffffffffffffffffff\n      and\n        /* \"contract-8f3861590a.sol\":5040:5049  _escrowId */\n      dup3\n        /* \"contract-8f3861590a.sol\":5024:5064  EscrowConfirmed(_escrowId, _msgSender()) */\n      0x38880d6051ef87694725e7a2c78b22f85c1be92c2129518d916aa0b500c25285\n      mload(0x40)\n      mload(0x40)\n      dup1\n      swap2\n      sub\n      swap1\n      log3\n        /* \"contract-8f3861590a.sol\":5179:5183  deal */\n      dup1\n        /* \"contract-8f3861590a.sol\":5179:5199  deal.sellerConfirmed */\n      0x06\n      add\n      0x02\n      swap1\n      sload\n      swap1\n      0x0100\n      exp\n      swap1\n      div\n      0xff\n      and\n        /* \"contract-8f3861590a.sol\":5179:5222  deal.sellerConfirmed && deal.buyerConfirmed */\n      dup1\n      iszero\n      tag_155\n      jumpi\n      pop\n        /* \"contract-8f3861590a.sol\":5203:5207  deal */\n      dup1\n        /* \"contract-8f3861590a.sol\":5203:5222  deal.buyerConfirmed */\n      0x06\n      add\n      0x03\n      swap1\n      sload\n      swap1\n      0x0100\n      exp\n      swap1\n      div\n      0xff\n      and\n        /* \"contract-8f3861590a.sol\":5179:5222  deal.sellerConfirmed && deal.buyerConfirmed */\n    tag_155:\n        /* \"contract-8f3861590a.sol\":5179:5239  deal.sellerConfirmed && deal.buyerConfirmed && deal.isFunded */\n      dup1\n      iszero\n      tag_156\n      jumpi\n      pop\n        /* \"contract-8f3861590a.sol\":5226:5230  deal */\n      dup1\n        /* \"contract-8f3861590a.sol\":5226:5239  deal.isFunded */\n      0x06\n      add\n      0x01\n      swap1\n      sload\n      swap1\n      0x0100\n      exp\n      swap1\n      div\n      0xff\n      and\n        /* \"contract-8f3861590a.sol\":5179:5239  deal.sellerConfirmed && deal.buyerConfirmed && deal.isFunded */\n    tag_156:\n        /* \"contract-8f3861590a.sol\":5175:5292  if (deal.sellerConfirmed && deal.buyerConfirmed && deal.isFunded) {... */\n      iszero\n      tag_157\n      jumpi\n        /* \"contract-8f3861590a.sol\":5255:5281  _finalizeEscrow(_escrowId) */\n      tag_158\n        /* \"contract-8f3861590a.sol\":5271:5280  _escrowId */\n      dup3\n        /* \"contract-8f3861590a.sol\":5255:5270  _finalizeEscrow */\n      tag_106\n        /* \"contract-8f3861590a.sol\":5255:5281  _finalizeEscrow(_escrowId) */\n      jump\t// in\n    tag_158:\n        /* \"contract-8f3861590a.sol\":5175:5292  if (deal.sellerConfirmed && deal.buyerConfirmed && deal.isFunded) {... */\n    tag_157:\n        /* \"contract-8f3861590a.sol\":4388:5298  {... */\n      pop\n        /* \"@openzeppelin/contracts/security/ReentrancyGuard.sol\":2303:2323  _nonReentrantAfter() */\n      tag_159\n        /* \"@openzeppelin/contracts/security/ReentrancyGuard.sol\":2303:2321  _nonReentrantAfter */\n      tag_85\n        /* \"@openzeppelin/contracts/security/ReentrancyGuard.sol\":2303:2323  _nonReentrantAfter() */\n      jump\t// in\n    tag_159:\n        /* \"contract-8f3861590a.sol\":4322:5298  function confirmFinalize(uint256 _escrowId) external nonReentrant {... */\n      pop\n      jump\t// out\n        /* \"contract-8f3861590a.sol\":7019:7974  function cancelEscrow(uint256 _escrowId) external nonReentrant {... */\n    tag_51:\n        /* \"@openzeppelin/contracts/security/ReentrancyGuard.sol\":2261:2282  _nonReentrantBefore() */\n      tag_161\n        /* \"@openzeppelin/contracts/security/ReentrancyGuard.sol\":2261:2280  _nonReentrantBefore */\n      tag_60\n        /* \"@openzeppelin/contracts/security/ReentrancyGuard.sol\":2261:2282  _nonReentrantBefore() */\n      jump\t// in\n    tag_161:\n        /* \"contract-8f3861590a.sol\":7092:7115  EscrowDeal storage deal */\n      0x00\n        /* \"contract-8f3861590a.sol\":7118:7125  escrows */\n      0x01\n        /* \"contract-8f3861590a.sol\":7118:7136  escrows[_escrowId] */\n      0x00\n        /* \"contract-8f3861590a.sol\":7126:7135  _escrowId */\n      dup4\n        /* \"contract-8f3861590a.sol\":7118:7136  escrows[_escrowId] */\n      dup2\n      mstore\n      0x20\n      add\n      swap1\n      dup2\n      mstore\n      0x20\n      add\n      0x00\n      keccak256\n        /* \"contract-8f3861590a.sol\":7092:7136  EscrowDeal storage deal = escrows[_escrowId] */\n      swap1\n      pop\n        /* \"contract-8f3861590a.sol\":7154:7158  deal */\n      dup1\n        /* \"contract-8f3861590a.sol\":7154:7167  deal.isActive */\n      0x06\n      add\n      0x00\n      swap1\n      sload\n      swap1\n      0x0100\n      exp\n      swap1\n      div\n      0xff\n      and\n        /* \"contract-8f3861590a.sol\":7146:7189  require(deal.isActive, \"Escrow not active\") */\n      tag_163\n      jumpi\n      mload(0x40)\n      0x08c379a000000000000000000000000000000000000000000000000000000000\n      dup2\n      mstore\n      0x04\n      add\n      tag_164\n      swap1\n      tag_91\n      jump\t// in\n    tag_164:\n      mload(0x40)\n      dup1\n      swap2\n      sub\n      swap1\n      revert\n    tag_163:\n        /* \"contract-8f3861590a.sol\":7291:7295  deal */\n      dup1\n        /* \"contract-8f3861590a.sol\":7291:7302  deal.seller */\n      0x00\n      add\n      0x00\n      swap1\n      sload\n      swap1\n      0x0100\n      exp\n      swap1\n      div\n      0xffffffffffffffffffffffffffffffffffffffff\n      and\n        /* \"contract-8f3861590a.sol\":7275:7302  _msgSender() == deal.seller */\n      0xffffffffffffffffffffffffffffffffffffffff\n      and\n        /* \"contract-8f3861590a.sol\":7275:7287  _msgSender() */\n      tag_165\n        /* \"contract-8f3861590a.sol\":7275:7285  _msgSender */\n      tag_74\n        /* \"contract-8f3861590a.sol\":7275:7287  _msgSender() */\n      jump\t// in\n    tag_165:\n        /* \"contract-8f3861590a.sol\":7275:7302  _msgSender() == deal.seller */\n      0xffffffffffffffffffffffffffffffffffffffff\n      and\n      eq\n        /* \"contract-8f3861590a.sol\":7275:7332  _msgSender() == deal.seller || _msgSender() == deal.buyer */\n      dup1\n      tag_166\n      jumpi\n      pop\n        /* \"contract-8f3861590a.sol\":7322:7326  deal */\n      dup1\n        /* \"contract-8f3861590a.sol\":7322:7332  deal.buyer */\n      0x01\n      add\n      0x00\n      swap1\n      sload\n      swap1\n      0x0100\n      exp\n      swap1\n      div\n      0xffffffffffffffffffffffffffffffffffffffff\n      and\n        /* \"contract-8f3861590a.sol\":7306:7332  _msgSender() == deal.buyer */\n      0xffffffffffffffffffffffffffffffffffffffff\n      and\n        /* \"contract-8f3861590a.sol\":7306:7318  _msgSender() */\n      tag_167\n        /* \"contract-8f3861590a.sol\":7306:7316  _msgSender */\n      tag_74\n        /* \"contract-8f3861590a.sol\":7306:7318  _msgSender() */\n      jump\t// in\n    tag_167:\n        /* \"contract-8f3861590a.sol\":7306:7332  _msgSender() == deal.buyer */\n      0xffffffffffffffffffffffffffffffffffffffff\n      and\n      eq\n        /* \"contract-8f3861590a.sol\":7275:7332  _msgSender() == deal.seller || _msgSender() == deal.buyer */\n    tag_166:\n        /* \"contract-8f3861590a.sol\":7254:7389  require(... */\n      tag_168\n      jumpi\n      mload(0x40)\n      0x08c379a000000000000000000000000000000000000000000000000000000000\n      dup2\n      mstore\n      0x04\n      add\n      tag_169\n      swap1\n      tag_170\n      jump\t// in\n    tag_169:\n      mload(0x40)\n      dup1\n      swap2\n      sub\n      swap1\n      revert\n    tag_168:\n        /* \"contract-8f3861590a.sol\":7487:7491  deal */\n      dup1\n        /* \"contract-8f3861590a.sol\":7487:7500  deal.isFunded */\n      0x06\n      add\n      0x01\n      swap1\n      sload\n      swap1\n      0x0100\n      exp\n      swap1\n      div\n      0xff\n      and\n        /* \"contract-8f3861590a.sol\":7483:7661  if (deal.isFunded) {... */\n      iszero\n      tag_171\n      jumpi\n        /* \"contract-8f3861590a.sol\":7517:7535  bool refundSuccess */\n      0x00\n        /* \"contract-8f3861590a.sol\":7549:7553  deal */\n      dup2\n        /* \"contract-8f3861590a.sol\":7549:7559  deal.buyer */\n      0x01\n      add\n      0x00\n      swap1\n      sload\n      swap1\n      0x0100\n      exp\n      swap1\n      div\n      0xffffffffffffffffffffffffffffffffffffffff\n      and\n        /* \"contract-8f3861590a.sol\":7541:7565  payable(deal.buyer).call */\n      0xffffffffffffffffffffffffffffffffffffffff\n      and\n        /* \"contract-8f3861590a.sol\":7573:7577  deal */\n      dup3\n        /* \"contract-8f3861590a.sol\":7573:7583  deal.price */\n      0x05\n      add\n      sload\n        /* \"contract-8f3861590a.sol\":7541:7588  payable(deal.buyer).call{value: deal.price}(\"\") */\n      mload(0x40)\n      tag_172\n      swap1\n      tag_173\n      jump\t// in\n    tag_172:\n      0x00\n      mload(0x40)\n      dup1\n      dup4\n      sub\n      dup2\n      dup6\n      dup8\n      gas\n      call\n      swap3\n      pop\n      pop\n      pop\n      returndatasize\n      dup1\n      0x00\n      dup2\n      eq\n      tag_176\n      jumpi\n      mload(0x40)\n      swap2\n      pop\n      and(add(returndatasize, 0x3f), not(0x1f))\n      dup3\n      add\n      0x40\n      mstore\n      returndatasize\n      dup3\n      mstore\n      returndatasize\n      0x00\n      0x20\n      dup5\n      add\n      returndatacopy\n      jump(tag_175)\n    tag_176:\n      0x60\n      swap2\n      pop\n    tag_175:\n      pop\n        /* \"contract-8f3861590a.sol\":7516:7588  (bool refundSuccess, ) = payable(deal.buyer).call{value: deal.price}(\"\") */\n      pop\n      swap1\n      pop\n        /* \"contract-8f3861590a.sol\":7610:7623  refundSuccess */\n      dup1\n        /* \"contract-8f3861590a.sol\":7602:7650  require(refundSuccess, \"Refund to buyer failed\") */\n      tag_177\n      jumpi\n      mload(0x40)\n      0x08c379a000000000000000000000000000000000000000000000000000000000\n      dup2\n      mstore\n      0x04\n      add\n      tag_178\n      swap1\n      tag_179\n      jump\t// in\n    tag_178:\n      mload(0x40)\n      dup1\n      swap2\n      sub\n      swap1\n      revert\n    tag_177:\n        /* \"contract-8f3861590a.sol\":7502:7661  {... */\n      pop\n        /* \"contract-8f3861590a.sol\":7483:7661  if (deal.isFunded) {... */\n    tag_171:\n        /* \"contract-8f3861590a.sol\":7733:7737  deal */\n      dup1\n        /* \"contract-8f3861590a.sol\":7733:7748  deal.nftAddress */\n      0x02\n      add\n      0x00\n      swap1\n      sload\n      swap1\n      0x0100\n      exp\n      swap1\n      div\n      0xffffffffffffffffffffffffffffffffffffffff\n      and\n        /* \"contract-8f3861590a.sol\":7724:7766  IERC1155(deal.nftAddress).safeTransferFrom */\n      0xffffffffffffffffffffffffffffffffffffffff\n      and\n      0xf242432a\n        /* \"contract-8f3861590a.sol\":7788:7792  this */\n      address\n        /* \"contract-8f3861590a.sol\":7807:7811  deal */\n      dup4\n        /* \"contract-8f3861590a.sol\":7807:7818  deal.seller */\n      0x00\n      add\n      0x00\n      swap1\n      sload\n      swap1\n      0x0100\n      exp\n      swap1\n      div\n      0xffffffffffffffffffffffffffffffffffffffff\n      and\n        /* \"contract-8f3861590a.sol\":7832:7836  deal */\n      dup5\n        /* \"contract-8f3861590a.sol\":7832:7844  deal.tokenId */\n      0x03\n      add\n      sload\n        /* \"contract-8f3861590a.sol\":7858:7862  deal */\n      dup6\n        /* \"contract-8f3861590a.sol\":7858:7869  deal.amount */\n      0x04\n      add\n      sload\n        /* \"contract-8f3861590a.sol\":7724:7895  IERC1155(deal.nftAddress).safeTransferFrom(... */\n      mload(0x40)\n      dup6\n      0xffffffff\n      and\n      0xe0\n      shl\n      dup2\n      mstore\n      0x04\n      add\n      tag_180\n      swap5\n      swap4\n      swap3\n      swap2\n      swap1\n      tag_77\n      jump\t// in\n    tag_180:\n      0x00\n      mload(0x40)\n      dup1\n      dup4\n      sub\n      dup2\n      0x00\n      dup8\n      dup1\n      extcodesize\n      iszero\n      dup1\n      iszero\n      tag_181\n      jumpi\n      0x00\n      dup1\n      revert\n    tag_181:\n      pop\n      gas\n      call\n      iszero\n      dup1\n      iszero\n      tag_183\n      jumpi\n      returndatasize\n      0x00\n      dup1\n      returndatacopy\n      revert(0x00, returndatasize)\n    tag_183:\n      pop\n      pop\n      pop\n      pop\n        /* \"contract-8f3861590a.sol\":7922:7927  false */\n      0x00\n        /* \"contract-8f3861590a.sol\":7906:7910  deal */\n      dup2\n        /* \"contract-8f3861590a.sol\":7906:7919  deal.isActive */\n      0x06\n      add\n      0x00\n        /* \"contract-8f3861590a.sol\":7906:7927  deal.isActive = false */\n      0x0100\n      exp\n      dup2\n      sload\n      dup2\n      0xff\n      mul\n      not\n      and\n      swap1\n      dup4\n      iszero\n      iszero\n      mul\n      or\n      swap1\n      sstore\n      pop\n        /* \"contract-8f3861590a.sol\":7957:7966  _escrowId */\n      dup2\n        /* \"contract-8f3861590a.sol\":7942:7967  EscrowCanceled(_escrowId) */\n      0x882d50a73439f21d3f5f423c7b7ce880994a9efb581bce004b7c8739bf03e8ed\n      mload(0x40)\n      mload(0x40)\n      dup1\n      swap2\n      sub\n      swap1\n      log2\n        /* \"contract-8f3861590a.sol\":7082:7974  {... */\n      pop\n        /* \"@openzeppelin/contracts/security/ReentrancyGuard.sol\":2303:2323  _nonReentrantAfter() */\n      tag_184\n        /* \"@openzeppelin/contracts/security/ReentrancyGuard.sol\":2303:2321  _nonReentrantAfter */\n      tag_85\n        /* \"@openzeppelin/contracts/security/ReentrancyGuard.sol\":2303:2323  _nonReentrantAfter() */\n      jump\t// in\n    tag_184:\n        /* \"contract-8f3861590a.sol\":7019:7974  function cancelEscrow(uint256 _escrowId) external nonReentrant {... */\n      pop\n      jump\t// out\n        /* \"contract-8f3861590a.sol\":8018:8229  function onERC1155Received(... */\n    tag_56:\n        /* \"contract-8f3861590a.sol\":8166:8172  bytes4 */\n      0x00\n        /* \"contract-8f3861590a.sol\":8191:8222  this.onERC1155Received.selector */\n      shl(0xe0, 0xf23a6e61)\n        /* \"contract-8f3861590a.sol\":8184:8222  return this.onERC1155Received.selector */\n      swap1\n      pop\n        /* \"contract-8f3861590a.sol\":8018:8229  function onERC1155Received(... */\n      swap7\n      swap6\n      pop\n      pop\n      pop\n      pop\n      pop\n      pop\n      jump\t// out\n        /* \"@openzeppelin/contracts/security/ReentrancyGuard.sol\":2336:2623  function _nonReentrantBefore() private {... */\n    tag_60:\n        /* \"@openzeppelin/contracts/security/ReentrancyGuard.sol\":1759:1760  2 */\n      0x02\n        /* \"@openzeppelin/contracts/security/ReentrancyGuard.sol\":2468:2475  _status */\n      sload(0x00)\n        /* \"@openzeppelin/contracts/security/ReentrancyGuard.sol\":2468:2487  _status != _ENTERED */\n      sub\n        /* \"@openzeppelin/contracts/security/ReentrancyGuard.sol\":2460:2523  require(_status != _ENTERED, \"ReentrancyGuard: reentrant call\") */\n      tag_187\n      jumpi\n      mload(0x40)\n      0x08c379a000000000000000000000000000000000000000000000000000000000\n      dup2\n      mstore\n      0x04\n      add\n      tag_188\n      swap1\n      tag_189\n      jump\t// in\n    tag_188:\n      mload(0x40)\n      dup1\n      swap2\n      sub\n      swap1\n      revert\n    tag_187:\n        /* \"@openzeppelin/contracts/security/ReentrancyGuard.sol\":1759:1760  2 */\n      0x02\n        /* \"@openzeppelin/contracts/security/ReentrancyGuard.sol\":2598:2605  _status */\n      0x00\n        /* \"@openzeppelin/contracts/security/ReentrancyGuard.sol\":2598:2616  _status = _ENTERED */\n      dup2\n      swap1\n      sstore\n      pop\n        /* \"@openzeppelin/contracts/security/ReentrancyGuard.sol\":2336:2623  function _nonReentrantBefore() private {... */\n      jump\t// out\n        /* \"@openzeppelin/contracts/utils/Context.sol\":656:752  function _msgSender() internal view virtual returns (address) {... */\n    tag_74:\n        /* \"@openzeppelin/contracts/utils/Context.sol\":709:716  address */\n      0x00\n        /* \"@openzeppelin/contracts/utils/Context.sol\":735:745  msg.sender */\n      caller\n        /* \"@openzeppelin/contracts/utils/Context.sol\":728:745  return msg.sender */\n      swap1\n      pop\n        /* \"@openzeppelin/contracts/utils/Context.sol\":656:752  function _msgSender() internal view virtual returns (address) {... */\n      swap1\n      jump\t// out\n        /* \"@openzeppelin/contracts/security/ReentrancyGuard.sol\":2629:2838  function _nonReentrantAfter() private {... */\n    tag_85:\n        /* \"@openzeppelin/contracts/security/ReentrancyGuard.sol\":1716:1717  1 */\n      0x01\n        /* \"@openzeppelin/contracts/security/ReentrancyGuard.sol\":2809:2816  _status */\n      0x00\n        /* \"@openzeppelin/contracts/security/ReentrancyGuard.sol\":2809:2831  _status = _NOT_ENTERED */\n      dup2\n      swap1\n      sstore\n      pop\n        /* \"@openzeppelin/contracts/security/ReentrancyGuard.sol\":2629:2838  function _nonReentrantAfter() private {... */\n      jump\t// out\n        /* \"contract-8f3861590a.sol\":6265:6865  function _finalizeEscrow(uint256 _escrowId) internal {... */\n    tag_106:\n        /* \"contract-8f3861590a.sol\":6328:6351  EscrowDeal storage deal */\n      0x00\n        /* \"contract-8f3861590a.sol\":6354:6361  escrows */\n      0x01\n        /* \"contract-8f3861590a.sol\":6354:6372  escrows[_escrowId] */\n      0x00\n        /* \"contract-8f3861590a.sol\":6362:6371  _escrowId */\n      dup4\n        /* \"contract-8f3861590a.sol\":6354:6372  escrows[_escrowId] */\n      dup2\n      mstore\n      0x20\n      add\n      swap1\n      dup2\n      mstore\n      0x20\n      add\n      0x00\n      keccak256\n        /* \"contract-8f3861590a.sol\":6328:6372  EscrowDeal storage deal = escrows[_escrowId] */\n      swap1\n      pop\n        /* \"contract-8f3861590a.sol\":6440:6445  false */\n      0x00\n        /* \"contract-8f3861590a.sol\":6424:6428  deal */\n      dup2\n        /* \"contract-8f3861590a.sol\":6424:6437  deal.isActive */\n      0x06\n      add\n      0x00\n        /* \"contract-8f3861590a.sol\":6424:6445  deal.isActive = false */\n      0x0100\n      exp\n      dup2\n      sload\n      dup2\n      0xff\n      mul\n      not\n      and\n      swap1\n      dup4\n      iszero\n      iszero\n      mul\n      or\n      swap1\n      sstore\n      pop\n        /* \"contract-8f3861590a.sol\":6496:6500  deal */\n      dup1\n        /* \"contract-8f3861590a.sol\":6496:6511  deal.nftAddress */\n      0x02\n      add\n      0x00\n      swap1\n      sload\n      swap1\n      0x0100\n      exp\n      swap1\n      div\n      0xffffffffffffffffffffffffffffffffffffffff\n      and\n        /* \"contract-8f3861590a.sol\":6487:6529  IERC1155(deal.nftAddress).safeTransferFrom */\n      0xffffffffffffffffffffffffffffffffffffffff\n      and\n      0xf242432a\n        /* \"contract-8f3861590a.sol\":6551:6555  this */\n      address\n        /* \"contract-8f3861590a.sol\":6570:6574  deal */\n      dup4\n        /* \"contract-8f3861590a.sol\":6570:6580  deal.buyer */\n      0x01\n      add\n      0x00\n      swap1\n      sload\n      swap1\n      0x0100\n      exp\n      swap1\n      div\n      0xffffffffffffffffffffffffffffffffffffffff\n      and\n        /* \"contract-8f3861590a.sol\":6594:6598  deal */\n      dup5\n        /* \"contract-8f3861590a.sol\":6594:6606  deal.tokenId */\n      0x03\n      add\n      sload\n        /* \"contract-8f3861590a.sol\":6620:6624  deal */\n      dup6\n        /* \"contract-8f3861590a.sol\":6620:6631  deal.amount */\n      0x04\n      add\n      sload\n        /* \"contract-8f3861590a.sol\":6487:6657  IERC1155(deal.nftAddress).safeTransferFrom(... */\n      mload(0x40)\n      dup6\n      0xffffffff\n      and\n      0xe0\n      shl\n      dup2\n      mstore\n      0x04\n      add\n      tag_193\n      swap5\n      swap4\n      swap3\n      swap2\n      swap1\n      tag_77\n      jump\t// in\n    tag_193:\n      0x00\n      mload(0x40)\n      dup1\n      dup4\n      sub\n      dup2\n      0x00\n      dup8\n      dup1\n      extcodesize\n      iszero\n      dup1\n      iszero\n      tag_194\n      jumpi\n      0x00\n      dup1\n      revert\n    tag_194:\n      pop\n      gas\n      call\n      iszero\n      dup1\n      iszero\n      tag_196\n      jumpi\n      returndatasize\n      0x00\n      dup1\n      returndatacopy\n      revert(0x00, returndatasize)\n    tag_196:\n      pop\n      pop\n      pop\n      pop\n        /* \"contract-8f3861590a.sol\":6705:6717  bool success */\n      0x00\n        /* \"contract-8f3861590a.sol\":6731:6735  deal */\n      dup2\n        /* \"contract-8f3861590a.sol\":6731:6742  deal.seller */\n      0x00\n      add\n      0x00\n      swap1\n      sload\n      swap1\n      0x0100\n      exp\n      swap1\n      div\n      0xffffffffffffffffffffffffffffffffffffffff\n      and\n        /* \"contract-8f3861590a.sol\":6723:6748  payable(deal.seller).call */\n      0xffffffffffffffffffffffffffffffffffffffff\n      and\n        /* \"contract-8f3861590a.sol\":6756:6760  deal */\n      dup3\n        /* \"contract-8f3861590a.sol\":6756:6766  deal.price */\n      0x05\n      add\n      sload\n        /* \"contract-8f3861590a.sol\":6723:6771  payable(deal.seller).call{value: deal.price}(\"\") */\n      mload(0x40)\n      tag_197\n      swap1\n      tag_173\n      jump\t// in\n    tag_197:\n      0x00\n      mload(0x40)\n      dup1\n      dup4\n      sub\n      dup2\n      dup6\n      dup8\n      gas\n      call\n      swap3\n      pop\n      pop\n      pop\n      returndatasize\n      dup1\n      0x00\n      dup2\n      eq\n      tag_200\n      jumpi\n      mload(0x40)\n      swap2\n      pop\n      and(add(returndatasize, 0x3f), not(0x1f))\n      dup3\n      add\n      0x40\n      mstore\n      returndatasize\n      dup3\n      mstore\n      returndatasize\n      0x00\n      0x20\n      dup5\n      add\n      returndatacopy\n      jump(tag_199)\n    tag_200:\n      0x60\n      swap2\n      pop\n    tag_199:\n      pop\n        /* \"contract-8f3861590a.sol\":6704:6771  (bool success, ) = payable(deal.seller).call{value: deal.price}(\"\") */\n      pop\n      swap1\n      pop\n        /* \"contract-8f3861590a.sol\":6789:6796  success */\n      dup1\n        /* \"contract-8f3861590a.sol\":6781:6816  require(success, \"Transfer failed\") */\n      tag_201\n      jumpi\n      mload(0x40)\n      0x08c379a000000000000000000000000000000000000000000000000000000000\n      dup2\n      mstore\n      0x04\n      add\n      tag_202\n      swap1\n      tag_203\n      jump\t// in\n    tag_202:\n      mload(0x40)\n      dup1\n      swap2\n      sub\n      swap1\n      revert\n    tag_201:\n        /* \"contract-8f3861590a.sol\":6848:6857  _escrowId */\n      dup3\n        /* \"contract-8f3861590a.sol\":6832:6858  EscrowFinalized(_escrowId) */\n      0xea01dca19ebfae563a7b0c8efab044f2680197adac7f6ef0a6f3da7fd500a324\n      mload(0x40)\n      mload(0x40)\n      dup1\n      swap2\n      sub\n      swap1\n      log2\n        /* \"contract-8f3861590a.sol\":6318:6865  {... */\n      pop\n      pop\n        /* \"contract-8f3861590a.sol\":6265:6865  function _finalizeEscrow(uint256 _escrowId) internal {... */\n      pop\n      jump\t// out\n        /* \"contract-8f3861590a.sol\":8575:8688  function _isCompleted(EscrowDeal memory deal) internal pure returns (bool) {... */\n    tag_115:\n        /* \"contract-8f3861590a.sol\":8644:8648  bool */\n      0x00\n        /* \"contract-8f3861590a.sol\":8668:8672  deal */\n      dup2\n        /* \"contract-8f3861590a.sol\":8668:8681  deal.isActive */\n      0xc0\n      add\n      mload\n        /* \"contract-8f3861590a.sol\":8667:8681  !deal.isActive */\n      iszero\n        /* \"contract-8f3861590a.sol\":8660:8681  return !deal.isActive */\n      swap1\n      pop\n        /* \"contract-8f3861590a.sol\":8575:8688  function _isCompleted(EscrowDeal memory deal) internal pure returns (bool) {... */\n      swap2\n      swap1\n      pop\n      jump\t// out\n        /* \"#utility.yul\":88:205   */\n    tag_206:\n        /* \"#utility.yul\":197:198   */\n      0x00\n        /* \"#utility.yul\":194:195   */\n      dup1\n        /* \"#utility.yul\":187:199   */\n      revert\n        /* \"#utility.yul\":211:328   */\n    tag_207:\n        /* \"#utility.yul\":320:321   */\n      0x00\n        /* \"#utility.yul\":317:318   */\n      dup1\n        /* \"#utility.yul\":310:322   */\n      revert\n        /* \"#utility.yul\":334:411   */\n    tag_208:\n        /* \"#utility.yul\":371:378   */\n      0x00\n        /* \"#utility.yul\":400:405   */\n      dup2\n        /* \"#utility.yul\":389:405   */\n      swap1\n      pop\n        /* \"#utility.yul\":334:411   */\n      swap2\n      swap1\n      pop\n      jump\t// out\n        /* \"#utility.yul\":417:539   */\n    tag_209:\n        /* \"#utility.yul\":490:514   */\n      tag_275\n        /* \"#utility.yul\":508:513   */\n      dup2\n        /* \"#utility.yul\":490:514   */\n      tag_208\n      jump\t// in\n    tag_275:\n        /* \"#utility.yul\":483:488   */\n      dup2\n        /* \"#utility.yul\":480:515   */\n      eq\n        /* \"#utility.yul\":470:533   */\n      tag_276\n      jumpi\n        /* \"#utility.yul\":529:530   */\n      0x00\n        /* \"#utility.yul\":526:527   */\n      dup1\n        /* \"#utility.yul\":519:531   */\n      revert\n        /* \"#utility.yul\":470:533   */\n    tag_276:\n        /* \"#utility.yul\":417:539   */\n      pop\n      jump\t// out\n        /* \"#utility.yul\":545:684   */\n    tag_210:\n        /* \"#utility.yul\":591:596   */\n      0x00\n        /* \"#utility.yul\":629:635   */\n      dup2\n        /* \"#utility.yul\":616:636   */\n      calldataload\n        /* \"#utility.yul\":607:636   */\n      swap1\n      pop\n        /* \"#utility.yul\":645:678   */\n      tag_278\n        /* \"#utility.yul\":672:677   */\n      dup2\n        /* \"#utility.yul\":645:678   */\n      tag_209\n      jump\t// in\n    tag_278:\n        /* \"#utility.yul\":545:684   */\n      swap3\n      swap2\n      pop\n      pop\n      jump\t// out\n        /* \"#utility.yul\":690:1019   */\n    tag_15:\n        /* \"#utility.yul\":749:755   */\n      0x00\n        /* \"#utility.yul\":798:800   */\n      0x20\n        /* \"#utility.yul\":786:795   */\n      dup3\n        /* \"#utility.yul\":777:784   */\n      dup5\n        /* \"#utility.yul\":773:796   */\n      sub\n        /* \"#utility.yul\":769:801   */\n      slt\n        /* \"#utility.yul\":766:885   */\n      iszero\n      tag_280\n      jumpi\n        /* \"#utility.yul\":804:883   */\n      tag_281\n      tag_206\n      jump\t// in\n    tag_281:\n        /* \"#utility.yul\":766:885   */\n    tag_280:\n        /* \"#utility.yul\":924:925   */\n      0x00\n        /* \"#utility.yul\":949:1002   */\n      tag_282\n        /* \"#utility.yul\":994:1001   */\n      dup5\n        /* \"#utility.yul\":985:991   */\n      dup3\n        /* \"#utility.yul\":974:983   */\n      dup6\n        /* \"#utility.yul\":970:992   */\n      add\n        /* \"#utility.yul\":949:1002   */\n      tag_210\n      jump\t// in\n    tag_282:\n        /* \"#utility.yul\":939:1002   */\n      swap2\n      pop\n        /* \"#utility.yul\":895:1012   */\n      pop\n        /* \"#utility.yul\":690:1019   */\n      swap3\n      swap2\n      pop\n      pop\n      jump\t// out\n        /* \"#utility.yul\":1025:1151   */\n    tag_211:\n        /* \"#utility.yul\":1062:1069   */\n      0x00\n        /* \"#utility.yul\":1102:1144   */\n      0xffffffffffffffffffffffffffffffffffffffff\n        /* \"#utility.yul\":1095:1100   */\n      dup3\n        /* \"#utility.yul\":1091:1145   */\n      and\n        /* \"#utility.yul\":1080:1145   */\n      swap1\n      pop\n        /* \"#utility.yul\":1025:1151   */\n      swap2\n      swap1\n      pop\n      jump\t// out\n        /* \"#utility.yul\":1157:1253   */\n    tag_212:\n        /* \"#utility.yul\":1194:1201   */\n      0x00\n        /* \"#utility.yul\":1223:1247   */\n      tag_285\n        /* \"#utility.yul\":1241:1246   */\n      dup3\n        /* \"#utility.yul\":1223:1247   */\n      tag_211\n      jump\t// in\n    tag_285:\n        /* \"#utility.yul\":1212:1247   */\n      swap1\n      pop\n        /* \"#utility.yul\":1157:1253   */\n      swap2\n      swap1\n      pop\n      jump\t// out\n        /* \"#utility.yul\":1259:1377   */\n    tag_213:\n        /* \"#utility.yul\":1346:1370   */\n      tag_287\n        /* \"#utility.yul\":1364:1369   */\n      dup2\n        /* \"#utility.yul\":1346:1370   */\n      tag_212\n      jump\t// in\n    tag_287:\n        /* \"#utility.yul\":1341:1344   */\n      dup3\n        /* \"#utility.yul\":1334:1371   */\n      mstore\n        /* \"#utility.yul\":1259:1377   */\n      pop\n      pop\n      jump\t// out\n        /* \"#utility.yul\":1383:1501   */\n    tag_214:\n        /* \"#utility.yul\":1470:1494   */\n      tag_289\n        /* \"#utility.yul\":1488:1493   */\n      dup2\n        /* \"#utility.yul\":1470:1494   */\n      tag_208\n      jump\t// in\n    tag_289:\n        /* \"#utility.yul\":1465:1468   */\n      dup3\n        /* \"#utility.yul\":1458:1495   */\n      mstore\n        /* \"#utility.yul\":1383:1501   */\n      pop\n      pop\n      jump\t// out\n        /* \"#utility.yul\":1507:1597   */\n    tag_215:\n        /* \"#utility.yul\":1541:1548   */\n      0x00\n        /* \"#utility.yul\":1584:1589   */\n      dup2\n        /* \"#utility.yul\":1577:1590   */\n      iszero\n        /* \"#utility.yul\":1570:1591   */\n      iszero\n        /* \"#utility.yul\":1559:1591   */\n      swap1\n      pop\n        /* \"#utility.yul\":1507:1597   */\n      swap2\n      swap1\n      pop\n      jump\t// out\n        /* \"#utility.yul\":1603:1712   */\n    tag_216:\n        /* \"#utility.yul\":1684:1705   */\n      tag_292\n        /* \"#utility.yul\":1699:1704   */\n      dup2\n        /* \"#utility.yul\":1684:1705   */\n      tag_215\n      jump\t// in\n    tag_292:\n        /* \"#utility.yul\":1679:1682   */\n      dup3\n        /* \"#utility.yul\":1672:1706   */\n      mstore\n        /* \"#utility.yul\":1603:1712   */\n      pop\n      pop\n      jump\t// out\n        /* \"#utility.yul\":1718:2889   */\n    tag_18:\n        /* \"#utility.yul\":2039:2043   */\n      0x00\n        /* \"#utility.yul\":2077:2080   */\n      0x0140\n        /* \"#utility.yul\":2066:2075   */\n      dup3\n        /* \"#utility.yul\":2062:2081   */\n      add\n        /* \"#utility.yul\":2054:2081   */\n      swap1\n      pop\n        /* \"#utility.yul\":2091:2162   */\n      tag_294\n        /* \"#utility.yul\":2159:2160   */\n      0x00\n        /* \"#utility.yul\":2148:2157   */\n      dup4\n        /* \"#utility.yul\":2144:2161   */\n      add\n        /* \"#utility.yul\":2135:2141   */\n      dup14\n        /* \"#utility.yul\":2091:2162   */\n      tag_213\n      jump\t// in\n    tag_294:\n        /* \"#utility.yul\":2172:2244   */\n      tag_295\n        /* \"#utility.yul\":2240:2242   */\n      0x20\n        /* \"#utility.yul\":2229:2238   */\n      dup4\n        /* \"#utility.yul\":2225:2243   */\n      add\n        /* \"#utility.yul\":2216:2222   */\n      dup13\n        /* \"#utility.yul\":2172:2244   */\n      tag_213\n      jump\t// in\n    tag_295:\n        /* \"#utility.yul\":2254:2326   */\n      tag_296\n        /* \"#utility.yul\":2322:2324   */\n      0x40\n        /* \"#utility.yul\":2311:2320   */\n      dup4\n        /* \"#utility.yul\":2307:2325   */\n      add\n        /* \"#utility.yul\":2298:2304   */\n      dup12\n        /* \"#utility.yul\":2254:2326   */\n      tag_213\n      jump\t// in\n    tag_296:\n        /* \"#utility.yul\":2336:2408   */\n      tag_297\n        /* \"#utility.yul\":2404:2406   */\n      0x60\n        /* \"#utility.yul\":2393:2402   */\n      dup4\n        /* \"#utility.yul\":2389:2407   */\n      add\n        /* \"#utility.yul\":2380:2386   */\n      dup11\n        /* \"#utility.yul\":2336:2408   */\n      tag_214\n      jump\t// in\n    tag_297:\n        /* \"#utility.yul\":2418:2491   */\n      tag_298\n        /* \"#utility.yul\":2486:2489   */\n      0x80\n        /* \"#utility.yul\":2475:2484   */\n      dup4\n        /* \"#utility.yul\":2471:2490   */\n      add\n        /* \"#utility.yul\":2462:2468   */\n      dup10\n        /* \"#utility.yul\":2418:2491   */\n      tag_214\n      jump\t// in\n    tag_298:\n        /* \"#utility.yul\":2501:2574   */\n      tag_299\n        /* \"#utility.yul\":2569:2572   */\n      0xa0\n        /* \"#utility.yul\":2558:2567   */\n      dup4\n        /* \"#utility.yul\":2554:2573   */\n      add\n        /* \"#utility.yul\":2545:2551   */\n      dup9\n        /* \"#utility.yul\":2501:2574   */\n      tag_214\n      jump\t// in\n    tag_299:\n        /* \"#utility.yul\":2584:2651   */\n      tag_300\n        /* \"#utility.yul\":2646:2649   */\n      0xc0\n        /* \"#utility.yul\":2635:2644   */\n      dup4\n        /* \"#utility.yul\":2631:2650   */\n      add\n        /* \"#utility.yul\":2622:2628   */\n      dup8\n        /* \"#utility.yul\":2584:2651   */\n      tag_216\n      jump\t// in\n    tag_300:\n        /* \"#utility.yul\":2661:2728   */\n      tag_301\n        /* \"#utility.yul\":2723:2726   */\n      0xe0\n        /* \"#utility.yul\":2712:2721   */\n      dup4\n        /* \"#utility.yul\":2708:2727   */\n      add\n        /* \"#utility.yul\":2699:2705   */\n      dup7\n        /* \"#utility.yul\":2661:2728   */\n      tag_216\n      jump\t// in\n    tag_301:\n        /* \"#utility.yul\":2738:2805   */\n      tag_302\n        /* \"#utility.yul\":2800:2803   */\n      0x0100\n        /* \"#utility.yul\":2789:2798   */\n      dup4\n        /* \"#utility.yul\":2785:2804   */\n      add\n        /* \"#utility.yul\":2776:2782   */\n      dup6\n        /* \"#utility.yul\":2738:2805   */\n      tag_216\n      jump\t// in\n    tag_302:\n        /* \"#utility.yul\":2815:2882   */\n      tag_303\n        /* \"#utility.yul\":2877:2880   */\n      0x0120\n        /* \"#utility.yul\":2866:2875   */\n      dup4\n        /* \"#utility.yul\":2862:2881   */\n      add\n        /* \"#utility.yul\":2853:2859   */\n      dup5\n        /* \"#utility.yul\":2815:2882   */\n      tag_216\n      jump\t// in\n    tag_303:\n        /* \"#utility.yul\":1718:2889   */\n      swap12\n      swap11\n      pop\n      pop\n      pop\n      pop\n      pop\n      pop\n      pop\n      pop\n      pop\n      pop\n      pop\n      jump\t// out\n        /* \"#utility.yul\":2895:3017   */\n    tag_217:\n        /* \"#utility.yul\":2968:2992   */\n      tag_305\n        /* \"#utility.yul\":2986:2991   */\n      dup2\n        /* \"#utility.yul\":2968:2992   */\n      tag_212\n      jump\t// in\n    tag_305:\n        /* \"#utility.yul\":2961:2966   */\n      dup2\n        /* \"#utility.yul\":2958:2993   */\n      eq\n        /* \"#utility.yul\":2948:3011   */\n      tag_306\n      jumpi\n        /* \"#utility.yul\":3007:3008   */\n      0x00\n        /* \"#utility.yul\":3004:3005   */\n      dup1\n        /* \"#utility.yul\":2997:3009   */\n      revert\n        /* \"#utility.yul\":2948:3011   */\n    tag_306:\n        /* \"#utility.yul\":2895:3017   */\n      pop\n      jump\t// out\n        /* \"#utility.yul\":3023:3162   */\n    tag_218:\n        /* \"#utility.yul\":3069:3074   */\n      0x00\n        /* \"#utility.yul\":3107:3113   */\n      dup2\n        /* \"#utility.yul\":3094:3114   */\n      calldataload\n        /* \"#utility.yul\":3085:3114   */\n      swap1\n      pop\n        /* \"#utility.yul\":3123:3156   */\n      tag_308\n        /* \"#utility.yul\":3150:3155   */\n      dup2\n        /* \"#utility.yul\":3123:3156   */\n      tag_217\n      jump\t// in\n    tag_308:\n        /* \"#utility.yul\":3023:3162   */\n      swap3\n      swap2\n      pop\n      pop\n      jump\t// out\n        /* \"#utility.yul\":3168:4079   */\n    tag_22:\n        /* \"#utility.yul\":3263:3269   */\n      0x00\n        /* \"#utility.yul\":3271:3277   */\n      dup1\n        /* \"#utility.yul\":3279:3285   */\n      0x00\n        /* \"#utility.yul\":3287:3293   */\n      dup1\n        /* \"#utility.yul\":3295:3301   */\n      0x00\n        /* \"#utility.yul\":3344:3347   */\n      0xa0\n        /* \"#utility.yul\":3332:3341   */\n      dup7\n        /* \"#utility.yul\":3323:3330   */\n      dup9\n        /* \"#utility.yul\":3319:3342   */\n      sub\n        /* \"#utility.yul\":3315:3348   */\n      slt\n        /* \"#utility.yul\":3312:3432   */\n      iszero\n      tag_310\n      jumpi\n        /* \"#utility.yul\":3351:3430   */\n      tag_311\n      tag_206\n      jump\t// in\n    tag_311:\n        /* \"#utility.yul\":3312:3432   */\n    tag_310:\n        /* \"#utility.yul\":3471:3472   */\n      0x00\n        /* \"#utility.yul\":3496:3549   */\n      tag_312\n        /* \"#utility.yul\":3541:3548   */\n      dup9\n        /* \"#utility.yul\":3532:3538   */\n      dup3\n        /* \"#utility.yul\":3521:3530   */\n      dup10\n        /* \"#utility.yul\":3517:3539   */\n      add\n        /* \"#utility.yul\":3496:3549   */\n      tag_218\n      jump\t// in\n    tag_312:\n        /* \"#utility.yul\":3486:3549   */\n      swap6\n      pop\n        /* \"#utility.yul\":3442:3559   */\n      pop\n        /* \"#utility.yul\":3598:3600   */\n      0x20\n        /* \"#utility.yul\":3624:3677   */\n      tag_313\n        /* \"#utility.yul\":3669:3676   */\n      dup9\n        /* \"#utility.yul\":3660:3666   */\n      dup3\n        /* \"#utility.yul\":3649:3658   */\n      dup10\n        /* \"#utility.yul\":3645:3667   */\n      add\n        /* \"#utility.yul\":3624:3677   */\n      tag_218\n      jump\t// in\n    tag_313:\n        /* \"#utility.yul\":3614:3677   */\n      swap5\n      pop\n        /* \"#utility.yul\":3569:3687   */\n      pop\n        /* \"#utility.yul\":3726:3728   */\n      0x40\n        /* \"#utility.yul\":3752:3805   */\n      tag_314\n        /* \"#utility.yul\":3797:3804   */\n      dup9\n        /* \"#utility.yul\":3788:3794   */\n      dup3\n        /* \"#utility.yul\":3777:3786   */\n      dup10\n        /* \"#utility.yul\":3773:3795   */\n      add\n        /* \"#utility.yul\":3752:3805   */\n      tag_210\n      jump\t// in\n    tag_314:\n        /* \"#utility.yul\":3742:3805   */\n      swap4\n      pop\n        /* \"#utility.yul\":3697:3815   */\n      pop\n        /* \"#utility.yul\":3854:3856   */\n      0x60\n        /* \"#utility.yul\":3880:3933   */\n      tag_315\n        /* \"#utility.yul\":3925:3932   */\n      dup9\n        /* \"#utility.yul\":3916:3922   */\n      dup3\n        /* \"#utility.yul\":3905:3914   */\n      dup10\n        /* \"#utility.yul\":3901:3923   */\n      add\n        /* \"#utility.yul\":3880:3933   */\n      tag_210\n      jump\t// in\n    tag_315:\n        /* \"#utility.yul\":3870:3933   */\n      swap3\n      pop\n        /* \"#utility.yul\":3825:3943   */\n      pop\n        /* \"#utility.yul\":3982:3985   */\n      0x80\n        /* \"#utility.yul\":4009:4062   */\n      tag_316\n        /* \"#utility.yul\":4054:4061   */\n      dup9\n        /* \"#utility.yul\":4045:4051   */\n      dup3\n        /* \"#utility.yul\":4034:4043   */\n      dup10\n        /* \"#utility.yul\":4030:4052   */\n      add\n        /* \"#utility.yul\":4009:4062   */\n      tag_210\n      jump\t// in\n    tag_316:\n        /* \"#utility.yul\":3999:4062   */\n      swap2\n      pop\n        /* \"#utility.yul\":3953:4072   */\n      pop\n        /* \"#utility.yul\":3168:4079   */\n      swap3\n      swap6\n      pop\n      swap3\n      swap6\n      swap1\n      swap4\n      pop\n      jump\t// out\n        /* \"#utility.yul\":4085:4307   */\n    tag_25:\n        /* \"#utility.yul\":4178:4182   */\n      0x00\n        /* \"#utility.yul\":4216:4218   */\n      0x20\n        /* \"#utility.yul\":4205:4214   */\n      dup3\n        /* \"#utility.yul\":4201:4219   */\n      add\n        /* \"#utility.yul\":4193:4219   */\n      swap1\n      pop\n        /* \"#utility.yul\":4229:4300   */\n      tag_318\n        /* \"#utility.yul\":4297:4298   */\n      0x00\n        /* \"#utility.yul\":4286:4295   */\n      dup4\n        /* \"#utility.yul\":4282:4299   */\n      add\n        /* \"#utility.yul\":4273:4279   */\n      dup5\n        /* \"#utility.yul\":4229:4300   */\n      tag_214\n      jump\t// in\n    tag_318:\n        /* \"#utility.yul\":4085:4307   */\n      swap3\n      swap2\n      pop\n      pop\n      jump\t// out\n        /* \"#utility.yul\":4313:4430   */\n    tag_219:\n        /* \"#utility.yul\":4422:4423   */\n      0x00\n        /* \"#utility.yul\":4419:4420   */\n      dup1\n        /* \"#utility.yul\":4412:4424   */\n      revert\n        /* \"#utility.yul\":4436:4553   */\n    tag_220:\n        /* \"#utility.yul\":4545:4546   */\n      0x00\n        /* \"#utility.yul\":4542:4543   */\n      dup1\n        /* \"#utility.yul\":4535:4547   */\n      revert\n        /* \"#utility.yul\":4559:4676   */\n    tag_221:\n        /* \"#utility.yul\":4668:4669   */\n      0x00\n        /* \"#utility.yul\":4665:4666   */\n      dup1\n        /* \"#utility.yul\":4658:4670   */\n      revert\n        /* \"#utility.yul\":4699:5267   */\n    tag_222:\n        /* \"#utility.yul\":4772:4780   */\n      0x00\n        /* \"#utility.yul\":4782:4788   */\n      dup1\n        /* \"#utility.yul\":4832:4835   */\n      dup4\n        /* \"#utility.yul\":4825:4829   */\n      0x1f\n        /* \"#utility.yul\":4817:4823   */\n      dup5\n        /* \"#utility.yul\":4813:4830   */\n      add\n        /* \"#utility.yul\":4809:4836   */\n      slt\n        /* \"#utility.yul\":4799:4921   */\n      tag_323\n      jumpi\n        /* \"#utility.yul\":4840:4919   */\n      tag_324\n      tag_219\n      jump\t// in\n    tag_324:\n        /* \"#utility.yul\":4799:4921   */\n    tag_323:\n        /* \"#utility.yul\":4953:4959   */\n      dup3\n        /* \"#utility.yul\":4940:4960   */\n      calldataload\n        /* \"#utility.yul\":4930:4960   */\n      swap1\n      pop\n        /* \"#utility.yul\":4983:5001   */\n      0xffffffffffffffff\n        /* \"#utility.yul\":4975:4981   */\n      dup2\n        /* \"#utility.yul\":4972:5002   */\n      gt\n        /* \"#utility.yul\":4969:5086   */\n      iszero\n      tag_325\n      jumpi\n        /* \"#utility.yul\":5005:5084   */\n      tag_326\n      tag_220\n      jump\t// in\n    tag_326:\n        /* \"#utility.yul\":4969:5086   */\n    tag_325:\n        /* \"#utility.yul\":5119:5123   */\n      0x20\n        /* \"#utility.yul\":5111:5117   */\n      dup4\n        /* \"#utility.yul\":5107:5124   */\n      add\n        /* \"#utility.yul\":5095:5124   */\n      swap2\n      pop\n        /* \"#utility.yul\":5173:5176   */\n      dup4\n        /* \"#utility.yul\":5165:5169   */\n      0x20\n        /* \"#utility.yul\":5157:5163   */\n      dup3\n        /* \"#utility.yul\":5153:5170   */\n      mul\n        /* \"#utility.yul\":5143:5151   */\n      dup4\n        /* \"#utility.yul\":5139:5171   */\n      add\n        /* \"#utility.yul\":5136:5177   */\n      gt\n        /* \"#utility.yul\":5133:5261   */\n      iszero\n      tag_327\n      jumpi\n        /* \"#utility.yul\":5180:5259   */\n      tag_328\n      tag_221\n      jump\t// in\n    tag_328:\n        /* \"#utility.yul\":5133:5261   */\n    tag_327:\n        /* \"#utility.yul\":4699:5267   */\n      swap3\n      pop\n      swap3\n      swap1\n      pop\n      jump\t// out\n        /* \"#utility.yul\":5286:5838   */\n    tag_223:\n        /* \"#utility.yul\":5343:5351   */\n      0x00\n        /* \"#utility.yul\":5353:5359   */\n      dup1\n        /* \"#utility.yul\":5403:5406   */\n      dup4\n        /* \"#utility.yul\":5396:5400   */\n      0x1f\n        /* \"#utility.yul\":5388:5394   */\n      dup5\n        /* \"#utility.yul\":5384:5401   */\n      add\n        /* \"#utility.yul\":5380:5407   */\n      slt\n        /* \"#utility.yul\":5370:5492   */\n      tag_330\n      jumpi\n        /* \"#utility.yul\":5411:5490   */\n      tag_331\n      tag_219\n      jump\t// in\n    tag_331:\n        /* \"#utility.yul\":5370:5492   */\n    tag_330:\n        /* \"#utility.yul\":5524:5530   */\n      dup3\n        /* \"#utility.yul\":5511:5531   */\n      calldataload\n        /* \"#utility.yul\":5501:5531   */\n      swap1\n      pop\n        /* \"#utility.yul\":5554:5572   */\n      0xffffffffffffffff\n        /* \"#utility.yul\":5546:5552   */\n      dup2\n        /* \"#utility.yul\":5543:5573   */\n      gt\n        /* \"#utility.yul\":5540:5657   */\n      iszero\n      tag_332\n      jumpi\n        /* \"#utility.yul\":5576:5655   */\n      tag_333\n      tag_220\n      jump\t// in\n    tag_333:\n        /* \"#utility.yul\":5540:5657   */\n    tag_332:\n        /* \"#utility.yul\":5690:5694   */\n      0x20\n        /* \"#utility.yul\":5682:5688   */\n      dup4\n        /* \"#utility.yul\":5678:5695   */\n      add\n        /* \"#utility.yul\":5666:5695   */\n      swap2\n      pop\n        /* \"#utility.yul\":5744:5747   */\n      dup4\n        /* \"#utility.yul\":5736:5740   */\n      0x01\n        /* \"#utility.yul\":5728:5734   */\n      dup3\n        /* \"#utility.yul\":5724:5741   */\n      mul\n        /* \"#utility.yul\":5714:5722   */\n      dup4\n        /* \"#utility.yul\":5710:5742   */\n      add\n        /* \"#utility.yul\":5707:5748   */\n      gt\n        /* \"#utility.yul\":5704:5832   */\n      iszero\n      tag_334\n      jumpi\n        /* \"#utility.yul\":5751:5830   */\n      tag_335\n      tag_221\n      jump\t// in\n    tag_335:\n        /* \"#utility.yul\":5704:5832   */\n    tag_334:\n        /* \"#utility.yul\":5286:5838   */\n      swap3\n      pop\n      swap3\n      swap1\n      pop\n      jump\t// out\n        /* \"#utility.yul\":5844:7413   */\n    tag_37:\n        /* \"#utility.yul\":6004:6010   */\n      0x00\n        /* \"#utility.yul\":6012:6018   */\n      dup1\n        /* \"#utility.yul\":6020:6026   */\n      0x00\n        /* \"#utility.yul\":6028:6034   */\n      dup1\n        /* \"#utility.yul\":6036:6042   */\n      0x00\n        /* \"#utility.yul\":6044:6050   */\n      dup1\n        /* \"#utility.yul\":6052:6058   */\n      0x00\n        /* \"#utility.yul\":6060:6066   */\n      dup1\n        /* \"#utility.yul\":6109:6112   */\n      0xa0\n        /* \"#utility.yul\":6097:6106   */\n      dup10\n        /* \"#utility.yul\":6088:6095   */\n      dup12\n        /* \"#utility.yul\":6084:6107   */\n      sub\n        /* \"#utility.yul\":6080:6113   */\n      slt\n        /* \"#utility.yul\":6077:6197   */\n      iszero\n      tag_337\n      jumpi\n        /* \"#utility.yul\":6116:6195   */\n      tag_338\n      tag_206\n      jump\t// in\n    tag_338:\n        /* \"#utility.yul\":6077:6197   */\n    tag_337:\n        /* \"#utility.yul\":6236:6237   */\n      0x00\n        /* \"#utility.yul\":6261:6314   */\n      tag_339\n        /* \"#utility.yul\":6306:6313   */\n      dup12\n        /* \"#utility.yul\":6297:6303   */\n      dup3\n        /* \"#utility.yul\":6286:6295   */\n      dup13\n        /* \"#utility.yul\":6282:6304   */\n      add\n        /* \"#utility.yul\":6261:6314   */\n      tag_218\n      jump\t// in\n    tag_339:\n        /* \"#utility.yul\":6251:6314   */\n      swap9\n      pop\n        /* \"#utility.yul\":6207:6324   */\n      pop\n        /* \"#utility.yul\":6363:6365   */\n      0x20\n        /* \"#utility.yul\":6389:6442   */\n      tag_340\n        /* \"#utility.yul\":6434:6441   */\n      dup12\n        /* \"#utility.yul\":6425:6431   */\n      dup3\n        /* \"#utility.yul\":6414:6423   */\n      dup13\n        /* \"#utility.yul\":6410:6432   */\n      add\n        /* \"#utility.yul\":6389:6442   */\n      tag_218\n      jump\t// in\n    tag_340:\n        /* \"#utility.yul\":6379:6442   */\n      swap8\n      pop\n        /* \"#utility.yul\":6334:6452   */\n      pop\n        /* \"#utility.yul\":6519:6521   */\n      0x40\n        /* \"#utility.yul\":6508:6517   */\n      dup10\n        /* \"#utility.yul\":6504:6522   */\n      add\n        /* \"#utility.yul\":6491:6523   */\n      calldataload\n        /* \"#utility.yul\":6550:6568   */\n      0xffffffffffffffff\n        /* \"#utility.yul\":6542:6548   */\n      dup2\n        /* \"#utility.yul\":6539:6569   */\n      gt\n        /* \"#utility.yul\":6536:6653   */\n      iszero\n      tag_341\n      jumpi\n        /* \"#utility.yul\":6572:6651   */\n      tag_342\n      tag_207\n      jump\t// in\n    tag_342:\n        /* \"#utility.yul\":6536:6653   */\n    tag_341:\n        /* \"#utility.yul\":6685:6765   */\n      tag_343\n        /* \"#utility.yul\":6757:6764   */\n      dup12\n        /* \"#utility.yul\":6748:6754   */\n      dup3\n        /* \"#utility.yul\":6737:6746   */\n      dup13\n        /* \"#utility.yul\":6733:6755   */\n      add\n        /* \"#utility.yul\":6685:6765   */\n      tag_222\n      jump\t// in\n    tag_343:\n        /* \"#utility.yul\":6667:6765   */\n      swap7\n      pop\n      swap7\n      pop\n        /* \"#utility.yul\":6462:6775   */\n      pop\n        /* \"#utility.yul\":6842:6844   */\n      0x60\n        /* \"#utility.yul\":6831:6840   */\n      dup10\n        /* \"#utility.yul\":6827:6845   */\n      add\n        /* \"#utility.yul\":6814:6846   */\n      calldataload\n        /* \"#utility.yul\":6873:6891   */\n      0xffffffffffffffff\n        /* \"#utility.yul\":6865:6871   */\n      dup2\n        /* \"#utility.yul\":6862:6892   */\n      gt\n        /* \"#utility.yul\":6859:6976   */\n      iszero\n      tag_344\n      jumpi\n        /* \"#utility.yul\":6895:6974   */\n      tag_345\n      tag_207\n      jump\t// in\n    tag_345:\n        /* \"#utility.yul\":6859:6976   */\n    tag_344:\n        /* \"#utility.yul\":7008:7088   */\n      tag_346\n        /* \"#utility.yul\":7080:7087   */\n      dup12\n        /* \"#utility.yul\":7071:7077   */\n      dup3\n        /* \"#utility.yul\":7060:7069   */\n      dup13\n        /* \"#utility.yul\":7056:7078   */\n      add\n        /* \"#utility.yul\":7008:7088   */\n      tag_222\n      jump\t// in\n    tag_346:\n        /* \"#utility.yul\":6990:7088   */\n      swap5\n      pop\n      swap5\n      pop\n        /* \"#utility.yul\":6785:7098   */\n      pop\n        /* \"#utility.yul\":7165:7168   */\n      0x80\n        /* \"#utility.yul\":7154:7163   */\n      dup10\n        /* \"#utility.yul\":7150:7169   */\n      add\n        /* \"#utility.yul\":7137:7170   */\n      calldataload\n        /* \"#utility.yul\":7197:7215   */\n      0xffffffffffffffff\n        /* \"#utility.yul\":7189:7195   */\n      dup2\n        /* \"#utility.yul\":7186:7216   */\n      gt\n        /* \"#utility.yul\":7183:7300   */\n      iszero\n      tag_347\n      jumpi\n        /* \"#utility.yul\":7219:7298   */\n      tag_348\n      tag_207\n      jump\t// in\n    tag_348:\n        /* \"#utility.yul\":7183:7300   */\n    tag_347:\n        /* \"#utility.yul\":7332:7396   */\n      tag_349\n        /* \"#utility.yul\":7388:7395   */\n      dup12\n        /* \"#utility.yul\":7379:7385   */\n      dup3\n        /* \"#utility.yul\":7368:7377   */\n      dup13\n        /* \"#utility.yul\":7364:7386   */\n      add\n        /* \"#utility.yul\":7332:7396   */\n      tag_223\n      jump\t// in\n    tag_349:\n        /* \"#utility.yul\":7314:7396   */\n      swap3\n      pop\n      swap3\n      pop\n        /* \"#utility.yul\":7108:7406   */\n      pop\n        /* \"#utility.yul\":5844:7413   */\n      swap3\n      swap6\n      swap9\n      pop\n      swap3\n      swap6\n      swap9\n      swap1\n      swap4\n      swap7\n      pop\n      jump\t// out\n        /* \"#utility.yul\":7419:7568   */\n    tag_224:\n        /* \"#utility.yul\":7455:7462   */\n      0x00\n        /* \"#utility.yul\":7495:7561   */\n      0xffffffff00000000000000000000000000000000000000000000000000000000\n        /* \"#utility.yul\":7488:7493   */\n      dup3\n        /* \"#utility.yul\":7484:7562   */\n      and\n        /* \"#utility.yul\":7473:7562   */\n      swap1\n      pop\n        /* \"#utility.yul\":7419:7568   */\n      swap2\n      swap1\n      pop\n      jump\t// out\n        /* \"#utility.yul\":7574:7689   */\n    tag_225:\n        /* \"#utility.yul\":7659:7682   */\n      tag_352\n        /* \"#utility.yul\":7676:7681   */\n      dup2\n        /* \"#utility.yul\":7659:7682   */\n      tag_224\n      jump\t// in\n    tag_352:\n        /* \"#utility.yul\":7654:7657   */\n      dup3\n        /* \"#utility.yul\":7647:7683   */\n      mstore\n        /* \"#utility.yul\":7574:7689   */\n      pop\n      pop\n      jump\t// out\n        /* \"#utility.yul\":7695:7913   */\n    tag_40:\n        /* \"#utility.yul\":7786:7790   */\n      0x00\n        /* \"#utility.yul\":7824:7826   */\n      0x20\n        /* \"#utility.yul\":7813:7822   */\n      dup3\n        /* \"#utility.yul\":7809:7827   */\n      add\n        /* \"#utility.yul\":7801:7827   */\n      swap1\n      pop\n        /* \"#utility.yul\":7837:7906   */\n      tag_354\n        /* \"#utility.yul\":7903:7904   */\n      0x00\n        /* \"#utility.yul\":7892:7901   */\n      dup4\n        /* \"#utility.yul\":7888:7905   */\n      add\n        /* \"#utility.yul\":7879:7885   */\n      dup5\n        /* \"#utility.yul\":7837:7906   */\n      tag_225\n      jump\t// in\n    tag_354:\n        /* \"#utility.yul\":7695:7913   */\n      swap3\n      swap2\n      pop\n      pop\n      jump\t// out\n        /* \"#utility.yul\":7919:9028   */\n    tag_55:\n        /* \"#utility.yul\":8025:8031   */\n      0x00\n        /* \"#utility.yul\":8033:8039   */\n      dup1\n        /* \"#utility.yul\":8041:8047   */\n      0x00\n        /* \"#utility.yul\":8049:8055   */\n      dup1\n        /* \"#utility.yul\":8057:8063   */\n      0x00\n        /* \"#utility.yul\":8065:8071   */\n      dup1\n        /* \"#utility.yul\":8114:8117   */\n      0xa0\n        /* \"#utility.yul\":8102:8111   */\n      dup8\n        /* \"#utility.yul\":8093:8100   */\n      dup10\n        /* \"#utility.yul\":8089:8112   */\n      sub\n        /* \"#utility.yul\":8085:8118   */\n      slt\n        /* \"#utility.yul\":8082:8202   */\n      iszero\n      tag_356\n      jumpi\n        /* \"#utility.yul\":8121:8200   */\n      tag_357\n      tag_206\n      jump\t// in\n    tag_357:\n        /* \"#utility.yul\":8082:8202   */\n    tag_356:\n        /* \"#utility.yul\":8241:8242   */\n      0x00\n        /* \"#utility.yul\":8266:8319   */\n      tag_358\n        /* \"#utility.yul\":8311:8318   */\n      dup10\n        /* \"#utility.yul\":8302:8308   */\n      dup3\n        /* \"#utility.yul\":8291:8300   */\n      dup11\n        /* \"#utility.yul\":8287:8309   */\n      add\n        /* \"#utility.yul\":8266:8319   */\n      tag_218\n      jump\t// in\n    tag_358:\n        /* \"#utility.yul\":8256:8319   */\n      swap7\n      pop\n        /* \"#utility.yul\":8212:8329   */\n      pop\n        /* \"#utility.yul\":8368:8370   */\n      0x20\n        /* \"#utility.yul\":8394:8447   */\n      tag_359\n        /* \"#utility.yul\":8439:8446   */\n      dup10\n        /* \"#utility.yul\":8430:8436   */\n      dup3\n        /* \"#utility.yul\":8419:8428   */\n      dup11\n        /* \"#utility.yul\":8415:8437   */\n      add\n        /* \"#utility.yul\":8394:8447   */\n      tag_218\n      jump\t// in\n    tag_359:\n        /* \"#utility.yul\":8384:8447   */\n      swap6\n      pop\n        /* \"#utility.yul\":8339:8457   */\n      pop\n        /* \"#utility.yul\":8496:8498   */\n      0x40\n        /* \"#utility.yul\":8522:8575   */\n      tag_360\n        /* \"#utility.yul\":8567:8574   */\n      dup10\n        /* \"#utility.yul\":8558:8564   */\n      dup3\n        /* \"#utility.yul\":8547:8556   */\n      dup11\n        /* \"#utility.yul\":8543:8565   */\n      add\n        /* \"#utility.yul\":8522:8575   */\n      tag_210\n      jump\t// in\n    tag_360:\n        /* \"#utility.yul\":8512:8575   */\n      swap5\n      pop\n        /* \"#utility.yul\":8467:8585   */\n      pop\n        /* \"#utility.yul\":8624:8626   */\n      0x60\n        /* \"#utility.yul\":8650:8703   */\n      tag_361\n        /* \"#utility.yul\":8695:8702   */\n      dup10\n        /* \"#utility.yul\":8686:8692   */\n      dup3\n        /* \"#utility.yul\":8675:8684   */\n      dup11\n        /* \"#utility.yul\":8671:8693   */\n      add\n        /* \"#utility.yul\":8650:8703   */\n      tag_210\n      jump\t// in\n    tag_361:\n        /* \"#utility.yul\":8640:8703   */\n      swap4\n      pop\n        /* \"#utility.yul\":8595:8713   */\n      pop\n        /* \"#utility.yul\":8780:8783   */\n      0x80\n        /* \"#utility.yul\":8769:8778   */\n      dup8\n        /* \"#utility.yul\":8765:8784   */\n      add\n        /* \"#utility.yul\":8752:8785   */\n      calldataload\n        /* \"#utility.yul\":8812:8830   */\n      0xffffffffffffffff\n        /* \"#utility.yul\":8804:8810   */\n      dup2\n        /* \"#utility.yul\":8801:8831   */\n      gt\n        /* \"#utility.yul\":8798:8915   */\n      iszero\n      tag_362\n      jumpi\n        /* \"#utility.yul\":8834:8913   */\n      tag_363\n      tag_207\n      jump\t// in\n    tag_363:\n        /* \"#utility.yul\":8798:8915   */\n    tag_362:\n        /* \"#utility.yul\":8947:9011   */\n      tag_364\n        /* \"#utility.yul\":9003:9010   */\n      dup10\n        /* \"#utility.yul\":8994:9000   */\n      dup3\n        /* \"#utility.yul\":8983:8992   */\n      dup11\n        /* \"#utility.yul\":8979:9001   */\n      add\n        /* \"#utility.yul\":8947:9011   */\n      tag_223\n      jump\t// in\n    tag_364:\n        /* \"#utility.yul\":8929:9011   */\n      swap3\n      pop\n      swap3\n      pop\n        /* \"#utility.yul\":8723:9021   */\n      pop\n        /* \"#utility.yul\":7919:9028   */\n      swap3\n      swap6\n      pop\n      swap3\n      swap6\n      pop\n      swap3\n      swap6\n      jump\t// out\n        /* \"#utility.yul\":9034:9203   */\n    tag_226:\n        /* \"#utility.yul\":9118:9129   */\n      0x00\n        /* \"#utility.yul\":9152:9158   */\n      dup3\n        /* \"#utility.yul\":9147:9150   */\n      dup3\n        /* \"#utility.yul\":9140:9159   */\n      mstore\n        /* \"#utility.yul\":9192:9196   */\n      0x20\n        /* \"#utility.yul\":9187:9190   */\n      dup3\n        /* \"#utility.yul\":9183:9197   */\n      add\n        /* \"#utility.yul\":9168:9197   */\n      swap1\n      pop\n        /* \"#utility.yul\":9034:9203   */\n      swap3\n      swap2\n      pop\n      pop\n      jump\t// out\n        /* \"#utility.yul\":9209:9376   */\n    tag_227:\n        /* \"#utility.yul\":9349:9368   */\n      0x5072696365206d757374206265203e2030000000000000000000000000000000\n        /* \"#utility.yul\":9345:9346   */\n      0x00\n        /* \"#utility.yul\":9337:9343   */\n      dup3\n        /* \"#utility.yul\":9333:9347   */\n      add\n        /* \"#utility.yul\":9326:9369   */\n      mstore\n        /* \"#utility.yul\":9209:9376   */\n      pop\n      jump\t// out\n        /* \"#utility.yul\":9382:9748   */\n    tag_228:\n        /* \"#utility.yul\":9524:9527   */\n      0x00\n        /* \"#utility.yul\":9545:9612   */\n      tag_368\n        /* \"#utility.yul\":9609:9611   */\n      0x11\n        /* \"#utility.yul\":9604:9607   */\n      dup4\n        /* \"#utility.yul\":9545:9612   */\n      tag_226\n      jump\t// in\n    tag_368:\n        /* \"#utility.yul\":9538:9612   */\n      swap2\n      pop\n        /* \"#utility.yul\":9621:9714   */\n      tag_369\n        /* \"#utility.yul\":9710:9713   */\n      dup3\n        /* \"#utility.yul\":9621:9714   */\n      tag_227\n      jump\t// in\n    tag_369:\n        /* \"#utility.yul\":9739:9741   */\n      0x20\n        /* \"#utility.yul\":9734:9737   */\n      dup3\n        /* \"#utility.yul\":9730:9742   */\n      add\n        /* \"#utility.yul\":9723:9742   */\n      swap1\n      pop\n        /* \"#utility.yul\":9382:9748   */\n      swap2\n      swap1\n      pop\n      jump\t// out\n        /* \"#utility.yul\":9754:10173   */\n    tag_64:\n        /* \"#utility.yul\":9920:9924   */\n      0x00\n        /* \"#utility.yul\":9958:9960   */\n      0x20\n        /* \"#utility.yul\":9947:9956   */\n      dup3\n        /* \"#utility.yul\":9943:9961   */\n      add\n        /* \"#utility.yul\":9935:9961   */\n      swap1\n      pop\n        /* \"#utility.yul\":10007:10016   */\n      dup2\n        /* \"#utility.yul\":10001:10005   */\n      dup2\n        /* \"#utility.yul\":9997:10017   */\n      sub\n        /* \"#utility.yul\":9993:9994   */\n      0x00\n        /* \"#utility.yul\":9982:9991   */\n      dup4\n        /* \"#utility.yul\":9978:9995   */\n      add\n        /* \"#utility.yul\":9971:10018   */\n      mstore\n        /* \"#utility.yul\":10035:10166   */\n      tag_371\n        /* \"#utility.yul\":10161:10165   */\n      dup2\n        /* \"#utility.yul\":10035:10166   */\n      tag_228\n      jump\t// in\n    tag_371:\n        /* \"#utility.yul\":10027:10166   */\n      swap1\n      pop\n        /* \"#utility.yul\":9754:10173   */\n      swap2\n      swap1\n      pop\n      jump\t// out\n        /* \"#utility.yul\":10179:10347   */\n    tag_229:\n        /* \"#utility.yul\":10319:10339   */\n      0x416d6f756e74206d757374206265203e20300000000000000000000000000000\n        /* \"#utility.yul\":10315:10316   */\n      0x00\n        /* \"#utility.yul\":10307:10313   */\n      dup3\n        /* \"#utility.yul\":10303:10317   */\n      add\n        /* \"#utility.yul\":10296:10340   */\n      mstore\n        /* \"#utility.yul\":10179:10347   */\n      pop\n      jump\t// out\n        /* \"#utility.yul\":10353:10719   */\n    tag_230:\n        /* \"#utility.yul\":10495:10498   */\n      0x00\n        /* \"#utility.yul\":10516:10583   */\n      tag_374\n        /* \"#utility.yul\":10580:10582   */\n      0x12\n        /* \"#utility.yul\":10575:10578   */\n      dup4\n        /* \"#utility.yul\":10516:10583   */\n      tag_226\n      jump\t// in\n    tag_374:\n        /* \"#utility.yul\":10509:10583   */\n      swap2\n      pop\n        /* \"#utility.yul\":10592:10685   */\n      tag_375\n        /* \"#utility.yul\":10681:10684   */\n      dup3\n        /* \"#utility.yul\":10592:10685   */\n      tag_229\n      jump\t// in\n    tag_375:\n        /* \"#utility.yul\":10710:10712   */\n      0x20\n        /* \"#utility.yul\":10705:10708   */\n      dup3\n        /* \"#utility.yul\":10701:10713   */\n      add\n        /* \"#utility.yul\":10694:10713   */\n      swap1\n      pop\n        /* \"#utility.yul\":10353:10719   */\n      swap2\n      swap1\n      pop\n      jump\t// out\n        /* \"#utility.yul\":10725:11144   */\n    tag_67:\n        /* \"#utility.yul\":10891:10895   */\n      0x00\n        /* \"#utility.yul\":10929:10931   */\n      0x20\n        /* \"#utility.yul\":10918:10927   */\n      dup3\n        /* \"#utility.yul\":10914:10932   */\n      add\n        /* \"#utility.yul\":10906:10932   */\n      swap1\n      pop\n        /* \"#utility.yul\":10978:10987   */\n      dup2\n        /* \"#utility.yul\":10972:10976   */\n      dup2\n        /* \"#utility.yul\":10968:10988   */\n      sub\n        /* \"#utility.yul\":10964:10965   */\n      0x00\n        /* \"#utility.yul\":10953:10962   */\n      dup4\n        /* \"#utility.yul\":10949:10966   */\n      add\n        /* \"#utility.yul\":10942:10989   */\n      mstore\n        /* \"#utility.yul\":11006:11137   */\n      tag_377\n        /* \"#utility.yul\":11132:11136   */\n      dup2\n        /* \"#utility.yul\":11006:11137   */\n      tag_230\n      jump\t// in\n    tag_377:\n        /* \"#utility.yul\":10998:11137   */\n      swap1\n      pop\n        /* \"#utility.yul\":10725:11144   */\n      swap2\n      swap1\n      pop\n      jump\t// out\n        /* \"#utility.yul\":11150:11328   */\n    tag_231:\n        /* \"#utility.yul\":11290:11320   */\n      0x42757965722063616e6e6f74206265207a65726f206164647265737300000000\n        /* \"#utility.yul\":11286:11287   */\n      0x00\n        /* \"#utility.yul\":11278:11284   */\n      dup3\n        /* \"#utility.yul\":11274:11288   */\n      add\n        /* \"#utility.yul\":11267:11321   */\n      mstore\n        /* \"#utility.yul\":11150:11328   */\n      pop\n      jump\t// out\n        /* \"#utility.yul\":11334:11700   */\n    tag_232:\n        /* \"#utility.yul\":11476:11479   */\n      0x00\n        /* \"#utility.yul\":11497:11564   */\n      tag_380\n        /* \"#utility.yul\":11561:11563   */\n      0x1c\n        /* \"#utility.yul\":11556:11559   */\n      dup4\n        /* \"#utility.yul\":11497:11564   */\n      tag_226\n      jump\t// in\n    tag_380:\n        /* \"#utility.yul\":11490:11564   */\n      swap2\n      pop\n        /* \"#utility.yul\":11573:11666   */\n      tag_381\n        /* \"#utility.yul\":11662:11665   */\n      dup3\n        /* \"#utility.yul\":11573:11666   */\n      tag_231\n      jump\t// in\n    tag_381:\n        /* \"#utility.yul\":11691:11693   */\n      0x20\n        /* \"#utility.yul\":11686:11689   */\n      dup3\n        /* \"#utility.yul\":11682:11694   */\n      add\n        /* \"#utility.yul\":11675:11694   */\n      swap1\n      pop\n        /* \"#utility.yul\":11334:11700   */\n      swap2\n      swap1\n      pop\n      jump\t// out\n        /* \"#utility.yul\":11706:12125   */\n    tag_70:\n        /* \"#utility.yul\":11872:11876   */\n      0x00\n        /* \"#utility.yul\":11910:11912   */\n      0x20\n        /* \"#utility.yul\":11899:11908   */\n      dup3\n        /* \"#utility.yul\":11895:11913   */\n      add\n        /* \"#utility.yul\":11887:11913   */\n      swap1\n      pop\n        /* \"#utility.yul\":11959:11968   */\n      dup2\n        /* \"#utility.yul\":11953:11957   */\n      dup2\n        /* \"#utility.yul\":11949:11969   */\n      sub\n        /* \"#utility.yul\":11945:11946   */\n      0x00\n        /* \"#utility.yul\":11934:11943   */\n      dup4\n        /* \"#utility.yul\":11930:11947   */\n      add\n        /* \"#utility.yul\":11923:11970   */\n      mstore\n        /* \"#utility.yul\":11987:12118   */\n      tag_383\n        /* \"#utility.yul\":12113:12117   */\n      dup2\n        /* \"#utility.yul\":11987:12118   */\n      tag_232\n      jump\t// in\n    tag_383:\n        /* \"#utility.yul\":11979:12118   */\n      swap1\n      pop\n        /* \"#utility.yul\":11706:12125   */\n      swap2\n      swap1\n      pop\n      jump\t// out\n        /* \"#utility.yul\":12131:12311   */\n    tag_233:\n        /* \"#utility.yul\":12179:12256   */\n      0x4e487b7100000000000000000000000000000000000000000000000000000000\n        /* \"#utility.yul\":12176:12177   */\n      0x00\n        /* \"#utility.yul\":12169:12257   */\n      mstore\n        /* \"#utility.yul\":12276:12280   */\n      0x11\n        /* \"#utility.yul\":12273:12274   */\n      0x04\n        /* \"#utility.yul\":12266:12281   */\n      mstore\n        /* \"#utility.yul\":12300:12304   */\n      0x24\n        /* \"#utility.yul\":12297:12298   */\n      0x00\n        /* \"#utility.yul\":12290:12305   */\n      revert\n        /* \"#utility.yul\":12317:12550   */\n    tag_72:\n        /* \"#utility.yul\":12356:12359   */\n      0x00\n        /* \"#utility.yul\":12379:12403   */\n      tag_386\n        /* \"#utility.yul\":12397:12402   */\n      dup3\n        /* \"#utility.yul\":12379:12403   */\n      tag_208\n      jump\t// in\n    tag_386:\n        /* \"#utility.yul\":12370:12403   */\n      swap2\n      pop\n        /* \"#utility.yul\":12425:12491   */\n      0xffffffffffffffffffffffffffffffffffffffffffffffffffffffffffffffff\n        /* \"#utility.yul\":12418:12423   */\n      dup3\n        /* \"#utility.yul\":12415:12492   */\n      sub\n        /* \"#utility.yul\":12412:12515   */\n      tag_387\n      jumpi\n        /* \"#utility.yul\":12495:12513   */\n      tag_388\n      tag_233\n      jump\t// in\n    tag_388:\n        /* \"#utility.yul\":12412:12515   */\n    tag_387:\n        /* \"#utility.yul\":12542:12543   */\n      0x01\n        /* \"#utility.yul\":12535:12540   */\n      dup3\n        /* \"#utility.yul\":12531:12544   */\n      add\n        /* \"#utility.yul\":12524:12544   */\n      swap1\n      pop\n        /* \"#utility.yul\":12317:12550   */\n      swap2\n      swap1\n      pop\n      jump\t// out\n        /* \"#utility.yul\":12556:12724   */\n    tag_234:\n        /* \"#utility.yul\":12639:12650   */\n      0x00\n        /* \"#utility.yul\":12673:12679   */\n      dup3\n        /* \"#utility.yul\":12668:12671   */\n      dup3\n        /* \"#utility.yul\":12661:12680   */\n      mstore\n        /* \"#utility.yul\":12713:12717   */\n      0x20\n        /* \"#utility.yul\":12708:12711   */\n      dup3\n        /* \"#utility.yul\":12704:12718   */\n      add\n        /* \"#utility.yul\":12689:12718   */\n      swap1\n      pop\n        /* \"#utility.yul\":12556:12724   */\n      swap3\n      swap2\n      pop\n      pop\n      jump\t// out\n        /* \"#utility.yul\":12730:12844   */\n    tag_235:\n      pop\n      jump\t// out\n        /* \"#utility.yul\":12850:13212   */\n    tag_236:\n        /* \"#utility.yul\":12991:12994   */\n      0x00\n        /* \"#utility.yul\":13012:13077   */\n      tag_392\n        /* \"#utility.yul\":13075:13076   */\n      0x00\n        /* \"#utility.yul\":13070:13073   */\n      dup4\n        /* \"#utility.yul\":13012:13077   */\n      tag_234\n      jump\t// in\n    tag_392:\n        /* \"#utility.yul\":13005:13077   */\n      swap2\n      pop\n        /* \"#utility.yul\":13086:13179   */\n      tag_393\n        /* \"#utility.yul\":13175:13178   */\n      dup3\n        /* \"#utility.yul\":13086:13179   */\n      tag_235\n      jump\t// in\n    tag_393:\n        /* \"#utility.yul\":13204:13205   */\n      0x00\n        /* \"#utility.yul\":13199:13202   */\n      dup3\n        /* \"#utility.yul\":13195:13206   */\n      add\n        /* \"#utility.yul\":13188:13206   */\n      swap1\n      pop\n        /* \"#utility.yul\":12850:13212   */\n      swap2\n      swap1\n      pop\n      jump\t// out\n        /* \"#utility.yul\":13218:14077   */\n    tag_77:\n        /* \"#utility.yul\":13495:13499   */\n      0x00\n        /* \"#utility.yul\":13533:13536   */\n      0xa0\n        /* \"#utility.yul\":13522:13531   */\n      dup3\n        /* \"#utility.yul\":13518:13537   */\n      add\n        /* \"#utility.yul\":13510:13537   */\n      swap1\n      pop\n        /* \"#utility.yul\":13547:13618   */\n      tag_395\n        /* \"#utility.yul\":13615:13616   */\n      0x00\n        /* \"#utility.yul\":13604:13613   */\n      dup4\n        /* \"#utility.yul\":13600:13617   */\n      add\n        /* \"#utility.yul\":13591:13597   */\n      dup8\n        /* \"#utility.yul\":13547:13618   */\n      tag_213\n      jump\t// in\n    tag_395:\n        /* \"#utility.yul\":13628:13700   */\n      tag_396\n        /* \"#utility.yul\":13696:13698   */\n      0x20\n        /* \"#utility.yul\":13685:13694   */\n      dup4\n        /* \"#utility.yul\":13681:13699   */\n      add\n        /* \"#utility.yul\":13672:13678   */\n      dup7\n        /* \"#utility.yul\":13628:13700   */\n      tag_213\n      jump\t// in\n    tag_396:\n        /* \"#utility.yul\":13710:13782   */\n      tag_397\n        /* \"#utility.yul\":13778:13780   */\n      0x40\n        /* \"#utility.yul\":13767:13776   */\n      dup4\n        /* \"#utility.yul\":13763:13781   */\n      add\n        /* \"#utility.yul\":13754:13760   */\n      dup6\n        /* \"#utility.yul\":13710:13782   */\n      tag_214\n      jump\t// in\n    tag_397:\n        /* \"#utility.yul\":13792:13864   */\n      tag_398\n        /* \"#utility.yul\":13860:13862   */\n      0x60\n        /* \"#utility.yul\":13849:13858   */\n      dup4\n        /* \"#utility.yul\":13845:13863   */\n      add\n        /* \"#utility.yul\":13836:13842   */\n      dup5\n        /* \"#utility.yul\":13792:13864   */\n      tag_214\n      jump\t// in\n    tag_398:\n        /* \"#utility.yul\":13912:13921   */\n      dup2\n        /* \"#utility.yul\":13906:13910   */\n      dup2\n        /* \"#utility.yul\":13902:13922   */\n      sub\n        /* \"#utility.yul\":13896:13899   */\n      0x80\n        /* \"#utility.yul\":13885:13894   */\n      dup4\n        /* \"#utility.yul\":13881:13900   */\n      add\n        /* \"#utility.yul\":13874:13923   */\n      mstore\n        /* \"#utility.yul\":13940:14070   */\n      tag_399\n        /* \"#utility.yul\":14065:14069   */\n      dup2\n        /* \"#utility.yul\":13940:14070   */\n      tag_236\n      jump\t// in\n    tag_399:\n        /* \"#utility.yul\":13932:14070   */\n      swap1\n      pop\n        /* \"#utility.yul\":13218:14077   */\n      swap6\n      swap5\n      pop\n      pop\n      pop\n      pop\n      pop\n      jump\t// out\n        /* \"#utility.yul\":14083:14636   */\n    tag_83:\n        /* \"#utility.yul\":14260:14264   */\n      0x00\n        /* \"#utility.yul\":14298:14301   */\n      0x80\n        /* \"#utility.yul\":14287:14296   */\n      dup3\n        /* \"#utility.yul\":14283:14302   */\n      add\n        /* \"#utility.yul\":14275:14302   */\n      swap1\n      pop\n        /* \"#utility.yul\":14312:14383   */\n      tag_401\n        /* \"#utility.yul\":14380:14381   */\n      0x00\n        /* \"#utility.yul\":14369:14378   */\n      dup4\n        /* \"#utility.yul\":14365:14382   */\n      add\n        /* \"#utility.yul\":14356:14362   */\n      dup8\n        /* \"#utility.yul\":14312:14383   */\n      tag_213\n      jump\t// in\n    tag_401:\n        /* \"#utility.yul\":14393:14465   */\n      tag_402\n        /* \"#utility.yul\":14461:14463   */\n      0x20\n        /* \"#utility.yul\":14450:14459   */\n      dup4\n        /* \"#utility.yul\":14446:14464   */\n      add\n        /* \"#utility.yul\":14437:14443   */\n      dup7\n        /* \"#utility.yul\":14393:14465   */\n      tag_214\n      jump\t// in\n    tag_402:\n        /* \"#utility.yul\":14475:14547   */\n      tag_403\n        /* \"#utility.yul\":14543:14545   */\n      0x40\n        /* \"#utility.yul\":14532:14541   */\n      dup4\n        /* \"#utility.yul\":14528:14546   */\n      add\n        /* \"#utility.yul\":14519:14525   */\n      dup6\n        /* \"#utility.yul\":14475:14547   */\n      tag_214\n      jump\t// in\n    tag_403:\n        /* \"#utility.yul\":14557:14629   */\n      tag_404\n        /* \"#utility.yul\":14625:14627   */\n      0x60\n        /* \"#utility.yul\":14614:14623   */\n      dup4\n        /* \"#utility.yul\":14610:14628   */\n      add\n        /* \"#utility.yul\":14601:14607   */\n      dup5\n        /* \"#utility.yul\":14557:14629   */\n      tag_214\n      jump\t// in\n    tag_404:\n        /* \"#utility.yul\":14083:14636   */\n      swap6\n      swap5\n      pop\n      pop\n      pop\n      pop\n      pop\n      jump\t// out\n        /* \"#utility.yul\":14642:14809   */\n    tag_237:\n        /* \"#utility.yul\":14782:14801   */\n      0x457363726f77206e6f7420616374697665000000000000000000000000000000\n        /* \"#utility.yul\":14778:14779   */\n      0x00\n        /* \"#utility.yul\":14770:14776   */\n      dup3\n        /* \"#utility.yul\":14766:14780   */\n      add\n        /* \"#utility.yul\":14759:14802   */\n      mstore\n        /* \"#utility.yul\":14642:14809   */\n      pop\n      jump\t// out\n        /* \"#utility.yul\":14815:15181   */\n    tag_238:\n        /* \"#utility.yul\":14957:14960   */\n      0x00\n        /* \"#utility.yul\":14978:15045   */\n      tag_407\n        /* \"#utility.yul\":15042:15044   */\n      0x11\n        /* \"#utility.yul\":15037:15040   */\n      dup4\n        /* \"#utility.yul\":14978:15045   */\n      tag_226\n      jump\t// in\n    tag_407:\n        /* \"#utility.yul\":14971:15045   */\n      swap2\n      pop\n        /* \"#utility.yul\":15054:15147   */\n      tag_408\n        /* \"#utility.yul\":15143:15146   */\n      dup3\n        /* \"#utility.yul\":15054:15147   */\n      tag_237\n      jump\t// in\n    tag_408:\n        /* \"#utility.yul\":15172:15174   */\n      0x20\n        /* \"#utility.yul\":15167:15170   */\n      dup3\n        /* \"#utility.yul\":15163:15175   */\n      add\n        /* \"#utility.yul\":15156:15175   */\n      swap1\n      pop\n        /* \"#utility.yul\":14815:15181   */\n      swap2\n      swap1\n      pop\n      jump\t// out\n        /* \"#utility.yul\":15187:15606   */\n    tag_91:\n        /* \"#utility.yul\":15353:15357   */\n      0x00\n        /* \"#utility.yul\":15391:15393   */\n      0x20\n        /* \"#utility.yul\":15380:15389   */\n      dup3\n        /* \"#utility.yul\":15376:15394   */\n      add\n        /* \"#utility.yul\":15368:15394   */\n      swap1\n      pop\n        /* \"#utility.yul\":15440:15449   */\n      dup2\n        /* \"#utility.yul\":15434:15438   */\n      dup2\n        /* \"#utility.yul\":15430:15450   */\n      sub\n        /* \"#utility.yul\":15426:15427   */\n      0x00\n        /* \"#utility.yul\":15415:15424   */\n      dup4\n        /* \"#utility.yul\":15411:15428   */\n      add\n        /* \"#utility.yul\":15404:15451   */\n      mstore\n        /* \"#utility.yul\":15468:15599   */\n      tag_410\n        /* \"#utility.yul\":15594:15598   */\n      dup2\n        /* \"#utility.yul\":15468:15599   */\n      tag_238\n      jump\t// in\n    tag_410:\n        /* \"#utility.yul\":15460:15599   */\n      swap1\n      pop\n        /* \"#utility.yul\":15187:15606   */\n      swap2\n      swap1\n      pop\n      jump\t// out\n        /* \"#utility.yul\":15612:15779   */\n    tag_239:\n        /* \"#utility.yul\":15752:15771   */\n      0x457363726f77206e6f742066756e646564000000000000000000000000000000\n        /* \"#utility.yul\":15748:15749   */\n      0x00\n        /* \"#utility.yul\":15740:15746   */\n      dup3\n        /* \"#utility.yul\":15736:15750   */\n      add\n        /* \"#utility.yul\":15729:15772   */\n      mstore\n        /* \"#utility.yul\":15612:15779   */\n      pop\n      jump\t// out\n        /* \"#utility.yul\":15785:16151   */\n    tag_240:\n        /* \"#utility.yul\":15927:15930   */\n      0x00\n        /* \"#utility.yul\":15948:16015   */\n      tag_413\n        /* \"#utility.yul\":16012:16014   */\n      0x11\n        /* \"#utility.yul\":16007:16010   */\n      dup4\n        /* \"#utility.yul\":15948:16015   */\n      tag_226\n      jump\t// in\n    tag_413:\n        /* \"#utility.yul\":15941:16015   */\n      swap2\n      pop\n        /* \"#utility.yul\":16024:16117   */\n      tag_414\n        /* \"#utility.yul\":16113:16116   */\n      dup3\n        /* \"#utility.yul\":16024:16117   */\n      tag_239\n      jump\t// in\n    tag_414:\n        /* \"#utility.yul\":16142:16144   */\n      0x20\n        /* \"#utility.yul\":16137:16140   */\n      dup3\n        /* \"#utility.yul\":16133:16145   */\n      add\n        /* \"#utility.yul\":16126:16145   */\n      swap1\n      pop\n        /* \"#utility.yul\":15785:16151   */\n      swap2\n      swap1\n      pop\n      jump\t// out\n        /* \"#utility.yul\":16157:16576   */\n    tag_94:\n        /* \"#utility.yul\":16323:16327   */\n      0x00\n        /* \"#utility.yul\":16361:16363   */\n      0x20\n        /* \"#utility.yul\":16350:16359   */\n      dup3\n        /* \"#utility.yul\":16346:16364   */\n      add\n        /* \"#utility.yul\":16338:16364   */\n      swap1\n      pop\n        /* \"#utility.yul\":16410:16419   */\n      dup2\n        /* \"#utility.yul\":16404:16408   */\n      dup2\n        /* \"#utility.yul\":16400:16420   */\n      sub\n        /* \"#utility.yul\":16396:16397   */\n      0x00\n        /* \"#utility.yul\":16385:16394   */\n      dup4\n        /* \"#utility.yul\":16381:16398   */\n      add\n        /* \"#utility.yul\":16374:16421   */\n      mstore\n        /* \"#utility.yul\":16438:16569   */\n      tag_416\n        /* \"#utility.yul\":16564:16568   */\n      dup2\n        /* \"#utility.yul\":16438:16569   */\n      tag_240\n      jump\t// in\n    tag_416:\n        /* \"#utility.yul\":16430:16569   */\n      swap1\n      pop\n        /* \"#utility.yul\":16157:16576   */\n      swap2\n      swap1\n      pop\n      jump\t// out\n        /* \"#utility.yul\":16582:16757   */\n    tag_241:\n        /* \"#utility.yul\":16722:16749   */\n      0x426f74682070617274696573206d75737420636f6e6669726d00000000000000\n        /* \"#utility.yul\":16718:16719   */\n      0x00\n        /* \"#utility.yul\":16710:16716   */\n      dup3\n        /* \"#utility.yul\":16706:16720   */\n      add\n        /* \"#utility.yul\":16699:16750   */\n      mstore\n        /* \"#utility.yul\":16582:16757   */\n      pop\n      jump\t// out\n        /* \"#utility.yul\":16763:17129   */\n    tag_242:\n        /* \"#utility.yul\":16905:16908   */\n      0x00\n        /* \"#utility.yul\":16926:16993   */\n      tag_419\n        /* \"#utility.yul\":16990:16992   */\n      0x19\n        /* \"#utility.yul\":16985:16988   */\n      dup4\n        /* \"#utility.yul\":16926:16993   */\n      tag_226\n      jump\t// in\n    tag_419:\n        /* \"#utility.yul\":16919:16993   */\n      swap2\n      pop\n        /* \"#utility.yul\":17002:17095   */\n      tag_420\n        /* \"#utility.yul\":17091:17094   */\n      dup3\n        /* \"#utility.yul\":17002:17095   */\n      tag_241\n      jump\t// in\n    tag_420:\n        /* \"#utility.yul\":17120:17122   */\n      0x20\n        /* \"#utility.yul\":17115:17118   */\n      dup3\n        /* \"#utility.yul\":17111:17123   */\n      add\n        /* \"#utility.yul\":17104:17123   */\n      swap1\n      pop\n        /* \"#utility.yul\":16763:17129   */\n      swap2\n      swap1\n      pop\n      jump\t// out\n        /* \"#utility.yul\":17135:17554   */\n    tag_98:\n        /* \"#utility.yul\":17301:17305   */\n      0x00\n        /* \"#utility.yul\":17339:17341   */\n      0x20\n        /* \"#utility.yul\":17328:17337   */\n      dup3\n        /* \"#utility.yul\":17324:17342   */\n      add\n        /* \"#utility.yul\":17316:17342   */\n      swap1\n      pop\n        /* \"#utility.yul\":17388:17397   */\n      dup2\n        /* \"#utility.yul\":17382:17386   */\n      dup2\n        /* \"#utility.yul\":17378:17398   */\n      sub\n        /* \"#utility.yul\":17374:17375   */\n      0x00\n        /* \"#utility.yul\":17363:17372   */\n      dup4\n        /* \"#utility.yul\":17359:17376   */\n      add\n        /* \"#utility.yul\":17352:17399   */\n      mstore\n        /* \"#utility.yul\":17416:17547   */\n      tag_422\n        /* \"#utility.yul\":17542:17546   */\n      dup2\n        /* \"#utility.yul\":17416:17547   */\n      tag_242\n      jump\t// in\n    tag_422:\n        /* \"#utility.yul\":17408:17547   */\n      swap1\n      pop\n        /* \"#utility.yul\":17135:17554   */\n      swap2\n      swap1\n      pop\n      jump\t// out\n        /* \"#utility.yul\":17560:17780   */\n    tag_243:\n        /* \"#utility.yul\":17700:17734   */\n      0x4f6e6c792073656c6c6572206f722062757965722063616e2066696e616c697a\n        /* \"#utility.yul\":17696:17697   */\n      0x00\n        /* \"#utility.yul\":17688:17694   */\n      dup3\n        /* \"#utility.yul\":17684:17698   */\n      add\n        /* \"#utility.yul\":17677:17735   */\n      mstore\n        /* \"#utility.yul\":17769:17772   */\n      0x6500000000000000000000000000000000000000000000000000000000000000\n        /* \"#utility.yul\":17764:17766   */\n      0x20\n        /* \"#utility.yul\":17756:17762   */\n      dup3\n        /* \"#utility.yul\":17752:17767   */\n      add\n        /* \"#utility.yul\":17745:17773   */\n      mstore\n        /* \"#utility.yul\":17560:17780   */\n      pop\n      jump\t// out\n        /* \"#utility.yul\":17786:18152   */\n    tag_244:\n        /* \"#utility.yul\":17928:17931   */\n      0x00\n        /* \"#utility.yul\":17949:18016   */\n      tag_425\n        /* \"#utility.yul\":18013:18015   */\n      0x21\n        /* \"#utility.yul\":18008:18011   */\n      dup4\n        /* \"#utility.yul\":17949:18016   */\n      tag_226\n      jump\t// in\n    tag_425:\n        /* \"#utility.yul\":17942:18016   */\n      swap2\n      pop\n        /* \"#utility.yul\":18025:18118   */\n      tag_426\n        /* \"#utility.yul\":18114:18117   */\n      dup3\n        /* \"#utility.yul\":18025:18118   */\n      tag_243\n      jump\t// in\n    tag_426:\n        /* \"#utility.yul\":18143:18145   */\n      0x40\n        /* \"#utility.yul\":18138:18141   */\n      dup3\n        /* \"#utility.yul\":18134:18146   */\n      add\n        /* \"#utility.yul\":18127:18146   */\n      swap1\n      pop\n        /* \"#utility.yul\":17786:18152   */\n      swap2\n      swap1\n      pop\n      jump\t// out\n        /* \"#utility.yul\":18158:18577   */\n    tag_104:\n        /* \"#utility.yul\":18324:18328   */\n      0x00\n        /* \"#utility.yul\":18362:18364   */\n      0x20\n        /* \"#utility.yul\":18351:18360   */\n      dup3\n        /* \"#utility.yul\":18347:18365   */\n      add\n        /* \"#utility.yul\":18339:18365   */\n      swap1\n      pop\n        /* \"#utility.yul\":18411:18420   */\n      dup2\n        /* \"#utility.yul\":18405:18409   */\n      dup2\n        /* \"#utility.yul\":18401:18421   */\n      sub\n        /* \"#utility.yul\":18397:18398   */\n      0x00\n        /* \"#utility.yul\":18386:18395   */\n      dup4\n        /* \"#utility.yul\":18382:18399   */\n      add\n        /* \"#utility.yul\":18375:18422   */\n      mstore\n        /* \"#utility.yul\":18439:18570   */\n      tag_428\n        /* \"#utility.yul\":18565:18569   */\n      dup2\n        /* \"#utility.yul\":18439:18570   */\n      tag_244\n      jump\t// in\n    tag_428:\n        /* \"#utility.yul\":18431:18570   */\n      swap1\n      pop\n        /* \"#utility.yul\":18158:18577   */\n      swap2\n      swap1\n      pop\n      jump\t// out\n        /* \"#utility.yul\":18583:18757   */\n    tag_245:\n        /* \"#utility.yul\":18723:18749   */\n      0x457363726f7720616c726561647920636f6d706c657465640000000000000000\n        /* \"#utility.yul\":18719:18720   */\n      0x00\n        /* \"#utility.yul\":18711:18717   */\n      dup3\n        /* \"#utility.yul\":18707:18721   */\n      add\n        /* \"#utility.yul\":18700:18750   */\n      mstore\n        /* \"#utility.yul\":18583:18757   */\n      pop\n      jump\t// out\n        /* \"#utility.yul\":18763:19129   */\n    tag_246:\n        /* \"#utility.yul\":18905:18908   */\n      0x00\n        /* \"#utility.yul\":18926:18993   */\n      tag_431\n        /* \"#utility.yul\":18990:18992   */\n      0x18\n        /* \"#utility.yul\":18985:18988   */\n      dup4\n        /* \"#utility.yul\":18926:18993   */\n      tag_226\n      jump\t// in\n    tag_431:\n        /* \"#utility.yul\":18919:18993   */\n      swap2\n      pop\n        /* \"#utility.yul\":19002:19095   */\n      tag_432\n        /* \"#utility.yul\":19091:19094   */\n      dup3\n        /* \"#utility.yul\":19002:19095   */\n      tag_245\n      jump\t// in\n    tag_432:\n        /* \"#utility.yul\":19120:19122   */\n      0x20\n        /* \"#utility.yul\":19115:19118   */\n      dup3\n        /* \"#utility.yul\":19111:19123   */\n      add\n        /* \"#utility.yul\":19104:19123   */\n      swap1\n      pop\n        /* \"#utility.yul\":18763:19129   */\n      swap2\n      swap1\n      pop\n      jump\t// out\n        /* \"#utility.yul\":19135:19554   */\n    tag_118:\n        /* \"#utility.yul\":19301:19305   */\n      0x00\n        /* \"#utility.yul\":19339:19341   */\n      0x20\n        /* \"#utility.yul\":19328:19337   */\n      dup3\n        /* \"#utility.yul\":19324:19342   */\n      add\n        /* \"#utility.yul\":19316:19342   */\n      swap1\n      pop\n        /* \"#utility.yul\":19388:19397   */\n      dup2\n        /* \"#utility.yul\":19382:19386   */\n      dup2\n        /* \"#utility.yul\":19378:19398   */\n      sub\n        /* \"#utility.yul\":19374:19375   */\n      0x00\n        /* \"#utility.yul\":19363:19372   */\n      dup4\n        /* \"#utility.yul\":19359:19376   */\n      add\n        /* \"#utility.yul\":19352:19399   */\n      mstore\n        /* \"#utility.yul\":19416:19547   */\n      tag_434\n        /* \"#utility.yul\":19542:19546   */\n      dup2\n        /* \"#utility.yul\":19416:19547   */\n      tag_246\n      jump\t// in\n    tag_434:\n        /* \"#utility.yul\":19408:19547   */\n      swap1\n      pop\n        /* \"#utility.yul\":19135:19554   */\n      swap2\n      swap1\n      pop\n      jump\t// out\n        /* \"#utility.yul\":19560:19736   */\n    tag_247:\n        /* \"#utility.yul\":19700:19728   */\n      0x4f6e6c792062757965722063616e2066756e6420657363726f77000000000000\n        /* \"#utility.yul\":19696:19697   */\n      0x00\n        /* \"#utility.yul\":19688:19694   */\n      dup3\n        /* \"#utility.yul\":19684:19698   */\n      add\n        /* \"#utility.yul\":19677:19729   */\n      mstore\n        /* \"#utility.yul\":19560:19736   */\n      pop\n      jump\t// out\n        /* \"#utility.yul\":19742:20108   */\n    tag_248:\n        /* \"#utility.yul\":19884:19887   */\n      0x00\n        /* \"#utility.yul\":19905:19972   */\n      tag_437\n        /* \"#utility.yul\":19969:19971   */\n      0x1a\n        /* \"#utility.yul\":19964:19967   */\n      dup4\n        /* \"#utility.yul\":19905:19972   */\n      tag_226\n      jump\t// in\n    tag_437:\n        /* \"#utility.yul\":19898:19972   */\n      swap2\n      pop\n        /* \"#utility.yul\":19981:20074   */\n      tag_438\n        /* \"#utility.yul\":20070:20073   */\n      dup3\n        /* \"#utility.yul\":19981:20074   */\n      tag_247\n      jump\t// in\n    tag_438:\n        /* \"#utility.yul\":20099:20101   */\n      0x20\n        /* \"#utility.yul\":20094:20097   */\n      dup3\n        /* \"#utility.yul\":20090:20102   */\n      add\n        /* \"#utility.yul\":20083:20102   */\n      swap1\n      pop\n        /* \"#utility.yul\":19742:20108   */\n      swap2\n      swap1\n      pop\n      jump\t// out\n        /* \"#utility.yul\":20114:20533   */\n    tag_122:\n        /* \"#utility.yul\":20280:20284   */\n      0x00\n        /* \"#utility.yul\":20318:20320   */\n      0x20\n        /* \"#utility.yul\":20307:20316   */\n      dup3\n        /* \"#utility.yul\":20303:20321   */\n      add\n        /* \"#utility.yul\":20295:20321   */\n      swap1\n      pop\n        /* \"#utility.yul\":20367:20376   */\n      dup2\n        /* \"#utility.yul\":20361:20365   */\n      dup2\n        /* \"#utility.yul\":20357:20377   */\n      sub\n        /* \"#utility.yul\":20353:20354   */\n      0x00\n        /* \"#utility.yul\":20342:20351   */\n      dup4\n        /* \"#utility.yul\":20338:20355   */\n      add\n        /* \"#utility.yul\":20331:20378   */\n      mstore\n        /* \"#utility.yul\":20395:20526   */\n      tag_440\n        /* \"#utility.yul\":20521:20525   */\n      dup2\n        /* \"#utility.yul\":20395:20526   */\n      tag_248\n      jump\t// in\n    tag_440:\n        /* \"#utility.yul\":20387:20526   */\n      swap1\n      pop\n        /* \"#utility.yul\":20114:20533   */\n      swap2\n      swap1\n      pop\n      jump\t// out\n        /* \"#utility.yul\":20539:20703   */\n    tag_249:\n        /* \"#utility.yul\":20679:20695   */\n      0x416c72656164792066756e646564000000000000000000000000000000000000\n        /* \"#utility.yul\":20675:20676   */\n      0x00\n        /* \"#utility.yul\":20667:20673   */\n      dup3\n        /* \"#utility.yul\":20663:20677   */\n      add\n        /* \"#utility.yul\":20656:20696   */\n      mstore\n        /* \"#utility.yul\":20539:20703   */\n      pop\n      jump\t// out\n        /* \"#utility.yul\":20709:21075   */\n    tag_250:\n        /* \"#utility.yul\":20851:20854   */\n      0x00\n        /* \"#utility.yul\":20872:20939   */\n      tag_443\n        /* \"#utility.yul\":20936:20938   */\n      0x0e\n        /* \"#utility.yul\":20931:20934   */\n      dup4\n        /* \"#utility.yul\":20872:20939   */\n      tag_226\n      jump\t// in\n    tag_443:\n        /* \"#utility.yul\":20865:20939   */\n      swap2\n      pop\n        /* \"#utility.yul\":20948:21041   */\n      tag_444\n        /* \"#utility.yul\":21037:21040   */\n      dup3\n        /* \"#utility.yul\":20948:21041   */\n      tag_249\n      jump\t// in\n    tag_444:\n        /* \"#utility.yul\":21066:21068   */\n      0x20\n        /* \"#utility.yul\":21061:21064   */\n      dup3\n        /* \"#utility.yul\":21057:21069   */\n      add\n        /* \"#utility.yul\":21050:21069   */\n      swap1\n      pop\n        /* \"#utility.yul\":20709:21075   */\n      swap2\n      swap1\n      pop\n      jump\t// out\n        /* \"#utility.yul\":21081:21500   */\n    tag_125:\n        /* \"#utility.yul\":21247:21251   */\n      0x00\n        /* \"#utility.yul\":21285:21287   */\n      0x20\n        /* \"#utility.yul\":21274:21283   */\n      dup3\n        /* \"#utility.yul\":21270:21288   */\n      add\n        /* \"#utility.yul\":21262:21288   */\n      swap1\n      pop\n        /* \"#utility.yul\":21334:21343   */\n      dup2\n        /* \"#utility.yul\":21328:21332   */\n      dup2\n        /* \"#utility.yul\":21324:21344   */\n      sub\n        /* \"#utility.yul\":21320:21321   */\n      0x00\n        /* \"#utility.yul\":21309:21318   */\n      dup4\n        /* \"#utility.yul\":21305:21322   */\n      add\n        /* \"#utility.yul\":21298:21345   */\n      mstore\n        /* \"#utility.yul\":21362:21493   */\n      tag_446\n        /* \"#utility.yul\":21488:21492   */\n      dup2\n        /* \"#utility.yul\":21362:21493   */\n      tag_250\n      jump\t// in\n    tag_446:\n        /* \"#utility.yul\":21354:21493   */\n      swap1\n      pop\n        /* \"#utility.yul\":21081:21500   */\n      swap2\n      swap1\n      pop\n      jump\t// out\n        /* \"#utility.yul\":21506:21674   */\n    tag_251:\n        /* \"#utility.yul\":21646:21666   */\n      0x496e76616c69642045544820616d6f756e740000000000000000000000000000\n        /* \"#utility.yul\":21642:21643   */\n      0x00\n        /* \"#utility.yul\":21634:21640   */\n      dup3\n        /* \"#utility.yul\":21630:21644   */\n      add\n        /* \"#utility.yul\":21623:21667   */\n      mstore\n        /* \"#utility.yul\":21506:21674   */\n      pop\n      jump\t// out\n        /* \"#utility.yul\":21680:22046   */\n    tag_252:\n        /* \"#utility.yul\":21822:21825   */\n      0x00\n        /* \"#utility.yul\":21843:21910   */\n      tag_449\n        /* \"#utility.yul\":21907:21909   */\n      0x12\n        /* \"#utility.yul\":21902:21905   */\n      dup4\n        /* \"#utility.yul\":21843:21910   */\n      tag_226\n      jump\t// in\n    tag_449:\n        /* \"#utility.yul\":21836:21910   */\n      swap2\n      pop\n        /* \"#utility.yul\":21919:22012   */\n      tag_450\n        /* \"#utility.yul\":22008:22011   */\n      dup3\n        /* \"#utility.yul\":21919:22012   */\n      tag_251\n      jump\t// in\n    tag_450:\n        /* \"#utility.yul\":22037:22039   */\n      0x20\n        /* \"#utility.yul\":22032:22035   */\n      dup3\n        /* \"#utility.yul\":22028:22040   */\n      add\n        /* \"#utility.yul\":22021:22040   */\n      swap1\n      pop\n        /* \"#utility.yul\":21680:22046   */\n      swap2\n      swap1\n      pop\n      jump\t// out\n        /* \"#utility.yul\":22052:22471   */\n    tag_128:\n        /* \"#utility.yul\":22218:22222   */\n      0x00\n        /* \"#utility.yul\":22256:22258   */\n      0x20\n        /* \"#utility.yul\":22245:22254   */\n      dup3\n        /* \"#utility.yul\":22241:22259   */\n      add\n        /* \"#utility.yul\":22233:22259   */\n      swap1\n      pop\n        /* \"#utility.yul\":22305:22314   */\n      dup2\n        /* \"#utility.yul\":22299:22303   */\n      dup2\n        /* \"#utility.yul\":22295:22315   */\n      sub\n        /* \"#utility.yul\":22291:22292   */\n      0x00\n        /* \"#utility.yul\":22280:22289   */\n      dup4\n        /* \"#utility.yul\":22276:22293   */\n      add\n        /* \"#utility.yul\":22269:22316   */\n      mstore\n        /* \"#utility.yul\":22333:22464   */\n      tag_452\n        /* \"#utility.yul\":22459:22463   */\n      dup2\n        /* \"#utility.yul\":22333:22464   */\n      tag_252\n      jump\t// in\n    tag_452:\n        /* \"#utility.yul\":22325:22464   */\n      swap1\n      pop\n        /* \"#utility.yul\":22052:22471   */\n      swap2\n      swap1\n      pop\n      jump\t// out\n        /* \"#utility.yul\":22477:22651   */\n    tag_253:\n        /* \"#utility.yul\":22617:22643   */\n      0x53656c6c657220616c726561647920636f6e6669726d65640000000000000000\n        /* \"#utility.yul\":22613:22614   */\n      0x00\n        /* \"#utility.yul\":22605:22611   */\n      dup3\n        /* \"#utility.yul\":22601:22615   */\n      add\n        /* \"#utility.yul\":22594:22644   */\n      mstore\n        /* \"#utility.yul\":22477:22651   */\n      pop\n      jump\t// out\n        /* \"#utility.yul\":22657:23023   */\n    tag_254:\n        /* \"#utility.yul\":22799:22802   */\n      0x00\n        /* \"#utility.yul\":22820:22887   */\n      tag_455\n        /* \"#utility.yul\":22884:22886   */\n      0x18\n        /* \"#utility.yul\":22879:22882   */\n      dup4\n        /* \"#utility.yul\":22820:22887   */\n      tag_226\n      jump\t// in\n    tag_455:\n        /* \"#utility.yul\":22813:22887   */\n      swap2\n      pop\n        /* \"#utility.yul\":22896:22989   */\n      tag_456\n        /* \"#utility.yul\":22985:22988   */\n      dup3\n        /* \"#utility.yul\":22896:22989   */\n      tag_253\n      jump\t// in\n    tag_456:\n        /* \"#utility.yul\":23014:23016   */\n      0x20\n        /* \"#utility.yul\":23009:23012   */\n      dup3\n        /* \"#utility.yul\":23005:23017   */\n      add\n        /* \"#utility.yul\":22998:23017   */\n      swap1\n      pop\n        /* \"#utility.yul\":22657:23023   */\n      swap2\n      swap1\n      pop\n      jump\t// out\n        /* \"#utility.yul\":23029:23448   */\n    tag_144:\n        /* \"#utility.yul\":23195:23199   */\n      0x00\n        /* \"#utility.yul\":23233:23235   */\n      0x20\n        /* \"#utility.yul\":23222:23231   */\n      dup3\n        /* \"#utility.yul\":23218:23236   */\n      add\n        /* \"#utility.yul\":23210:23236   */\n      swap1\n      pop\n        /* \"#utility.yul\":23282:23291   */\n      dup2\n        /* \"#utility.yul\":23276:23280   */\n      dup2\n        /* \"#utility.yul\":23272:23292   */\n      sub\n        /* \"#utility.yul\":23268:23269   */\n      0x00\n        /* \"#utility.yul\":23257:23266   */\n      dup4\n        /* \"#utility.yul\":23253:23270   */\n      add\n        /* \"#utility.yul\":23246:23293   */\n      mstore\n        /* \"#utility.yul\":23310:23441   */\n      tag_458\n        /* \"#utility.yul\":23436:23440   */\n      dup2\n        /* \"#utility.yul\":23310:23441   */\n      tag_254\n      jump\t// in\n    tag_458:\n        /* \"#utility.yul\":23302:23441   */\n      swap1\n      pop\n        /* \"#utility.yul\":23029:23448   */\n      swap2\n      swap1\n      pop\n      jump\t// out\n        /* \"#utility.yul\":23454:23627   */\n    tag_255:\n        /* \"#utility.yul\":23594:23619   */\n      0x427579657220616c726561647920636f6e6669726d6564000000000000000000\n        /* \"#utility.yul\":23590:23591   */\n      0x00\n        /* \"#utility.yul\":23582:23588   */\n      dup3\n        /* \"#utility.yul\":23578:23592   */\n      add\n        /* \"#utility.yul\":23571:23620   */\n      mstore\n        /* \"#utility.yul\":23454:23627   */\n      pop\n      jump\t// out\n        /* \"#utility.yul\":23633:23999   */\n    tag_256:\n        /* \"#utility.yul\":23775:23778   */\n      0x00\n        /* \"#utility.yul\":23796:23863   */\n      tag_461\n        /* \"#utility.yul\":23860:23862   */\n      0x17\n        /* \"#utility.yul\":23855:23858   */\n      dup4\n        /* \"#utility.yul\":23796:23863   */\n      tag_226\n      jump\t// in\n    tag_461:\n        /* \"#utility.yul\":23789:23863   */\n      swap2\n      pop\n        /* \"#utility.yul\":23872:23965   */\n      tag_462\n        /* \"#utility.yul\":23961:23964   */\n      dup3\n        /* \"#utility.yul\":23872:23965   */\n      tag_255\n      jump\t// in\n    tag_462:\n        /* \"#utility.yul\":23990:23992   */\n      0x20\n        /* \"#utility.yul\":23985:23988   */\n      dup3\n        /* \"#utility.yul\":23981:23993   */\n      add\n        /* \"#utility.yul\":23974:23993   */\n      swap1\n      pop\n        /* \"#utility.yul\":23633:23999   */\n      swap2\n      swap1\n      pop\n      jump\t// out\n        /* \"#utility.yul\":24005:24424   */\n    tag_150:\n        /* \"#utility.yul\":24171:24175   */\n      0x00\n        /* \"#utility.yul\":24209:24211   */\n      0x20\n        /* \"#utility.yul\":24198:24207   */\n      dup3\n        /* \"#utility.yul\":24194:24212   */\n      add\n        /* \"#utility.yul\":24186:24212   */\n      swap1\n      pop\n        /* \"#utility.yul\":24258:24267   */\n      dup2\n        /* \"#utility.yul\":24252:24256   */\n      dup2\n        /* \"#utility.yul\":24248:24268   */\n      sub\n        /* \"#utility.yul\":24244:24245   */\n      0x00\n        /* \"#utility.yul\":24233:24242   */\n      dup4\n        /* \"#utility.yul\":24229:24246   */\n      add\n        /* \"#utility.yul\":24222:24269   */\n      mstore\n        /* \"#utility.yul\":24286:24417   */\n      tag_464\n        /* \"#utility.yul\":24412:24416   */\n      dup2\n        /* \"#utility.yul\":24286:24417   */\n      tag_256\n      jump\t// in\n    tag_464:\n        /* \"#utility.yul\":24278:24417   */\n      swap1\n      pop\n        /* \"#utility.yul\":24005:24424   */\n      swap2\n      swap1\n      pop\n      jump\t// out\n        /* \"#utility.yul\":24430:24612   */\n    tag_257:\n        /* \"#utility.yul\":24570:24604   */\n      0x4f6e6c792073656c6c6572206f722062757965722063616e20636f6e6669726d\n        /* \"#utility.yul\":24566:24567   */\n      0x00\n        /* \"#utility.yul\":24558:24564   */\n      dup3\n        /* \"#utility.yul\":24554:24568   */\n      add\n        /* \"#utility.yul\":24547:24605   */\n      mstore\n        /* \"#utility.yul\":24430:24612   */\n      pop\n      jump\t// out\n        /* \"#utility.yul\":24618:24984   */\n    tag_258:\n        /* \"#utility.yul\":24760:24763   */\n      0x00\n        /* \"#utility.yul\":24781:24848   */\n      tag_467\n        /* \"#utility.yul\":24845:24847   */\n      0x20\n        /* \"#utility.yul\":24840:24843   */\n      dup4\n        /* \"#utility.yul\":24781:24848   */\n      tag_226\n      jump\t// in\n    tag_467:\n        /* \"#utility.yul\":24774:24848   */\n      swap2\n      pop\n        /* \"#utility.yul\":24857:24950   */\n      tag_468\n        /* \"#utility.yul\":24946:24949   */\n      dup3\n        /* \"#utility.yul\":24857:24950   */\n      tag_257\n      jump\t// in\n    tag_468:\n        /* \"#utility.yul\":24975:24977   */\n      0x20\n        /* \"#utility.yul\":24970:24973   */\n      dup3\n        /* \"#utility.yul\":24966:24978   */\n      add\n        /* \"#utility.yul\":24959:24978   */\n      swap1\n      pop\n        /* \"#utility.yul\":24618:24984   */\n      swap2\n      swap1\n      pop\n      jump\t// out\n        /* \"#utility.yul\":24990:25409   */\n    tag_153:\n        /* \"#utility.yul\":25156:25160   */\n      0x00\n        /* \"#utility.yul\":25194:25196   */\n      0x20\n        /* \"#utility.yul\":25183:25192   */\n      dup3\n        /* \"#utility.yul\":25179:25197   */\n      add\n        /* \"#utility.yul\":25171:25197   */\n      swap1\n      pop\n        /* \"#utility.yul\":25243:25252   */\n      dup2\n        /* \"#utility.yul\":25237:25241   */\n      dup2\n        /* \"#utility.yul\":25233:25253   */\n      sub\n        /* \"#utility.yul\":25229:25230   */\n      0x00\n        /* \"#utility.yul\":25218:25227   */\n      dup4\n        /* \"#utility.yul\":25214:25231   */\n      add\n        /* \"#utility.yul\":25207:25254   */\n      mstore\n        /* \"#utility.yul\":25271:25402   */\n      tag_470\n        /* \"#utility.yul\":25397:25401   */\n      dup2\n        /* \"#utility.yul\":25271:25402   */\n      tag_258\n      jump\t// in\n    tag_470:\n        /* \"#utility.yul\":25263:25402   */\n      swap1\n      pop\n        /* \"#utility.yul\":24990:25409   */\n      swap2\n      swap1\n      pop\n      jump\t// out\n        /* \"#utility.yul\":25415:25596   */\n    tag_259:\n        /* \"#utility.yul\":25555:25588   */\n      0x4f6e6c792073656c6c6572206f722062757965722063616e2063616e63656c00\n        /* \"#utility.yul\":25551:25552   */\n      0x00\n        /* \"#utility.yul\":25543:25549   */\n      dup3\n        /* \"#utility.yul\":25539:25553   */\n      add\n        /* \"#utility.yul\":25532:25589   */\n      mstore\n        /* \"#utility.yul\":25415:25596   */\n      pop\n      jump\t// out\n        /* \"#utility.yul\":25602:25968   */\n    tag_260:\n        /* \"#utility.yul\":25744:25747   */\n      0x00\n        /* \"#utility.yul\":25765:25832   */\n      tag_473\n        /* \"#utility.yul\":25829:25831   */\n      0x1f\n        /* \"#utility.yul\":25824:25827   */\n      dup4\n        /* \"#utility.yul\":25765:25832   */\n      tag_226\n      jump\t// in\n    tag_473:\n        /* \"#utility.yul\":25758:25832   */\n      swap2\n      pop\n        /* \"#utility.yul\":25841:25934   */\n      tag_474\n        /* \"#utility.yul\":25930:25933   */\n      dup3\n        /* \"#utility.yul\":25841:25934   */\n      tag_259\n      jump\t// in\n    tag_474:\n        /* \"#utility.yul\":25959:25961   */\n      0x20\n        /* \"#utility.yul\":25954:25957   */\n      dup3\n        /* \"#utility.yul\":25950:25962   */\n      add\n        /* \"#utility.yul\":25943:25962   */\n      swap1\n      pop\n        /* \"#utility.yul\":25602:25968   */\n      swap2\n      swap1\n      pop\n      jump\t// out\n        /* \"#utility.yul\":25974:26393   */\n    tag_170:\n        /* \"#utility.yul\":26140:26144   */\n      0x00\n        /* \"#utility.yul\":26178:26180   */\n      0x20\n        /* \"#utility.yul\":26167:26176   */\n      dup3\n        /* \"#utility.yul\":26163:26181   */\n      add\n        /* \"#utility.yul\":26155:26181   */\n      swap1\n      pop\n        /* \"#utility.yul\":26227:26236   */\n      dup2\n        /* \"#utility.yul\":26221:26225   */\n      dup2\n        /* \"#utility.yul\":26217:26237   */\n      sub\n        /* \"#utility.yul\":26213:26214   */\n      0x00\n        /* \"#utility.yul\":26202:26211   */\n      dup4\n        /* \"#utility.yul\":26198:26215   */\n      add\n        /* \"#utility.yul\":26191:26238   */\n      mstore\n        /* \"#utility.yul\":26255:26386   */\n      tag_476\n        /* \"#utility.yul\":26381:26385   */\n      dup2\n        /* \"#utility.yul\":26255:26386   */\n      tag_260\n      jump\t// in\n    tag_476:\n        /* \"#utility.yul\":26247:26386   */\n      swap1\n      pop\n        /* \"#utility.yul\":25974:26393   */\n      swap2\n      swap1\n      pop\n      jump\t// out\n        /* \"#utility.yul\":26399:26546   */\n    tag_261:\n        /* \"#utility.yul\":26500:26511   */\n      0x00\n        /* \"#utility.yul\":26537:26540   */\n      dup2\n        /* \"#utility.yul\":26522:26540   */\n      swap1\n      pop\n        /* \"#utility.yul\":26399:26546   */\n      swap3\n      swap2\n      pop\n      pop\n      jump\t// out\n        /* \"#utility.yul\":26552:26950   */\n    tag_262:\n        /* \"#utility.yul\":26711:26714   */\n      0x00\n        /* \"#utility.yul\":26732:26815   */\n      tag_479\n        /* \"#utility.yul\":26813:26814   */\n      0x00\n        /* \"#utility.yul\":26808:26811   */\n      dup4\n        /* \"#utility.yul\":26732:26815   */\n      tag_261\n      jump\t// in\n    tag_479:\n        /* \"#utility.yul\":26725:26815   */\n      swap2\n      pop\n        /* \"#utility.yul\":26824:26917   */\n      tag_480\n        /* \"#utility.yul\":26913:26916   */\n      dup3\n        /* \"#utility.yul\":26824:26917   */\n      tag_235\n      jump\t// in\n    tag_480:\n        /* \"#utility.yul\":26942:26943   */\n      0x00\n        /* \"#utility.yul\":26937:26940   */\n      dup3\n        /* \"#utility.yul\":26933:26944   */\n      add\n        /* \"#utility.yul\":26926:26944   */\n      swap1\n      pop\n        /* \"#utility.yul\":26552:26950   */\n      swap2\n      swap1\n      pop\n      jump\t// out\n        /* \"#utility.yul\":26956:27335   */\n    tag_173:\n        /* \"#utility.yul\":27140:27143   */\n      0x00\n        /* \"#utility.yul\":27162:27309   */\n      tag_482\n        /* \"#utility.yul\":27305:27308   */\n      dup3\n        /* \"#utility.yul\":27162:27309   */\n      tag_262\n      jump\t// in\n    tag_482:\n        /* \"#utility.yul\":27155:27309   */\n      swap2\n      pop\n        /* \"#utility.yul\":27326:27329   */\n      dup2\n        /* \"#utility.yul\":27319:27329   */\n      swap1\n      pop\n        /* \"#utility.yul\":26956:27335   */\n      swap2\n      swap1\n      pop\n      jump\t// out\n        /* \"#utility.yul\":27341:27513   */\n    tag_263:\n        /* \"#utility.yul\":27481:27505   */\n      0x526566756e6420746f206275796572206661696c656400000000000000000000\n        /* \"#utility.yul\":27477:27478   */\n      0x00\n        /* \"#utility.yul\":27469:27475   */\n      dup3\n        /* \"#utility.yul\":27465:27479   */\n      add\n        /* \"#utility.yul\":27458:27506   */\n      mstore\n        /* \"#utility.yul\":27341:27513   */\n      pop\n      jump\t// out\n        /* \"#utility.yul\":27519:27885   */\n    tag_264:\n        /* \"#utility.yul\":27661:27664   */\n      0x00\n        /* \"#utility.yul\":27682:27749   */\n      tag_485\n        /* \"#utility.yul\":27746:27748   */\n      0x16\n        /* \"#utility.yul\":27741:27744   */\n      dup4\n        /* \"#utility.yul\":27682:27749   */\n      tag_226\n      jump\t// in\n    tag_485:\n        /* \"#utility.yul\":27675:27749   */\n      swap2\n      pop\n        /* \"#utility.yul\":27758:27851   */\n      tag_486\n        /* \"#utility.yul\":27847:27850   */\n      dup3\n        /* \"#utility.yul\":27758:27851   */\n      tag_263\n      jump\t// in\n    tag_486:\n        /* \"#utility.yul\":27876:27878   */\n      0x20\n        /* \"#utility.yul\":27871:27874   */\n      dup3\n        /* \"#utility.yul\":27867:27879   */\n      add\n        /* \"#utility.yul\":27860:27879   */\n      swap1\n      pop\n        /* \"#utility.yul\":27519:27885   */\n      swap2\n      swap1\n      pop\n      jump\t// out\n        /* \"#utility.yul\":27891:28310   */\n    tag_179:\n        /* \"#utility.yul\":28057:28061   */\n      0x00\n        /* \"#utility.yul\":28095:28097   */\n      0x20\n        /* \"#utility.yul\":28084:28093   */\n      dup3\n        /* \"#utility.yul\":28080:28098   */\n      add\n        /* \"#utility.yul\":28072:28098   */\n      swap1\n      pop\n        /* \"#utility.yul\":28144:28153   */\n      dup2\n        /* \"#utility.yul\":28138:28142   */\n      dup2\n        /* \"#utility.yul\":28134:28154   */\n      sub\n        /* \"#utility.yul\":28130:28131   */\n      0x00\n        /* \"#utility.yul\":28119:28128   */\n      dup4\n        /* \"#utility.yul\":28115:28132   */\n      add\n        /* \"#utility.yul\":28108:28155   */\n      mstore\n        /* \"#utility.yul\":28172:28303   */\n      tag_488\n        /* \"#utility.yul\":28298:28302   */\n      dup2\n        /* \"#utility.yul\":28172:28303   */\n      tag_264\n      jump\t// in\n    tag_488:\n        /* \"#utility.yul\":28164:28303   */\n      swap1\n      pop\n        /* \"#utility.yul\":27891:28310   */\n      swap2\n      swap1\n      pop\n      jump\t// out\n        /* \"#utility.yul\":28316:28497   */\n    tag_265:\n        /* \"#utility.yul\":28456:28489   */\n      0x5265656e7472616e637947756172643a207265656e7472616e742063616c6c00\n        /* \"#utility.yul\":28452:28453   */\n      0x00\n        /* \"#utility.yul\":28444:28450   */\n      dup3\n        /* \"#utility.yul\":28440:28454   */\n      add\n        /* \"#utility.yul\":28433:28490   */\n      mstore\n        /* \"#utility.yul\":28316:28497   */\n      pop\n      jump\t// out\n        /* \"#utility.yul\":28503:28869   */\n    tag_266:\n        /* \"#utility.yul\":28645:28648   */\n      0x00\n        /* \"#utility.yul\":28666:28733   */\n      tag_491\n        /* \"#utility.yul\":28730:28732   */\n      0x1f\n        /* \"#utility.yul\":28725:28728   */\n      dup4\n        /* \"#utility.yul\":28666:28733   */\n      tag_226\n      jump\t// in\n    tag_491:\n        /* \"#utility.yul\":28659:28733   */\n      swap2\n      pop\n        /* \"#utility.yul\":28742:28835   */\n      tag_492\n        /* \"#utility.yul\":28831:28834   */\n      dup3\n        /* \"#utility.yul\":28742:28835   */\n      tag_265\n      jump\t// in\n    tag_492:\n        /* \"#utility.yul\":28860:28862   */\n      0x20\n        /* \"#utility.yul\":28855:28858   */\n      dup3\n        /* \"#utility.yul\":28851:28863   */\n      add\n        /* \"#utility.yul\":28844:28863   */\n      swap1\n      pop\n        /* \"#utility.yul\":28503:28869   */\n      swap2\n      swap1\n      pop\n      jump\t// out\n        /* \"#utility.yul\":28875:29294   */\n    tag_189:\n        /* \"#utility.yul\":29041:29045   */\n      0x00\n        /* \"#utility.yul\":29079:29081   */\n      0x20\n        /* \"#utility.yul\":29068:29077   */\n      dup3\n        /* \"#utility.yul\":29064:29082   */\n      add\n        /* \"#utility.yul\":29056:29082   */\n      swap1\n      pop\n        /* \"#utility.yul\":29128:29137   */\n      dup2\n        /* \"#utility.yul\":29122:29126   */\n      dup2\n        /* \"#utility.yul\":29118:29138   */\n      sub\n        /* \"#utility.yul\":29114:29115   */\n      0x00\n        /* \"#utility.yul\":29103:29112   */\n      dup4\n        /* \"#utility.yul\":29099:29116   */\n      add\n        /* \"#utility.yul\":29092:29139   */\n      mstore\n        /* \"#utility.yul\":29156:29287   */\n      tag_494\n        /* \"#utility.yul\":29282:29286   */\n      dup2\n        /* \"#utility.yul\":29156:29287   */\n      tag_266\n      jump\t// in\n    tag_494:\n        /* \"#utility.yul\":29148:29287   */\n      swap1\n      pop\n        /* \"#utility.yul\":28875:29294   */\n      swap2\n      swap1\n      pop\n      jump\t// out\n        /* \"#utility.yul\":29300:29465   */\n    tag_267:\n        /* \"#utility.yul\":29440:29457   */\n      0x5472616e73666572206661696c65640000000000000000000000000000000000\n        /* \"#utility.yul\":29436:29437   */\n      0x00\n        /* \"#utility.yul\":29428:29434   */\n      dup3\n        /* \"#utility.yul\":29424:29438   */\n      add\n        /* \"#utility.yul\":29417:29458   */\n      mstore\n        /* \"#utility.yul\":29300:29465   */\n      pop\n      jump\t// out\n        /* \"#utility.yul\":29471:29837   */\n    tag_268:\n        /* \"#utility.yul\":29613:29616   */\n      0x00\n        /* \"#utility.yul\":29634:29701   */\n      tag_497\n        /* \"#utility.yul\":29698:29700   */\n      0x0f\n        /* \"#utility.yul\":29693:29696   */\n      dup4\n        /* \"#utility.yul\":29634:29701   */\n      tag_226\n      jump\t// in\n    tag_497:\n        /* \"#utility.yul\":29627:29701   */\n      swap2\n      pop\n        /* \"#utility.yul\":29710:29803   */\n      tag_498\n        /* \"#utility.yul\":29799:29802   */\n      dup3\n        /* \"#utility.yul\":29710:29803   */\n      tag_267\n      jump\t// in\n    tag_498:\n        /* \"#utility.yul\":29828:29830   */\n      0x20\n        /* \"#utility.yul\":29823:29826   */\n      dup3\n        /* \"#utility.yul\":29819:29831   */\n      add\n        /* \"#utility.yul\":29812:29831   */\n      swap1\n      pop\n        /* \"#utility.yul\":29471:29837   */\n      swap2\n      swap1\n      pop\n      jump\t// out\n        /* \"#utility.yul\":29843:30262   */\n    tag_203:\n        /* \"#utility.yul\":30009:30013   */\n      0x00\n        /* \"#utility.yul\":30047:30049   */\n      0x20\n        /* \"#utility.yul\":30036:30045   */\n      dup3\n        /* \"#utility.yul\":30032:30050   */\n      add\n        /* \"#utility.yul\":30024:30050   */\n      swap1\n      pop\n        /* \"#utility.yul\":30096:30105   */\n      dup2\n        /* \"#utility.yul\":30090:30094   */\n      dup2\n        /* \"#utility.yul\":30086:30106   */\n      sub\n        /* \"#utility.yul\":30082:30083   */\n      0x00\n        /* \"#utility.yul\":30071:30080   */\n      dup4\n        /* \"#utility.yul\":30067:30084   */\n      add\n        /* \"#utility.yul\":30060:30107   */\n      mstore\n        /* \"#utility.yul\":30124:30255   */\n      tag_500\n        /* \"#utility.yul\":30250:30254   */\n      dup2\n        /* \"#utility.yul\":30124:30255   */\n      tag_268\n      jump\t// in\n    tag_500:\n        /* \"#utility.yul\":30116:30255   */\n      swap1\n      pop\n        /* \"#utility.yul\":29843:30262   */\n      swap2\n      swap1\n      pop\n      jump\t// out\n\n    auxdata: 0xa264697066735822122072ed6850b42418cfa2b603c45579296a07ad80daed11ef7ba31864e7f85da6df64736f6c634300081a0033\n}\n",
				"bytecode": {
					"linkReferences": {},
					"object": "6080604052348015600e575f80fd5b5060015f819055506125fa806100235f395ff3fe608060405260043610610085575f3560e01c8063bc197c8111610058578063bc197c811461015c578063c9c31af514610198578063d9daea51146101b4578063e0182436146101dc578063f23a6e611461020457610085565b8063012f52ee146100895780633bf3110f146100ce57806389cb29dd1461010a578063b43a405a14610134575b5f80fd5b348015610094575f80fd5b506100af60048036038101906100aa9190611863565b610240565b6040516100c59a999897969594939291906118f6565b60405180910390f35b3480156100d9575f80fd5b506100f460048036038101906100ef91906119ba565b610320565b6040516101019190611a31565b60405180910390f35b348015610115575f80fd5b5061011e61074e565b60405161012b9190611a31565b60405180910390f35b34801561013f575f80fd5b5061015a60048036038101906101559190611863565b610754565b005b348015610167575f80fd5b50610182600480360381019061017d9190611b00565b610988565b60405161018f9190611c11565b60405180910390f35b6101b260048036038101906101ad9190611863565b61099f565b005b3480156101bf575f80fd5b506101da60048036038101906101d59190611863565b610d96565b005b3480156101e7575f80fd5b5061020260048036038101906101fd9190611863565b611267565b005b34801561020f575f80fd5b5061022a60048036038101906102259190611c2a565b6115bf565b6040516102379190611c11565b60405180910390f35b6001602052805f5260405f205f91509050805f015f9054906101000a900473ffffffffffffffffffffffffffffffffffffffff1690806001015f9054906101000a900473ffffffffffffffffffffffffffffffffffffffff1690806002015f9054906101000a900473ffffffffffffffffffffffffffffffffffffffff1690806003015490806004015490806005015490806006015f9054906101000a900460ff16908060060160019054906101000a900460ff16908060060160029054906101000a900460ff16908060060160039054906101000a900460ff1690508a565b5f6103296115d4565b5f821161036b576040517f08c379a000000000000000000000000000000000000000000000000000000000815260040161036290611d1a565b60405180910390fd5b5f83116103ad576040517f08c379a00000000000000000000000000000000000000000000000000000000081526004016103a490611d82565b60405180910390fd5b5f73ffffffffffffffffffffffffffffffffffffffff168673ffffffffffffffffffffffffffffffffffffffff160361041b576040517f08c379a000000000000000000000000000000000000000000000000000000000815260040161041290611dea565b60405180910390fd5b5f600254905060025f81548092919061043390611e35565b919050555060405180610140016040528061044c611621565b73ffffffffffffffffffffffffffffffffffffffff1681526020018873ffffffffffffffffffffffffffffffffffffffff1681526020018773ffffffffffffffffffffffffffffffffffffffff1681526020018681526020018581526020018481526020016001151581526020015f151581526020015f151581526020015f151581525060015f8381526020019081526020015f205f820151815f015f6101000a81548173ffffffffffffffffffffffffffffffffffffffff021916908373ffffffffffffffffffffffffffffffffffffffff1602179055506020820151816001015f6101000a81548173ffffffffffffffffffffffffffffffffffffffff021916908373ffffffffffffffffffffffffffffffffffffffff1602179055506040820151816002015f6101000a81548173ffffffffffffffffffffffffffffffffffffffff021916908373ffffffffffffffffffffffffffffffffffffffff160217905550606082015181600301556080820151816004015560a0820151816005015560c0820151816006015f6101000a81548160ff02191690831515021790555060e08201518160060160016101000a81548160ff0219169083151502179055506101008201518160060160026101000a81548160ff0219169083151502179055506101208201518160060160036101000a81548160ff0219169083151502179055509050508573ffffffffffffffffffffffffffffffffffffffff1663f242432a610677611621565b3088886040518563ffffffff1660e01b81526004016106999493929190611eaf565b5f604051808303815f87803b1580156106b0575f80fd5b505af11580156106c2573d5f803e3d5ffd5b505050508673ffffffffffffffffffffffffffffffffffffffff166106e5611621565b73ffffffffffffffffffffffffffffffffffffffff16827f348031cd285968b4adff7fef56c95316db316985cb29bd301bf6734eb4fe5f19898989896040516107319493929190611f05565b60405180910390a480915050610745611628565b95945050505050565b60025481565b61075c6115d4565b5f60015f8381526020019081526020015f209050806006015f9054906101000a900460ff166107c0576040517f08c379a00000000000000000000000000000000000000000000000000000000081526004016107b790611f92565b60405180910390fd5b8060060160019054906101000a900460ff16610811576040517f08c379a000000000000000000000000000000000000000000000000000000000815260040161080890611ffa565b60405180910390fd5b8060060160029054906101000a900460ff16801561083d57508060060160039054906101000a900460ff165b61087c576040517f08c379a000000000000000000000000000000000000000000000000000000000815260040161087390612062565b60405180910390fd5b805f015f9054906101000a900473ffffffffffffffffffffffffffffffffffffffff1673ffffffffffffffffffffffffffffffffffffffff166108bd611621565b73ffffffffffffffffffffffffffffffffffffffff1614806109345750806001015f9054906101000a900473ffffffffffffffffffffffffffffffffffffffff1673ffffffffffffffffffffffffffffffffffffffff1661091c611621565b73ffffffffffffffffffffffffffffffffffffffff16145b610973576040517f08c379a000000000000000000000000000000000000000000000000000000000815260040161096a906120f0565b60405180910390fd5b61097c82611631565b50610985611628565b50565b5f63bc197c8160e01b905098975050505050505050565b6109a76115d4565b5f60015f8381526020019081526020015f209050806006015f9054906101000a900460ff16610a0b576040517f08c379a0000000000000000000000000000000000000000000000000000000008152600401610a0290611f92565b60405180910390fd5b610ba781604051806101400160405290815f82015f9054906101000a900473ffffffffffffffffffffffffffffffffffffffff1673ffffffffffffffffffffffffffffffffffffffff1673ffffffffffffffffffffffffffffffffffffffff168152602001600182015f9054906101000a900473ffffffffffffffffffffffffffffffffffffffff1673ffffffffffffffffffffffffffffffffffffffff1673ffffffffffffffffffffffffffffffffffffffff168152602001600282015f9054906101000a900473ffffffffffffffffffffffffffffffffffffffff1673ffffffffffffffffffffffffffffffffffffffff1673ffffffffffffffffffffffffffffffffffffffff168152602001600382015481526020016004820154815260200160058201548152602001600682015f9054906101000a900460ff161515151581526020016006820160019054906101000a900460ff161515151581526020016006820160029054906101000a900460ff161515151581526020016006820160039054906101000a900460ff16151515158152505061181a565b15610be7576040517f08c379a0000000000000000000000000000000000000000000000000000000008152600401610bde90612158565b60405180910390fd5b806001015f9054906101000a900473ffffffffffffffffffffffffffffffffffffffff1673ffffffffffffffffffffffffffffffffffffffff16610c29611621565b73ffffffffffffffffffffffffffffffffffffffff1614610c7f576040517f08c379a0000000000000000000000000000000000000000000000000000000008152600401610c76906121c0565b60405180910390fd5b8060060160019054906101000a900460ff1615610cd1576040517f08c379a0000000000000000000000000000000000000000000000000000000008152600401610cc890612228565b60405180910390fd5b80600501543414610d17576040517f08c379a0000000000000000000000000000000000000000000000000000000008152600401610d0e90612290565b60405180910390fd5b60018160060160016101000a81548160ff021916908315150217905550610d3c611621565b73ffffffffffffffffffffffffffffffffffffffff16827f4a2cd88ec7a748d5b20b3512d7249c67745777b219009075c745923684e9653d34604051610d829190611a31565b60405180910390a350610d93611628565b50565b610d9e6115d4565b5f60015f8381526020019081526020015f209050806006015f9054906101000a900460ff16610e02576040517f08c379a0000000000000000000000000000000000000000000000000000000008152600401610df990611f92565b60405180910390fd5b610f9e81604051806101400160405290815f82015f9054906101000a900473ffffffffffffffffffffffffffffffffffffffff1673ffffffffffffffffffffffffffffffffffffffff1673ffffffffffffffffffffffffffffffffffffffff168152602001600182015f9054906101000a900473ffffffffffffffffffffffffffffffffffffffff1673ffffffffffffffffffffffffffffffffffffffff1673ffffffffffffffffffffffffffffffffffffffff168152602001600282015f9054906101000a900473ffffffffffffffffffffffffffffffffffffffff1673ffffffffffffffffffffffffffffffffffffffff1673ffffffffffffffffffffffffffffffffffffffff168152602001600382015481526020016004820154815260200160058201548152602001600682015f9054906101000a900460ff161515151581526020016006820160019054906101000a900460ff161515151581526020016006820160029054906101000a900460ff161515151581526020016006820160039054906101000a900460ff16151515158152505061181a565b15610fde576040517f08c379a0000000000000000000000000000000000000000000000000000000008152600401610fd590612158565b60405180910390fd5b805f015f9054906101000a900473ffffffffffffffffffffffffffffffffffffffff1673ffffffffffffffffffffffffffffffffffffffff1661101f611621565b73ffffffffffffffffffffffffffffffffffffffff16036110ae578060060160029054906101000a900460ff161561108c576040517f08c379a0000000000000000000000000000000000000000000000000000000008152600401611083906122f8565b60405180910390fd5b60018160060160026101000a81548160ff0219169083151502179055506111bb565b806001015f9054906101000a900473ffffffffffffffffffffffffffffffffffffffff1673ffffffffffffffffffffffffffffffffffffffff166110f0611621565b73ffffffffffffffffffffffffffffffffffffffff160361117f578060060160039054906101000a900460ff161561115d576040517f08c379a000000000000000000000000000000000000000000000000000000000815260040161115490612360565b60405180910390fd5b60018160060160036101000a81548160ff0219169083151502179055506111ba565b6040517f08c379a00000000000000000000000000000000000000000000000000000000081526004016111b1906123c8565b60405180910390fd5b5b6111c3611621565b73ffffffffffffffffffffffffffffffffffffffff16827f38880d6051ef87694725e7a2c78b22f85c1be92c2129518d916aa0b500c2528560405160405180910390a38060060160029054906101000a900460ff16801561123257508060060160039054906101000a900460ff165b801561124c57508060060160019054906101000a900460ff165b1561125b5761125a82611631565b5b50611264611628565b50565b61126f6115d4565b5f60015f8381526020019081526020015f209050806006015f9054906101000a900460ff166112d3576040517f08c379a00000000000000000000000000000000000000000000000000000000081526004016112ca90611f92565b60405180910390fd5b805f015f9054906101000a900473ffffffffffffffffffffffffffffffffffffffff1673ffffffffffffffffffffffffffffffffffffffff16611314611621565b73ffffffffffffffffffffffffffffffffffffffff16148061138b5750806001015f9054906101000a900473ffffffffffffffffffffffffffffffffffffffff1673ffffffffffffffffffffffffffffffffffffffff16611373611621565b73ffffffffffffffffffffffffffffffffffffffff16145b6113ca576040517f08c379a00000000000000000000000000000000000000000000000000000000081526004016113c190612430565b60405180910390fd5b8060060160019054906101000a900460ff16156114b2575f816001015f9054906101000a900473ffffffffffffffffffffffffffffffffffffffff1673ffffffffffffffffffffffffffffffffffffffff16826005015460405161142d90612478565b5f6040518083038185875af1925050503d805f8114611467576040519150601f19603f3d011682016040523d82523d5f602084013e61146c565b606091505b50509050806114b0576040517f08c379a00000000000000000000000000000000000000000000000000000000081526004016114a7906124d6565b60405180910390fd5b505b806002015f9054906101000a900473ffffffffffffffffffffffffffffffffffffffff1673ffffffffffffffffffffffffffffffffffffffff1663f242432a30835f015f9054906101000a900473ffffffffffffffffffffffffffffffffffffffff16846003015485600401546040518563ffffffff1660e01b815260040161153e9493929190611eaf565b5f604051808303815f87803b158015611555575f80fd5b505af1158015611567573d5f803e3d5ffd5b505050505f816006015f6101000a81548160ff021916908315150217905550817f882d50a73439f21d3f5f423c7b7ce880994a9efb581bce004b7c8739bf03e8ed60405160405180910390a2506115bc611628565b50565b5f63f23a6e6160e01b90509695505050505050565b60025f5403611618576040517f08c379a000000000000000000000000000000000000000000000000000000000815260040161160f9061253e565b60405180910390fd5b60025f81905550565b5f33905090565b60015f81905550565b5f60015f8381526020019081526020015f2090505f816006015f6101000a81548160ff021916908315150217905550806002015f9054906101000a900473ffffffffffffffffffffffffffffffffffffffff1673ffffffffffffffffffffffffffffffffffffffff1663f242432a30836001015f9054906101000a900473ffffffffffffffffffffffffffffffffffffffff16846003015485600401546040518563ffffffff1660e01b81526004016116ed9493929190611eaf565b5f604051808303815f87803b158015611704575f80fd5b505af1158015611716573d5f803e3d5ffd5b505050505f815f015f9054906101000a900473ffffffffffffffffffffffffffffffffffffffff1673ffffffffffffffffffffffffffffffffffffffff16826005015460405161176590612478565b5f6040518083038185875af1925050503d805f811461179f576040519150601f19603f3d011682016040523d82523d5f602084013e6117a4565b606091505b50509050806117e8576040517f08c379a00000000000000000000000000000000000000000000000000000000081526004016117df906125a6565b60405180910390fd5b827fea01dca19ebfae563a7b0c8efab044f2680197adac7f6ef0a6f3da7fd500a32460405160405180910390a2505050565b5f8160c00151159050919050565b5f80fd5b5f80fd5b5f819050919050565b61184281611830565b811461184c575f80fd5b50565b5f8135905061185d81611839565b92915050565b5f6020828403121561187857611877611828565b5b5f6118858482850161184f565b91505092915050565b5f73ffffffffffffffffffffffffffffffffffffffff82169050919050565b5f6118b78261188e565b9050919050565b6118c7816118ad565b82525050565b6118d681611830565b82525050565b5f8115159050919050565b6118f0816118dc565b82525050565b5f6101408201905061190a5f83018d6118be565b611917602083018c6118be565b611924604083018b6118be565b611931606083018a6118cd565b61193e60808301896118cd565b61194b60a08301886118cd565b61195860c08301876118e7565b61196560e08301866118e7565b6119736101008301856118e7565b6119816101208301846118e7565b9b9a5050505050505050505050565b611999816118ad565b81146119a3575f80fd5b50565b5f813590506119b481611990565b92915050565b5f805f805f60a086880312156119d3576119d2611828565b5b5f6119e0888289016119a6565b95505060206119f1888289016119a6565b9450506040611a028882890161184f565b9350506060611a138882890161184f565b9250506080611a248882890161184f565b9150509295509295909350565b5f602082019050611a445f8301846118cd565b92915050565b5f80fd5b5f80fd5b5f80fd5b5f8083601f840112611a6b57611a6a611a4a565b5b8235905067ffffffffffffffff811115611a8857611a87611a4e565b5b602083019150836020820283011115611aa457611aa3611a52565b5b9250929050565b5f8083601f840112611ac057611abf611a4a565b5b8235905067ffffffffffffffff811115611add57611adc611a4e565b5b602083019150836001820283011115611af957611af8611a52565b5b9250929050565b5f805f805f805f8060a0898b031215611b1c57611b1b611828565b5b5f611b298b828c016119a6565b9850506020611b3a8b828c016119a6565b975050604089013567ffffffffffffffff811115611b5b57611b5a61182c565b5b611b678b828c01611a56565b9650965050606089013567ffffffffffffffff811115611b8a57611b8961182c565b5b611b968b828c01611a56565b9450945050608089013567ffffffffffffffff811115611bb957611bb861182c565b5b611bc58b828c01611aab565b92509250509295985092959890939650565b5f7fffffffff0000000000000000000000000000000000000000000000000000000082169050919050565b611c0b81611bd7565b82525050565b5f602082019050611c245f830184611c02565b92915050565b5f805f805f8060a08789031215611c4457611c43611828565b5b5f611c5189828a016119a6565b9650506020611c6289828a016119a6565b9550506040611c7389828a0161184f565b9450506060611c8489828a0161184f565b935050608087013567ffffffffffffffff811115611ca557611ca461182c565b5b611cb189828a01611aab565b92509250509295509295509295565b5f82825260208201905092915050565b7f5072696365206d757374206265203e20300000000000000000000000000000005f82015250565b5f611d04601183611cc0565b9150611d0f82611cd0565b602082019050919050565b5f6020820190508181035f830152611d3181611cf8565b9050919050565b7f416d6f756e74206d757374206265203e203000000000000000000000000000005f82015250565b5f611d6c601283611cc0565b9150611d7782611d38565b602082019050919050565b5f6020820190508181035f830152611d9981611d60565b9050919050565b7f42757965722063616e6e6f74206265207a65726f2061646472657373000000005f82015250565b5f611dd4601c83611cc0565b9150611ddf82611da0565b602082019050919050565b5f6020820190508181035f830152611e0181611dc8565b9050919050565b7f4e487b71000000000000000000000000000000000000000000000000000000005f52601160045260245ffd5b5f611e3f82611830565b91507fffffffffffffffffffffffffffffffffffffffffffffffffffffffffffffffff8203611e7157611e70611e08565b5b600182019050919050565b5f82825260208201905092915050565b50565b5f611e9a5f83611e7c565b9150611ea582611e8c565b5f82019050919050565b5f60a082019050611ec25f8301876118be565b611ecf60208301866118be565b611edc60408301856118cd565b611ee960608301846118cd565b8181036080830152611efa81611e8f565b905095945050505050565b5f608082019050611f185f8301876118be565b611f2560208301866118cd565b611f3260408301856118cd565b611f3f60608301846118cd565b95945050505050565b7f457363726f77206e6f74206163746976650000000000000000000000000000005f82015250565b5f611f7c601183611cc0565b9150611f8782611f48565b602082019050919050565b5f6020820190508181035f830152611fa981611f70565b9050919050565b7f457363726f77206e6f742066756e6465640000000000000000000000000000005f82015250565b5f611fe4601183611cc0565b9150611fef82611fb0565b602082019050919050565b5f6020820190508181035f83015261201181611fd8565b9050919050565b7f426f74682070617274696573206d75737420636f6e6669726d000000000000005f82015250565b5f61204c601983611cc0565b915061205782612018565b602082019050919050565b5f6020820190508181035f83015261207981612040565b9050919050565b7f4f6e6c792073656c6c6572206f722062757965722063616e2066696e616c697a5f8201527f6500000000000000000000000000000000000000000000000000000000000000602082015250565b5f6120da602183611cc0565b91506120e582612080565b604082019050919050565b5f6020820190508181035f830152612107816120ce565b9050919050565b7f457363726f7720616c726561647920636f6d706c6574656400000000000000005f82015250565b5f612142601883611cc0565b915061214d8261210e565b602082019050919050565b5f6020820190508181035f83015261216f81612136565b9050919050565b7f4f6e6c792062757965722063616e2066756e6420657363726f770000000000005f82015250565b5f6121aa601a83611cc0565b91506121b582612176565b602082019050919050565b5f6020820190508181035f8301526121d78161219e565b9050919050565b7f416c72656164792066756e6465640000000000000000000000000000000000005f82015250565b5f612212600e83611cc0565b915061221d826121de565b602082019050919050565b5f6020820190508181035f83015261223f81612206565b9050919050565b7f496e76616c69642045544820616d6f756e7400000000000000000000000000005f82015250565b5f61227a601283611cc0565b915061228582612246565b602082019050919050565b5f6020820190508181035f8301526122a78161226e565b9050919050565b7f53656c6c657220616c726561647920636f6e6669726d656400000000000000005f82015250565b5f6122e2601883611cc0565b91506122ed826122ae565b602082019050919050565b5f6020820190508181035f83015261230f816122d6565b9050919050565b7f427579657220616c726561647920636f6e6669726d65640000000000000000005f82015250565b5f61234a601783611cc0565b915061235582612316565b602082019050919050565b5f6020820190508181035f8301526123778161233e565b9050919050565b7f4f6e6c792073656c6c6572206f722062757965722063616e20636f6e6669726d5f82015250565b5f6123b2602083611cc0565b91506123bd8261237e565b602082019050919050565b5f6020820190508181035f8301526123df816123a6565b9050919050565b7f4f6e6c792073656c6c6572206f722062757965722063616e2063616e63656c005f82015250565b5f61241a601f83611cc0565b9150612425826123e6565b602082019050919050565b5f6020820190508181035f8301526124478161240e565b9050919050565b5f81905092915050565b5f6124635f8361244e565b915061246e82611e8c565b5f82019050919050565b5f61248282612458565b9150819050919050565b7f526566756e6420746f206275796572206661696c6564000000000000000000005f82015250565b5f6124c0601683611cc0565b91506124cb8261248c565b602082019050919050565b5f6020820190508181035f8301526124ed816124b4565b9050919050565b7f5265656e7472616e637947756172643a207265656e7472616e742063616c6c005f82015250565b5f612528601f83611cc0565b9150612533826124f4565b602082019050919050565b5f6020820190508181035f8301526125558161251c565b9050919050565b7f5472616e73666572206661696c656400000000000000000000000000000000005f82015250565b5f612590600f83611cc0565b915061259b8261255c565b602082019050919050565b5f6020820190508181035f8301526125bd81612584565b905091905056fea264697066735822122072ed6850b42418cfa2b603c45579296a07ad80daed11ef7ba31864e7f85da6df64736f6c634300081a0033",
					"opcodes": "PUSH1 0x80 PUSH1 0x40 MSTORE CALLVALUE DUP1 ISZERO PUSH1 0xE JUMPI PUSH0 DUP1 REVERT JUMPDEST POP PUSH1 0x1 PUSH0 DUP2 SWAP1 SSTORE POP PUSH2 0x25FA DUP1 PUSH2 0x23 PUSH0 CODECOPY PUSH0 RETURN INVALID PUSH1 0x80 PUSH1 0x40 MSTORE PUSH1 0x4 CALLDATASIZE LT PUSH2 0x85 JUMPI PUSH0 CALLDATALOAD PUSH1 0xE0 SHR DUP1 PUSH4 0xBC197C81 GT PUSH2 0x58 JUMPI DUP1 PUSH4 0xBC197C81 EQ PUSH2 0x15C JUMPI DUP1 PUSH4 0xC9C31AF5 EQ PUSH2 0x198 JUMPI DUP1 PUSH4 0xD9DAEA51 EQ PUSH2 0x1B4 JUMPI DUP1 PUSH4 0xE0182436 EQ PUSH2 0x1DC JUMPI DUP1 PUSH4 0xF23A6E61 EQ PUSH2 0x204 JUMPI PUSH2 0x85 JUMP JUMPDEST DUP1 PUSH4 0x12F52EE EQ PUSH2 0x89 JUMPI DUP1 PUSH4 0x3BF3110F EQ PUSH2 0xCE JUMPI DUP1 PUSH4 0x89CB29DD EQ PUSH2 0x10A JUMPI DUP1 PUSH4 0xB43A405A EQ PUSH2 0x134 JUMPI JUMPDEST PUSH0 DUP1 REVERT JUMPDEST CALLVALUE DUP1 ISZERO PUSH2 0x94 JUMPI PUSH0 DUP1 REVERT JUMPDEST POP PUSH2 0xAF PUSH1 0x4 DUP1 CALLDATASIZE SUB DUP2 ADD SWAP1 PUSH2 0xAA SWAP2 SWAP1 PUSH2 0x1863 JUMP JUMPDEST PUSH2 0x240 JUMP JUMPDEST PUSH1 0x40 MLOAD PUSH2 0xC5 SWAP11 SWAP10 SWAP9 SWAP8 SWAP7 SWAP6 SWAP5 SWAP4 SWAP3 SWAP2 SWAP1 PUSH2 0x18F6 JUMP JUMPDEST PUSH1 0x40 MLOAD DUP1 SWAP2 SUB SWAP1 RETURN JUMPDEST CALLVALUE DUP1 ISZERO PUSH2 0xD9 JUMPI PUSH0 DUP1 REVERT JUMPDEST POP PUSH2 0xF4 PUSH1 0x4 DUP1 CALLDATASIZE SUB DUP2 ADD SWAP1 PUSH2 0xEF SWAP2 SWAP1 PUSH2 0x19BA JUMP JUMPDEST PUSH2 0x320 JUMP JUMPDEST PUSH1 0x40 MLOAD PUSH2 0x101 SWAP2 SWAP1 PUSH2 0x1A31 JUMP JUMPDEST PUSH1 0x40 MLOAD DUP1 SWAP2 SUB SWAP1 RETURN JUMPDEST CALLVALUE DUP1 ISZERO PUSH2 0x115 JUMPI PUSH0 DUP1 REVERT JUMPDEST POP PUSH2 0x11E PUSH2 0x74E JUMP JUMPDEST PUSH1 0x40 MLOAD PUSH2 0x12B SWAP2 SWAP1 PUSH2 0x1A31 JUMP JUMPDEST PUSH1 0x40 MLOAD DUP1 SWAP2 SUB SWAP1 RETURN JUMPDEST CALLVALUE DUP1 ISZERO PUSH2 0x13F JUMPI PUSH0 DUP1 REVERT JUMPDEST POP PUSH2 0x15A PUSH1 0x4 DUP1 CALLDATASIZE SUB DUP2 ADD SWAP1 PUSH2 0x155 SWAP2 SWAP1 PUSH2 0x1863 JUMP JUMPDEST PUSH2 0x754 JUMP JUMPDEST STOP JUMPDEST CALLVALUE DUP1 ISZERO PUSH2 0x167 JUMPI PUSH0 DUP1 REVERT JUMPDEST POP PUSH2 0x182 PUSH1 0x4 DUP1 CALLDATASIZE SUB DUP2 ADD SWAP1 PUSH2 0x17D SWAP2 SWAP1 PUSH2 0x1B00 JUMP JUMPDEST PUSH2 0x988 JUMP JUMPDEST PUSH1 0x40 MLOAD PUSH2 0x18F SWAP2 SWAP1 PUSH2 0x1C11 JUMP JUMPDEST PUSH1 0x40 MLOAD DUP1 SWAP2 SUB SWAP1 RETURN JUMPDEST PUSH2 0x1B2 PUSH1 0x4 DUP1 CALLDATASIZE SUB DUP2 ADD SWAP1 PUSH2 0x1AD SWAP2 SWAP1 PUSH2 0x1863 JUMP JUMPDEST PUSH2 0x99F JUMP JUMPDEST STOP JUMPDEST CALLVALUE DUP1 ISZERO PUSH2 0x1BF JUMPI PUSH0 DUP1 REVERT JUMPDEST POP PUSH2 0x1DA PUSH1 0x4 DUP1 CALLDATASIZE SUB DUP2 ADD SWAP1 PUSH2 0x1D5 SWAP2 SWAP1 PUSH2 0x1863 JUMP JUMPDEST PUSH2 0xD96 JUMP JUMPDEST STOP JUMPDEST CALLVALUE DUP1 ISZERO PUSH2 0x1E7 JUMPI PUSH0 DUP1 REVERT JUMPDEST POP PUSH2 0x202 PUSH1 0x4 DUP1 CALLDATASIZE SUB DUP2 ADD SWAP1 PUSH2 0x1FD SWAP2 SWAP1 PUSH2 0x1863 JUMP JUMPDEST PUSH2 0x1267 JUMP JUMPDEST STOP JUMPDEST CALLVALUE DUP1 ISZERO PUSH2 0x20F JUMPI PUSH0 DUP1 REVERT JUMPDEST POP PUSH2 0x22A PUSH1 0x4 DUP1 CALLDATASIZE SUB DUP2 ADD SWAP1 PUSH2 0x225 SWAP2 SWAP1 PUSH2 0x1C2A JUMP JUMPDEST PUSH2 0x15BF JUMP JUMPDEST PUSH1 0x40 MLOAD PUSH2 0x237 SWAP2 SWAP1 PUSH2 0x1C11 JUMP JUMPDEST PUSH1 0x40 MLOAD DUP1 SWAP2 SUB SWAP1 RETURN JUMPDEST PUSH1 0x1 PUSH1 0x20 MSTORE DUP1 PUSH0 MSTORE PUSH1 0x40 PUSH0 KECCAK256 PUSH0 SWAP2 POP SWAP1 POP DUP1 PUSH0 ADD PUSH0 SWAP1 SLOAD SWAP1 PUSH2 0x100 EXP SWAP1 DIV PUSH20 0xFFFFFFFFFFFFFFFFFFFFFFFFFFFFFFFFFFFFFFFF AND SWAP1 DUP1 PUSH1 0x1 ADD PUSH0 SWAP1 SLOAD SWAP1 PUSH2 0x100 EXP SWAP1 DIV PUSH20 0xFFFFFFFFFFFFFFFFFFFFFFFFFFFFFFFFFFFFFFFF AND SWAP1 DUP1 PUSH1 0x2 ADD PUSH0 SWAP1 SLOAD SWAP1 PUSH2 0x100 EXP SWAP1 DIV PUSH20 0xFFFFFFFFFFFFFFFFFFFFFFFFFFFFFFFFFFFFFFFF AND SWAP1 DUP1 PUSH1 0x3 ADD SLOAD SWAP1 DUP1 PUSH1 0x4 ADD SLOAD SWAP1 DUP1 PUSH1 0x5 ADD SLOAD SWAP1 DUP1 PUSH1 0x6 ADD PUSH0 SWAP1 SLOAD SWAP1 PUSH2 0x100 EXP SWAP1 DIV PUSH1 0xFF AND SWAP1 DUP1 PUSH1 0x6 ADD PUSH1 0x1 SWAP1 SLOAD SWAP1 PUSH2 0x100 EXP SWAP1 DIV PUSH1 0xFF AND SWAP1 DUP1 PUSH1 0x6 ADD PUSH1 0x2 SWAP1 SLOAD SWAP1 PUSH2 0x100 EXP SWAP1 DIV PUSH1 0xFF AND SWAP1 DUP1 PUSH1 0x6 ADD PUSH1 0x3 SWAP1 SLOAD SWAP1 PUSH2 0x100 EXP SWAP1 DIV PUSH1 0xFF AND SWAP1 POP DUP11 JUMP JUMPDEST PUSH0 PUSH2 0x329 PUSH2 0x15D4 JUMP JUMPDEST PUSH0 DUP3 GT PUSH2 0x36B JUMPI PUSH1 0x40 MLOAD PUSH32 0x8C379A000000000000000000000000000000000000000000000000000000000 DUP2 MSTORE PUSH1 0x4 ADD PUSH2 0x362 SWAP1 PUSH2 0x1D1A JUMP JUMPDEST PUSH1 0x40 MLOAD DUP1 SWAP2 SUB SWAP1 REVERT JUMPDEST PUSH0 DUP4 GT PUSH2 0x3AD JUMPI PUSH1 0x40 MLOAD PUSH32 0x8C379A000000000000000000000000000000000000000000000000000000000 DUP2 MSTORE PUSH1 0x4 ADD PUSH2 0x3A4 SWAP1 PUSH2 0x1D82 JUMP JUMPDEST PUSH1 0x40 MLOAD DUP1 SWAP2 SUB SWAP1 REVERT JUMPDEST PUSH0 PUSH20 0xFFFFFFFFFFFFFFFFFFFFFFFFFFFFFFFFFFFFFFFF AND DUP7 PUSH20 0xFFFFFFFFFFFFFFFFFFFFFFFFFFFFFFFFFFFFFFFF AND SUB PUSH2 0x41B JUMPI PUSH1 0x40 MLOAD PUSH32 0x8C379A000000000000000000000000000000000000000000000000000000000 DUP2 MSTORE PUSH1 0x4 ADD PUSH2 0x412 SWAP1 PUSH2 0x1DEA JUMP JUMPDEST PUSH1 0x40 MLOAD DUP1 SWAP2 SUB SWAP1 REVERT JUMPDEST PUSH0 PUSH1 0x2 SLOAD SWAP1 POP PUSH1 0x2 PUSH0 DUP2 SLOAD DUP1 SWAP3 SWAP2 SWAP1 PUSH2 0x433 SWAP1 PUSH2 0x1E35 JUMP JUMPDEST SWAP2 SWAP1 POP SSTORE POP PUSH1 0x40 MLOAD DUP1 PUSH2 0x140 ADD PUSH1 0x40 MSTORE DUP1 PUSH2 0x44C PUSH2 0x1621 JUMP JUMPDEST PUSH20 0xFFFFFFFFFFFFFFFFFFFFFFFFFFFFFFFFFFFFFFFF AND DUP2 MSTORE PUSH1 0x20 ADD DUP9 PUSH20 0xFFFFFFFFFFFFFFFFFFFFFFFFFFFFFFFFFFFFFFFF AND DUP2 MSTORE PUSH1 0x20 ADD DUP8 PUSH20 0xFFFFFFFFFFFFFFFFFFFFFFFFFFFFFFFFFFFFFFFF AND DUP2 MSTORE PUSH1 0x20 ADD DUP7 DUP2 MSTORE PUSH1 0x20 ADD DUP6 DUP2 MSTORE PUSH1 0x20 ADD DUP5 DUP2 MSTORE PUSH1 0x20 ADD PUSH1 0x1 ISZERO ISZERO DUP2 MSTORE PUSH1 0x20 ADD PUSH0 ISZERO ISZERO DUP2 MSTORE PUSH1 0x20 ADD PUSH0 ISZERO ISZERO DUP2 MSTORE PUSH1 0x20 ADD PUSH0 ISZERO ISZERO DUP2 MSTORE POP PUSH1 0x1 PUSH0 DUP4 DUP2 MSTORE PUSH1 0x20 ADD SWAP1 DUP2 MSTORE PUSH1 0x20 ADD PUSH0 KECCAK256 PUSH0 DUP3 ADD MLOAD DUP2 PUSH0 ADD PUSH0 PUSH2 0x100 EXP DUP2 SLOAD DUP2 PUSH20 0xFFFFFFFFFFFFFFFFFFFFFFFFFFFFFFFFFFFFFFFF MUL NOT AND SWAP1 DUP4 PUSH20 0xFFFFFFFFFFFFFFFFFFFFFFFFFFFFFFFFFFFFFFFF AND MUL OR SWAP1 SSTORE POP PUSH1 0x20 DUP3 ADD MLOAD DUP2 PUSH1 0x1 ADD PUSH0 PUSH2 0x100 EXP DUP2 SLOAD DUP2 PUSH20 0xFFFFFFFFFFFFFFFFFFFFFFFFFFFFFFFFFFFFFFFF MUL NOT AND SWAP1 DUP4 PUSH20 0xFFFFFFFFFFFFFFFFFFFFFFFFFFFFFFFFFFFFFFFF AND MUL OR SWAP1 SSTORE POP PUSH1 0x40 DUP3 ADD MLOAD DUP2 PUSH1 0x2 ADD PUSH0 PUSH2 0x100 EXP DUP2 SLOAD DUP2 PUSH20 0xFFFFFFFFFFFFFFFFFFFFFFFFFFFFFFFFFFFFFFFF MUL NOT AND SWAP1 DUP4 PUSH20 0xFFFFFFFFFFFFFFFFFFFFFFFFFFFFFFFFFFFFFFFF AND MUL OR SWAP1 SSTORE POP PUSH1 0x60 DUP3 ADD MLOAD DUP2 PUSH1 0x3 ADD SSTORE PUSH1 0x80 DUP3 ADD MLOAD DUP2 PUSH1 0x4 ADD SSTORE PUSH1 0xA0 DUP3 ADD MLOAD DUP2 PUSH1 0x5 ADD SSTORE PUSH1 0xC0 DUP3 ADD MLOAD DUP2 PUSH1 0x6 ADD PUSH0 PUSH2 0x100 EXP DUP2 SLOAD DUP2 PUSH1 0xFF MUL NOT AND SWAP1 DUP4 ISZERO ISZERO MUL OR SWAP1 SSTORE POP PUSH1 0xE0 DUP3 ADD MLOAD DUP2 PUSH1 0x6 ADD PUSH1 0x1 PUSH2 0x100 EXP DUP2 SLOAD DUP2 PUSH1 0xFF MUL NOT AND SWAP1 DUP4 ISZERO ISZERO MUL OR SWAP1 SSTORE POP PUSH2 0x100 DUP3 ADD MLOAD DUP2 PUSH1 0x6 ADD PUSH1 0x2 PUSH2 0x100 EXP DUP2 SLOAD DUP2 PUSH1 0xFF MUL NOT AND SWAP1 DUP4 ISZERO ISZERO MUL OR SWAP1 SSTORE POP PUSH2 0x120 DUP3 ADD MLOAD DUP2 PUSH1 0x6 ADD PUSH1 0x3 PUSH2 0x100 EXP DUP2 SLOAD DUP2 PUSH1 0xFF MUL NOT AND SWAP1 DUP4 ISZERO ISZERO MUL OR SWAP1 SSTORE POP SWAP1 POP POP DUP6 PUSH20 0xFFFFFFFFFFFFFFFFFFFFFFFFFFFFFFFFFFFFFFFF AND PUSH4 0xF242432A PUSH2 0x677 PUSH2 0x1621 JUMP JUMPDEST ADDRESS DUP9 DUP9 PUSH1 0x40 MLOAD DUP6 PUSH4 0xFFFFFFFF AND PUSH1 0xE0 SHL DUP2 MSTORE PUSH1 0x4 ADD PUSH2 0x699 SWAP5 SWAP4 SWAP3 SWAP2 SWAP1 PUSH2 0x1EAF JUMP JUMPDEST PUSH0 PUSH1 0x40 MLOAD DUP1 DUP4 SUB DUP2 PUSH0 DUP8 DUP1 EXTCODESIZE ISZERO DUP1 ISZERO PUSH2 0x6B0 JUMPI PUSH0 DUP1 REVERT JUMPDEST POP GAS CALL ISZERO DUP1 ISZERO PUSH2 0x6C2 JUMPI RETURNDATASIZE PUSH0 DUP1 RETURNDATACOPY RETURNDATASIZE PUSH0 REVERT JUMPDEST POP POP POP POP DUP7 PUSH20 0xFFFFFFFFFFFFFFFFFFFFFFFFFFFFFFFFFFFFFFFF AND PUSH2 0x6E5 PUSH2 0x1621 JUMP JUMPDEST PUSH20 0xFFFFFFFFFFFFFFFFFFFFFFFFFFFFFFFFFFFFFFFF AND DUP3 PUSH32 0x348031CD285968B4ADFF7FEF56C95316DB316985CB29BD301BF6734EB4FE5F19 DUP10 DUP10 DUP10 DUP10 PUSH1 0x40 MLOAD PUSH2 0x731 SWAP5 SWAP4 SWAP3 SWAP2 SWAP1 PUSH2 0x1F05 JUMP JUMPDEST PUSH1 0x40 MLOAD DUP1 SWAP2 SUB SWAP1 LOG4 DUP1 SWAP2 POP POP PUSH2 0x745 PUSH2 0x1628 JUMP JUMPDEST SWAP6 SWAP5 POP POP POP POP POP JUMP JUMPDEST PUSH1 0x2 SLOAD DUP2 JUMP JUMPDEST PUSH2 0x75C PUSH2 0x15D4 JUMP JUMPDEST PUSH0 PUSH1 0x1 PUSH0 DUP4 DUP2 MSTORE PUSH1 0x20 ADD SWAP1 DUP2 MSTORE PUSH1 0x20 ADD PUSH0 KECCAK256 SWAP1 POP DUP1 PUSH1 0x6 ADD PUSH0 SWAP1 SLOAD SWAP1 PUSH2 0x100 EXP SWAP1 DIV PUSH1 0xFF AND PUSH2 0x7C0 JUMPI PUSH1 0x40 MLOAD PUSH32 0x8C379A000000000000000000000000000000000000000000000000000000000 DUP2 MSTORE PUSH1 0x4 ADD PUSH2 0x7B7 SWAP1 PUSH2 0x1F92 JUMP JUMPDEST PUSH1 0x40 MLOAD DUP1 SWAP2 SUB SWAP1 REVERT JUMPDEST DUP1 PUSH1 0x6 ADD PUSH1 0x1 SWAP1 SLOAD SWAP1 PUSH2 0x100 EXP SWAP1 DIV PUSH1 0xFF AND PUSH2 0x811 JUMPI PUSH1 0x40 MLOAD PUSH32 0x8C379A000000000000000000000000000000000000000000000000000000000 DUP2 MSTORE PUSH1 0x4 ADD PUSH2 0x808 SWAP1 PUSH2 0x1FFA JUMP JUMPDEST PUSH1 0x40 MLOAD DUP1 SWAP2 SUB SWAP1 REVERT JUMPDEST DUP1 PUSH1 0x6 ADD PUSH1 0x2 SWAP1 SLOAD SWAP1 PUSH2 0x100 EXP SWAP1 DIV PUSH1 0xFF AND DUP1 ISZERO PUSH2 0x83D JUMPI POP DUP1 PUSH1 0x6 ADD PUSH1 0x3 SWAP1 SLOAD SWAP1 PUSH2 0x100 EXP SWAP1 DIV PUSH1 0xFF AND JUMPDEST PUSH2 0x87C JUMPI PUSH1 0x40 MLOAD PUSH32 0x8C379A000000000000000000000000000000000000000000000000000000000 DUP2 MSTORE PUSH1 0x4 ADD PUSH2 0x873 SWAP1 PUSH2 0x2062 JUMP JUMPDEST PUSH1 0x40 MLOAD DUP1 SWAP2 SUB SWAP1 REVERT JUMPDEST DUP1 PUSH0 ADD PUSH0 SWAP1 SLOAD SWAP1 PUSH2 0x100 EXP SWAP1 DIV PUSH20 0xFFFFFFFFFFFFFFFFFFFFFFFFFFFFFFFFFFFFFFFF AND PUSH20 0xFFFFFFFFFFFFFFFFFFFFFFFFFFFFFFFFFFFFFFFF AND PUSH2 0x8BD PUSH2 0x1621 JUMP JUMPDEST PUSH20 0xFFFFFFFFFFFFFFFFFFFFFFFFFFFFFFFFFFFFFFFF AND EQ DUP1 PUSH2 0x934 JUMPI POP DUP1 PUSH1 0x1 ADD PUSH0 SWAP1 SLOAD SWAP1 PUSH2 0x100 EXP SWAP1 DIV PUSH20 0xFFFFFFFFFFFFFFFFFFFFFFFFFFFFFFFFFFFFFFFF AND PUSH20 0xFFFFFFFFFFFFFFFFFFFFFFFFFFFFFFFFFFFFFFFF AND PUSH2 0x91C PUSH2 0x1621 JUMP JUMPDEST PUSH20 0xFFFFFFFFFFFFFFFFFFFFFFFFFFFFFFFFFFFFFFFF AND EQ JUMPDEST PUSH2 0x973 JUMPI PUSH1 0x40 MLOAD PUSH32 0x8C379A000000000000000000000000000000000000000000000000000000000 DUP2 MSTORE PUSH1 0x4 ADD PUSH2 0x96A SWAP1 PUSH2 0x20F0 JUMP JUMPDEST PUSH1 0x40 MLOAD DUP1 SWAP2 SUB SWAP1 REVERT JUMPDEST PUSH2 0x97C DUP3 PUSH2 0x1631 JUMP JUMPDEST POP PUSH2 0x985 PUSH2 0x1628 JUMP JUMPDEST POP JUMP JUMPDEST PUSH0 PUSH4 0xBC197C81 PUSH1 0xE0 SHL SWAP1 POP SWAP9 SWAP8 POP POP POP POP POP POP POP POP JUMP JUMPDEST PUSH2 0x9A7 PUSH2 0x15D4 JUMP JUMPDEST PUSH0 PUSH1 0x1 PUSH0 DUP4 DUP2 MSTORE PUSH1 0x20 ADD SWAP1 DUP2 MSTORE PUSH1 0x20 ADD PUSH0 KECCAK256 SWAP1 POP DUP1 PUSH1 0x6 ADD PUSH0 SWAP1 SLOAD SWAP1 PUSH2 0x100 EXP SWAP1 DIV PUSH1 0xFF AND PUSH2 0xA0B JUMPI PUSH1 0x40 MLOAD PUSH32 0x8C379A000000000000000000000000000000000000000000000000000000000 DUP2 MSTORE PUSH1 0x4 ADD PUSH2 0xA02 SWAP1 PUSH2 0x1F92 JUMP JUMPDEST PUSH1 0x40 MLOAD DUP1 SWAP2 SUB SWAP1 REVERT JUMPDEST PUSH2 0xBA7 DUP2 PUSH1 0x40 MLOAD DUP1 PUSH2 0x140 ADD PUSH1 0x40 MSTORE SWAP1 DUP2 PUSH0 DUP3 ADD PUSH0 SWAP1 SLOAD SWAP1 PUSH2 0x100 EXP SWAP1 DIV PUSH20 0xFFFFFFFFFFFFFFFFFFFFFFFFFFFFFFFFFFFFFFFF AND PUSH20 0xFFFFFFFFFFFFFFFFFFFFFFFFFFFFFFFFFFFFFFFF AND PUSH20 0xFFFFFFFFFFFFFFFFFFFFFFFFFFFFFFFFFFFFFFFF AND DUP2 MSTORE PUSH1 0x20 ADD PUSH1 0x1 DUP3 ADD PUSH0 SWAP1 SLOAD SWAP1 PUSH2 0x100 EXP SWAP1 DIV PUSH20 0xFFFFFFFFFFFFFFFFFFFFFFFFFFFFFFFFFFFFFFFF AND PUSH20 0xFFFFFFFFFFFFFFFFFFFFFFFFFFFFFFFFFFFFFFFF AND PUSH20 0xFFFFFFFFFFFFFFFFFFFFFFFFFFFFFFFFFFFFFFFF AND DUP2 MSTORE PUSH1 0x20 ADD PUSH1 0x2 DUP3 ADD PUSH0 SWAP1 SLOAD SWAP1 PUSH2 0x100 EXP SWAP1 DIV PUSH20 0xFFFFFFFFFFFFFFFFFFFFFFFFFFFFFFFFFFFFFFFF AND PUSH20 0xFFFFFFFFFFFFFFFFFFFFFFFFFFFFFFFFFFFFFFFF AND PUSH20 0xFFFFFFFFFFFFFFFFFFFFFFFFFFFFFFFFFFFFFFFF AND DUP2 MSTORE PUSH1 0x20 ADD PUSH1 0x3 DUP3 ADD SLOAD DUP2 MSTORE PUSH1 0x20 ADD PUSH1 0x4 DUP3 ADD SLOAD DUP2 MSTORE PUSH1 0x20 ADD PUSH1 0x5 DUP3 ADD SLOAD DUP2 MSTORE PUSH1 0x20 ADD PUSH1 0x6 DUP3 ADD PUSH0 SWAP1 SLOAD SWAP1 PUSH2 0x100 EXP SWAP1 DIV PUSH1 0xFF AND ISZERO ISZERO ISZERO ISZERO DUP2 MSTORE PUSH1 0x20 ADD PUSH1 0x6 DUP3 ADD PUSH1 0x1 SWAP1 SLOAD SWAP1 PUSH2 0x100 EXP SWAP1 DIV PUSH1 0xFF AND ISZERO ISZERO ISZERO ISZERO DUP2 MSTORE PUSH1 0x20 ADD PUSH1 0x6 DUP3 ADD PUSH1 0x2 SWAP1 SLOAD SWAP1 PUSH2 0x100 EXP SWAP1 DIV PUSH1 0xFF AND ISZERO ISZERO ISZERO ISZERO DUP2 MSTORE PUSH1 0x20 ADD PUSH1 0x6 DUP3 ADD PUSH1 0x3 SWAP1 SLOAD SWAP1 PUSH2 0x100 EXP SWAP1 DIV PUSH1 0xFF AND ISZERO ISZERO ISZERO ISZERO DUP2 MSTORE POP POP PUSH2 0x181A JUMP JUMPDEST ISZERO PUSH2 0xBE7 JUMPI PUSH1 0x40 MLOAD PUSH32 0x8C379A000000000000000000000000000000000000000000000000000000000 DUP2 MSTORE PUSH1 0x4 ADD PUSH2 0xBDE SWAP1 PUSH2 0x2158 JUMP JUMPDEST PUSH1 0x40 MLOAD DUP1 SWAP2 SUB SWAP1 REVERT JUMPDEST DUP1 PUSH1 0x1 ADD PUSH0 SWAP1 SLOAD SWAP1 PUSH2 0x100 EXP SWAP1 DIV PUSH20 0xFFFFFFFFFFFFFFFFFFFFFFFFFFFFFFFFFFFFFFFF AND PUSH20 0xFFFFFFFFFFFFFFFFFFFFFFFFFFFFFFFFFFFFFFFF AND PUSH2 0xC29 PUSH2 0x1621 JUMP JUMPDEST PUSH20 0xFFFFFFFFFFFFFFFFFFFFFFFFFFFFFFFFFFFFFFFF AND EQ PUSH2 0xC7F JUMPI PUSH1 0x40 MLOAD PUSH32 0x8C379A000000000000000000000000000000000000000000000000000000000 DUP2 MSTORE PUSH1 0x4 ADD PUSH2 0xC76 SWAP1 PUSH2 0x21C0 JUMP JUMPDEST PUSH1 0x40 MLOAD DUP1 SWAP2 SUB SWAP1 REVERT JUMPDEST DUP1 PUSH1 0x6 ADD PUSH1 0x1 SWAP1 SLOAD SWAP1 PUSH2 0x100 EXP SWAP1 DIV PUSH1 0xFF AND ISZERO PUSH2 0xCD1 JUMPI PUSH1 0x40 MLOAD PUSH32 0x8C379A000000000000000000000000000000000000000000000000000000000 DUP2 MSTORE PUSH1 0x4 ADD PUSH2 0xCC8 SWAP1 PUSH2 0x2228 JUMP JUMPDEST PUSH1 0x40 MLOAD DUP1 SWAP2 SUB SWAP1 REVERT JUMPDEST DUP1 PUSH1 0x5 ADD SLOAD CALLVALUE EQ PUSH2 0xD17 JUMPI PUSH1 0x40 MLOAD PUSH32 0x8C379A000000000000000000000000000000000000000000000000000000000 DUP2 MSTORE PUSH1 0x4 ADD PUSH2 0xD0E SWAP1 PUSH2 0x2290 JUMP JUMPDEST PUSH1 0x40 MLOAD DUP1 SWAP2 SUB SWAP1 REVERT JUMPDEST PUSH1 0x1 DUP2 PUSH1 0x6 ADD PUSH1 0x1 PUSH2 0x100 EXP DUP2 SLOAD DUP2 PUSH1 0xFF MUL NOT AND SWAP1 DUP4 ISZERO ISZERO MUL OR SWAP1 SSTORE POP PUSH2 0xD3C PUSH2 0x1621 JUMP JUMPDEST PUSH20 0xFFFFFFFFFFFFFFFFFFFFFFFFFFFFFFFFFFFFFFFF AND DUP3 PUSH32 0x4A2CD88EC7A748D5B20B3512D7249C67745777B219009075C745923684E9653D CALLVALUE PUSH1 0x40 MLOAD PUSH2 0xD82 SWAP2 SWAP1 PUSH2 0x1A31 JUMP JUMPDEST PUSH1 0x40 MLOAD DUP1 SWAP2 SUB SWAP1 LOG3 POP PUSH2 0xD93 PUSH2 0x1628 JUMP JUMPDEST POP JUMP JUMPDEST PUSH2 0xD9E PUSH2 0x15D4 JUMP JUMPDEST PUSH0 PUSH1 0x1 PUSH0 DUP4 DUP2 MSTORE PUSH1 0x20 ADD SWAP1 DUP2 MSTORE PUSH1 0x20 ADD PUSH0 KECCAK256 SWAP1 POP DUP1 PUSH1 0x6 ADD PUSH0 SWAP1 SLOAD SWAP1 PUSH2 0x100 EXP SWAP1 DIV PUSH1 0xFF AND PUSH2 0xE02 JUMPI PUSH1 0x40 MLOAD PUSH32 0x8C379A000000000000000000000000000000000000000000000000000000000 DUP2 MSTORE PUSH1 0x4 ADD PUSH2 0xDF9 SWAP1 PUSH2 0x1F92 JUMP JUMPDEST PUSH1 0x40 MLOAD DUP1 SWAP2 SUB SWAP1 REVERT JUMPDEST PUSH2 0xF9E DUP2 PUSH1 0x40 MLOAD DUP1 PUSH2 0x140 ADD PUSH1 0x40 MSTORE SWAP1 DUP2 PUSH0 DUP3 ADD PUSH0 SWAP1 SLOAD SWAP1 PUSH2 0x100 EXP SWAP1 DIV PUSH20 0xFFFFFFFFFFFFFFFFFFFFFFFFFFFFFFFFFFFFFFFF AND PUSH20 0xFFFFFFFFFFFFFFFFFFFFFFFFFFFFFFFFFFFFFFFF AND PUSH20 0xFFFFFFFFFFFFFFFFFFFFFFFFFFFFFFFFFFFFFFFF AND DUP2 MSTORE PUSH1 0x20 ADD PUSH1 0x1 DUP3 ADD PUSH0 SWAP1 SLOAD SWAP1 PUSH2 0x100 EXP SWAP1 DIV PUSH20 0xFFFFFFFFFFFFFFFFFFFFFFFFFFFFFFFFFFFFFFFF AND PUSH20 0xFFFFFFFFFFFFFFFFFFFFFFFFFFFFFFFFFFFFFFFF AND PUSH20 0xFFFFFFFFFFFFFFFFFFFFFFFFFFFFFFFFFFFFFFFF AND DUP2 MSTORE PUSH1 0x20 ADD PUSH1 0x2 DUP3 ADD PUSH0 SWAP1 SLOAD SWAP1 PUSH2 0x100 EXP SWAP1 DIV PUSH20 0xFFFFFFFFFFFFFFFFFFFFFFFFFFFFFFFFFFFFFFFF AND PUSH20 0xFFFFFFFFFFFFFFFFFFFFFFFFFFFFFFFFFFFFFFFF AND PUSH20 0xFFFFFFFFFFFFFFFFFFFFFFFFFFFFFFFFFFFFFFFF AND DUP2 MSTORE PUSH1 0x20 ADD PUSH1 0x3 DUP3 ADD SLOAD DUP2 MSTORE PUSH1 0x20 ADD PUSH1 0x4 DUP3 ADD SLOAD DUP2 MSTORE PUSH1 0x20 ADD PUSH1 0x5 DUP3 ADD SLOAD DUP2 MSTORE PUSH1 0x20 ADD PUSH1 0x6 DUP3 ADD PUSH0 SWAP1 SLOAD SWAP1 PUSH2 0x100 EXP SWAP1 DIV PUSH1 0xFF AND ISZERO ISZERO ISZERO ISZERO DUP2 MSTORE PUSH1 0x20 ADD PUSH1 0x6 DUP3 ADD PUSH1 0x1 SWAP1 SLOAD SWAP1 PUSH2 0x100 EXP SWAP1 DIV PUSH1 0xFF AND ISZERO ISZERO ISZERO ISZERO DUP2 MSTORE PUSH1 0x20 ADD PUSH1 0x6 DUP3 ADD PUSH1 0x2 SWAP1 SLOAD SWAP1 PUSH2 0x100 EXP SWAP1 DIV PUSH1 0xFF AND ISZERO ISZERO ISZERO ISZERO DUP2 MSTORE PUSH1 0x20 ADD PUSH1 0x6 DUP3 ADD PUSH1 0x3 SWAP1 SLOAD SWAP1 PUSH2 0x100 EXP SWAP1 DIV PUSH1 0xFF AND ISZERO ISZERO ISZERO ISZERO DUP2 MSTORE POP POP PUSH2 0x181A JUMP JUMPDEST ISZERO PUSH2 0xFDE JUMPI PUSH1 0x40 MLOAD PUSH32 0x8C379A000000000000000000000000000000000000000000000000000000000 DUP2 MSTORE PUSH1 0x4 ADD PUSH2 0xFD5 SWAP1 PUSH2 0x2158 JUMP JUMPDEST PUSH1 0x40 MLOAD DUP1 SWAP2 SUB SWAP1 REVERT JUMPDEST DUP1 PUSH0 ADD PUSH0 SWAP1 SLOAD SWAP1 PUSH2 0x100 EXP SWAP1 DIV PUSH20 0xFFFFFFFFFFFFFFFFFFFFFFFFFFFFFFFFFFFFFFFF AND PUSH20 0xFFFFFFFFFFFFFFFFFFFFFFFFFFFFFFFFFFFFFFFF AND PUSH2 0x101F PUSH2 0x1621 JUMP JUMPDEST PUSH20 0xFFFFFFFFFFFFFFFFFFFFFFFFFFFFFFFFFFFFFFFF AND SUB PUSH2 0x10AE JUMPI DUP1 PUSH1 0x6 ADD PUSH1 0x2 SWAP1 SLOAD SWAP1 PUSH2 0x100 EXP SWAP1 DIV PUSH1 0xFF AND ISZERO PUSH2 0x108C JUMPI PUSH1 0x40 MLOAD PUSH32 0x8C379A000000000000000000000000000000000000000000000000000000000 DUP2 MSTORE PUSH1 0x4 ADD PUSH2 0x1083 SWAP1 PUSH2 0x22F8 JUMP JUMPDEST PUSH1 0x40 MLOAD DUP1 SWAP2 SUB SWAP1 REVERT JUMPDEST PUSH1 0x1 DUP2 PUSH1 0x6 ADD PUSH1 0x2 PUSH2 0x100 EXP DUP2 SLOAD DUP2 PUSH1 0xFF MUL NOT AND SWAP1 DUP4 ISZERO ISZERO MUL OR SWAP1 SSTORE POP PUSH2 0x11BB JUMP JUMPDEST DUP1 PUSH1 0x1 ADD PUSH0 SWAP1 SLOAD SWAP1 PUSH2 0x100 EXP SWAP1 DIV PUSH20 0xFFFFFFFFFFFFFFFFFFFFFFFFFFFFFFFFFFFFFFFF AND PUSH20 0xFFFFFFFFFFFFFFFFFFFFFFFFFFFFFFFFFFFFFFFF AND PUSH2 0x10F0 PUSH2 0x1621 JUMP JUMPDEST PUSH20 0xFFFFFFFFFFFFFFFFFFFFFFFFFFFFFFFFFFFFFFFF AND SUB PUSH2 0x117F JUMPI DUP1 PUSH1 0x6 ADD PUSH1 0x3 SWAP1 SLOAD SWAP1 PUSH2 0x100 EXP SWAP1 DIV PUSH1 0xFF AND ISZERO PUSH2 0x115D JUMPI PUSH1 0x40 MLOAD PUSH32 0x8C379A000000000000000000000000000000000000000000000000000000000 DUP2 MSTORE PUSH1 0x4 ADD PUSH2 0x1154 SWAP1 PUSH2 0x2360 JUMP JUMPDEST PUSH1 0x40 MLOAD DUP1 SWAP2 SUB SWAP1 REVERT JUMPDEST PUSH1 0x1 DUP2 PUSH1 0x6 ADD PUSH1 0x3 PUSH2 0x100 EXP DUP2 SLOAD DUP2 PUSH1 0xFF MUL NOT AND SWAP1 DUP4 ISZERO ISZERO MUL OR SWAP1 SSTORE POP PUSH2 0x11BA JUMP JUMPDEST PUSH1 0x40 MLOAD PUSH32 0x8C379A000000000000000000000000000000000000000000000000000000000 DUP2 MSTORE PUSH1 0x4 ADD PUSH2 0x11B1 SWAP1 PUSH2 0x23C8 JUMP JUMPDEST PUSH1 0x40 MLOAD DUP1 SWAP2 SUB SWAP1 REVERT JUMPDEST JUMPDEST PUSH2 0x11C3 PUSH2 0x1621 JUMP JUMPDEST PUSH20 0xFFFFFFFFFFFFFFFFFFFFFFFFFFFFFFFFFFFFFFFF AND DUP3 PUSH32 0x38880D6051EF87694725E7A2C78B22F85C1BE92C2129518D916AA0B500C25285 PUSH1 0x40 MLOAD PUSH1 0x40 MLOAD DUP1 SWAP2 SUB SWAP1 LOG3 DUP1 PUSH1 0x6 ADD PUSH1 0x2 SWAP1 SLOAD SWAP1 PUSH2 0x100 EXP SWAP1 DIV PUSH1 0xFF AND DUP1 ISZERO PUSH2 0x1232 JUMPI POP DUP1 PUSH1 0x6 ADD PUSH1 0x3 SWAP1 SLOAD SWAP1 PUSH2 0x100 EXP SWAP1 DIV PUSH1 0xFF AND JUMPDEST DUP1 ISZERO PUSH2 0x124C JUMPI POP DUP1 PUSH1 0x6 ADD PUSH1 0x1 SWAP1 SLOAD SWAP1 PUSH2 0x100 EXP SWAP1 DIV PUSH1 0xFF AND JUMPDEST ISZERO PUSH2 0x125B JUMPI PUSH2 0x125A DUP3 PUSH2 0x1631 JUMP JUMPDEST JUMPDEST POP PUSH2 0x1264 PUSH2 0x1628 JUMP JUMPDEST POP JUMP JUMPDEST PUSH2 0x126F PUSH2 0x15D4 JUMP JUMPDEST PUSH0 PUSH1 0x1 PUSH0 DUP4 DUP2 MSTORE PUSH1 0x20 ADD SWAP1 DUP2 MSTORE PUSH1 0x20 ADD PUSH0 KECCAK256 SWAP1 POP DUP1 PUSH1 0x6 ADD PUSH0 SWAP1 SLOAD SWAP1 PUSH2 0x100 EXP SWAP1 DIV PUSH1 0xFF AND PUSH2 0x12D3 JUMPI PUSH1 0x40 MLOAD PUSH32 0x8C379A000000000000000000000000000000000000000000000000000000000 DUP2 MSTORE PUSH1 0x4 ADD PUSH2 0x12CA SWAP1 PUSH2 0x1F92 JUMP JUMPDEST PUSH1 0x40 MLOAD DUP1 SWAP2 SUB SWAP1 REVERT JUMPDEST DUP1 PUSH0 ADD PUSH0 SWAP1 SLOAD SWAP1 PUSH2 0x100 EXP SWAP1 DIV PUSH20 0xFFFFFFFFFFFFFFFFFFFFFFFFFFFFFFFFFFFFFFFF AND PUSH20 0xFFFFFFFFFFFFFFFFFFFFFFFFFFFFFFFFFFFFFFFF AND PUSH2 0x1314 PUSH2 0x1621 JUMP JUMPDEST PUSH20 0xFFFFFFFFFFFFFFFFFFFFFFFFFFFFFFFFFFFFFFFF AND EQ DUP1 PUSH2 0x138B JUMPI POP DUP1 PUSH1 0x1 ADD PUSH0 SWAP1 SLOAD SWAP1 PUSH2 0x100 EXP SWAP1 DIV PUSH20 0xFFFFFFFFFFFFFFFFFFFFFFFFFFFFFFFFFFFFFFFF AND PUSH20 0xFFFFFFFFFFFFFFFFFFFFFFFFFFFFFFFFFFFFFFFF AND PUSH2 0x1373 PUSH2 0x1621 JUMP JUMPDEST PUSH20 0xFFFFFFFFFFFFFFFFFFFFFFFFFFFFFFFFFFFFFFFF AND EQ JUMPDEST PUSH2 0x13CA JUMPI PUSH1 0x40 MLOAD PUSH32 0x8C379A000000000000000000000000000000000000000000000000000000000 DUP2 MSTORE PUSH1 0x4 ADD PUSH2 0x13C1 SWAP1 PUSH2 0x2430 JUMP JUMPDEST PUSH1 0x40 MLOAD DUP1 SWAP2 SUB SWAP1 REVERT JUMPDEST DUP1 PUSH1 0x6 ADD PUSH1 0x1 SWAP1 SLOAD SWAP1 PUSH2 0x100 EXP SWAP1 DIV PUSH1 0xFF AND ISZERO PUSH2 0x14B2 JUMPI PUSH0 DUP2 PUSH1 0x1 ADD PUSH0 SWAP1 SLOAD SWAP1 PUSH2 0x100 EXP SWAP1 DIV PUSH20 0xFFFFFFFFFFFFFFFFFFFFFFFFFFFFFFFFFFFFFFFF AND PUSH20 0xFFFFFFFFFFFFFFFFFFFFFFFFFFFFFFFFFFFFFFFF AND DUP3 PUSH1 0x5 ADD SLOAD PUSH1 0x40 MLOAD PUSH2 0x142D SWAP1 PUSH2 0x2478 JUMP JUMPDEST PUSH0 PUSH1 0x40 MLOAD DUP1 DUP4 SUB DUP2 DUP6 DUP8 GAS CALL SWAP3 POP POP POP RETURNDATASIZE DUP1 PUSH0 DUP2 EQ PUSH2 0x1467 JUMPI PUSH1 0x40 MLOAD SWAP2 POP PUSH1 0x1F NOT PUSH1 0x3F RETURNDATASIZE ADD AND DUP3 ADD PUSH1 0x40 MSTORE RETURNDATASIZE DUP3 MSTORE RETURNDATASIZE PUSH0 PUSH1 0x20 DUP5 ADD RETURNDATACOPY PUSH2 0x146C JUMP JUMPDEST PUSH1 0x60 SWAP2 POP JUMPDEST POP POP SWAP1 POP DUP1 PUSH2 0x14B0 JUMPI PUSH1 0x40 MLOAD PUSH32 0x8C379A000000000000000000000000000000000000000000000000000000000 DUP2 MSTORE PUSH1 0x4 ADD PUSH2 0x14A7 SWAP1 PUSH2 0x24D6 JUMP JUMPDEST PUSH1 0x40 MLOAD DUP1 SWAP2 SUB SWAP1 REVERT JUMPDEST POP JUMPDEST DUP1 PUSH1 0x2 ADD PUSH0 SWAP1 SLOAD SWAP1 PUSH2 0x100 EXP SWAP1 DIV PUSH20 0xFFFFFFFFFFFFFFFFFFFFFFFFFFFFFFFFFFFFFFFF AND PUSH20 0xFFFFFFFFFFFFFFFFFFFFFFFFFFFFFFFFFFFFFFFF AND PUSH4 0xF242432A ADDRESS DUP4 PUSH0 ADD PUSH0 SWAP1 SLOAD SWAP1 PUSH2 0x100 EXP SWAP1 DIV PUSH20 0xFFFFFFFFFFFFFFFFFFFFFFFFFFFFFFFFFFFFFFFF AND DUP5 PUSH1 0x3 ADD SLOAD DUP6 PUSH1 0x4 ADD SLOAD PUSH1 0x40 MLOAD DUP6 PUSH4 0xFFFFFFFF AND PUSH1 0xE0 SHL DUP2 MSTORE PUSH1 0x4 ADD PUSH2 0x153E SWAP5 SWAP4 SWAP3 SWAP2 SWAP1 PUSH2 0x1EAF JUMP JUMPDEST PUSH0 PUSH1 0x40 MLOAD DUP1 DUP4 SUB DUP2 PUSH0 DUP8 DUP1 EXTCODESIZE ISZERO DUP1 ISZERO PUSH2 0x1555 JUMPI PUSH0 DUP1 REVERT JUMPDEST POP GAS CALL ISZERO DUP1 ISZERO PUSH2 0x1567 JUMPI RETURNDATASIZE PUSH0 DUP1 RETURNDATACOPY RETURNDATASIZE PUSH0 REVERT JUMPDEST POP POP POP POP PUSH0 DUP2 PUSH1 0x6 ADD PUSH0 PUSH2 0x100 EXP DUP2 SLOAD DUP2 PUSH1 0xFF MUL NOT AND SWAP1 DUP4 ISZERO ISZERO MUL OR SWAP1 SSTORE POP DUP2 PUSH32 0x882D50A73439F21D3F5F423C7B7CE880994A9EFB581BCE004B7C8739BF03E8ED PUSH1 0x40 MLOAD PUSH1 0x40 MLOAD DUP1 SWAP2 SUB SWAP1 LOG2 POP PUSH2 0x15BC PUSH2 0x1628 JUMP JUMPDEST POP JUMP JUMPDEST PUSH0 PUSH4 0xF23A6E61 PUSH1 0xE0 SHL SWAP1 POP SWAP7 SWAP6 POP POP POP POP POP POP JUMP JUMPDEST PUSH1 0x2 PUSH0 SLOAD SUB PUSH2 0x1618 JUMPI PUSH1 0x40 MLOAD PUSH32 0x8C379A000000000000000000000000000000000000000000000000000000000 DUP2 MSTORE PUSH1 0x4 ADD PUSH2 0x160F SWAP1 PUSH2 0x253E JUMP JUMPDEST PUSH1 0x40 MLOAD DUP1 SWAP2 SUB SWAP1 REVERT JUMPDEST PUSH1 0x2 PUSH0 DUP2 SWAP1 SSTORE POP JUMP JUMPDEST PUSH0 CALLER SWAP1 POP SWAP1 JUMP JUMPDEST PUSH1 0x1 PUSH0 DUP2 SWAP1 SSTORE POP JUMP JUMPDEST PUSH0 PUSH1 0x1 PUSH0 DUP4 DUP2 MSTORE PUSH1 0x20 ADD SWAP1 DUP2 MSTORE PUSH1 0x20 ADD PUSH0 KECCAK256 SWAP1 POP PUSH0 DUP2 PUSH1 0x6 ADD PUSH0 PUSH2 0x100 EXP DUP2 SLOAD DUP2 PUSH1 0xFF MUL NOT AND SWAP1 DUP4 ISZERO ISZERO MUL OR SWAP1 SSTORE POP DUP1 PUSH1 0x2 ADD PUSH0 SWAP1 SLOAD SWAP1 PUSH2 0x100 EXP SWAP1 DIV PUSH20 0xFFFFFFFFFFFFFFFFFFFFFFFFFFFFFFFFFFFFFFFF AND PUSH20 0xFFFFFFFFFFFFFFFFFFFFFFFFFFFFFFFFFFFFFFFF AND PUSH4 0xF242432A ADDRESS DUP4 PUSH1 0x1 ADD PUSH0 SWAP1 SLOAD SWAP1 PUSH2 0x100 EXP SWAP1 DIV PUSH20 0xFFFFFFFFFFFFFFFFFFFFFFFFFFFFFFFFFFFFFFFF AND DUP5 PUSH1 0x3 ADD SLOAD DUP6 PUSH1 0x4 ADD SLOAD PUSH1 0x40 MLOAD DUP6 PUSH4 0xFFFFFFFF AND PUSH1 0xE0 SHL DUP2 MSTORE PUSH1 0x4 ADD PUSH2 0x16ED SWAP5 SWAP4 SWAP3 SWAP2 SWAP1 PUSH2 0x1EAF JUMP JUMPDEST PUSH0 PUSH1 0x40 MLOAD DUP1 DUP4 SUB DUP2 PUSH0 DUP8 DUP1 EXTCODESIZE ISZERO DUP1 ISZERO PUSH2 0x1704 JUMPI PUSH0 DUP1 REVERT JUMPDEST POP GAS CALL ISZERO DUP1 ISZERO PUSH2 0x1716 JUMPI RETURNDATASIZE PUSH0 DUP1 RETURNDATACOPY RETURNDATASIZE PUSH0 REVERT JUMPDEST POP POP POP POP PUSH0 DUP2 PUSH0 ADD PUSH0 SWAP1 SLOAD SWAP1 PUSH2 0x100 EXP SWAP1 DIV PUSH20 0xFFFFFFFFFFFFFFFFFFFFFFFFFFFFFFFFFFFFFFFF AND PUSH20 0xFFFFFFFFFFFFFFFFFFFFFFFFFFFFFFFFFFFFFFFF AND DUP3 PUSH1 0x5 ADD SLOAD PUSH1 0x40 MLOAD PUSH2 0x1765 SWAP1 PUSH2 0x2478 JUMP JUMPDEST PUSH0 PUSH1 0x40 MLOAD DUP1 DUP4 SUB DUP2 DUP6 DUP8 GAS CALL SWAP3 POP POP POP RETURNDATASIZE DUP1 PUSH0 DUP2 EQ PUSH2 0x179F JUMPI PUSH1 0x40 MLOAD SWAP2 POP PUSH1 0x1F NOT PUSH1 0x3F RETURNDATASIZE ADD AND DUP3 ADD PUSH1 0x40 MSTORE RETURNDATASIZE DUP3 MSTORE RETURNDATASIZE PUSH0 PUSH1 0x20 DUP5 ADD RETURNDATACOPY PUSH2 0x17A4 JUMP JUMPDEST PUSH1 0x60 SWAP2 POP JUMPDEST POP POP SWAP1 POP DUP1 PUSH2 0x17E8 JUMPI PUSH1 0x40 MLOAD PUSH32 0x8C379A000000000000000000000000000000000000000000000000000000000 DUP2 MSTORE PUSH1 0x4 ADD PUSH2 0x17DF SWAP1 PUSH2 0x25A6 JUMP JUMPDEST PUSH1 0x40 MLOAD DUP1 SWAP2 SUB SWAP1 REVERT JUMPDEST DUP3 PUSH32 0xEA01DCA19EBFAE563A7B0C8EFAB044F2680197ADAC7F6EF0A6F3DA7FD500A324 PUSH1 0x40 MLOAD PUSH1 0x40 MLOAD DUP1 SWAP2 SUB SWAP1 LOG2 POP POP POP JUMP JUMPDEST PUSH0 DUP2 PUSH1 0xC0 ADD MLOAD ISZERO SWAP1 POP SWAP2 SWAP1 POP JUMP JUMPDEST PUSH0 DUP1 REVERT JUMPDEST PUSH0 DUP1 REVERT JUMPDEST PUSH0 DUP2 SWAP1 POP SWAP2 SWAP1 POP JUMP JUMPDEST PUSH2 0x1842 DUP2 PUSH2 0x1830 JUMP JUMPDEST DUP2 EQ PUSH2 0x184C JUMPI PUSH0 DUP1 REVERT JUMPDEST POP JUMP JUMPDEST PUSH0 DUP2 CALLDATALOAD SWAP1 POP PUSH2 0x185D DUP2 PUSH2 0x1839 JUMP JUMPDEST SWAP3 SWAP2 POP POP JUMP JUMPDEST PUSH0 PUSH1 0x20 DUP3 DUP5 SUB SLT ISZERO PUSH2 0x1878 JUMPI PUSH2 0x1877 PUSH2 0x1828 JUMP JUMPDEST JUMPDEST PUSH0 PUSH2 0x1885 DUP5 DUP3 DUP6 ADD PUSH2 0x184F JUMP JUMPDEST SWAP2 POP POP SWAP3 SWAP2 POP POP JUMP JUMPDEST PUSH0 PUSH20 0xFFFFFFFFFFFFFFFFFFFFFFFFFFFFFFFFFFFFFFFF DUP3 AND SWAP1 POP SWAP2 SWAP1 POP JUMP JUMPDEST PUSH0 PUSH2 0x18B7 DUP3 PUSH2 0x188E JUMP JUMPDEST SWAP1 POP SWAP2 SWAP1 POP JUMP JUMPDEST PUSH2 0x18C7 DUP2 PUSH2 0x18AD JUMP JUMPDEST DUP3 MSTORE POP POP JUMP JUMPDEST PUSH2 0x18D6 DUP2 PUSH2 0x1830 JUMP JUMPDEST DUP3 MSTORE POP POP JUMP JUMPDEST PUSH0 DUP2 ISZERO ISZERO SWAP1 POP SWAP2 SWAP1 POP JUMP JUMPDEST PUSH2 0x18F0 DUP2 PUSH2 0x18DC JUMP JUMPDEST DUP3 MSTORE POP POP JUMP JUMPDEST PUSH0 PUSH2 0x140 DUP3 ADD SWAP1 POP PUSH2 0x190A PUSH0 DUP4 ADD DUP14 PUSH2 0x18BE JUMP JUMPDEST PUSH2 0x1917 PUSH1 0x20 DUP4 ADD DUP13 PUSH2 0x18BE JUMP JUMPDEST PUSH2 0x1924 PUSH1 0x40 DUP4 ADD DUP12 PUSH2 0x18BE JUMP JUMPDEST PUSH2 0x1931 PUSH1 0x60 DUP4 ADD DUP11 PUSH2 0x18CD JUMP JUMPDEST PUSH2 0x193E PUSH1 0x80 DUP4 ADD DUP10 PUSH2 0x18CD JUMP JUMPDEST PUSH2 0x194B PUSH1 0xA0 DUP4 ADD DUP9 PUSH2 0x18CD JUMP JUMPDEST PUSH2 0x1958 PUSH1 0xC0 DUP4 ADD DUP8 PUSH2 0x18E7 JUMP JUMPDEST PUSH2 0x1965 PUSH1 0xE0 DUP4 ADD DUP7 PUSH2 0x18E7 JUMP JUMPDEST PUSH2 0x1973 PUSH2 0x100 DUP4 ADD DUP6 PUSH2 0x18E7 JUMP JUMPDEST PUSH2 0x1981 PUSH2 0x120 DUP4 ADD DUP5 PUSH2 0x18E7 JUMP JUMPDEST SWAP12 SWAP11 POP POP POP POP POP POP POP POP POP POP POP JUMP JUMPDEST PUSH2 0x1999 DUP2 PUSH2 0x18AD JUMP JUMPDEST DUP2 EQ PUSH2 0x19A3 JUMPI PUSH0 DUP1 REVERT JUMPDEST POP JUMP JUMPDEST PUSH0 DUP2 CALLDATALOAD SWAP1 POP PUSH2 0x19B4 DUP2 PUSH2 0x1990 JUMP JUMPDEST SWAP3 SWAP2 POP POP JUMP JUMPDEST PUSH0 DUP1 PUSH0 DUP1 PUSH0 PUSH1 0xA0 DUP7 DUP9 SUB SLT ISZERO PUSH2 0x19D3 JUMPI PUSH2 0x19D2 PUSH2 0x1828 JUMP JUMPDEST JUMPDEST PUSH0 PUSH2 0x19E0 DUP9 DUP3 DUP10 ADD PUSH2 0x19A6 JUMP JUMPDEST SWAP6 POP POP PUSH1 0x20 PUSH2 0x19F1 DUP9 DUP3 DUP10 ADD PUSH2 0x19A6 JUMP JUMPDEST SWAP5 POP POP PUSH1 0x40 PUSH2 0x1A02 DUP9 DUP3 DUP10 ADD PUSH2 0x184F JUMP JUMPDEST SWAP4 POP POP PUSH1 0x60 PUSH2 0x1A13 DUP9 DUP3 DUP10 ADD PUSH2 0x184F JUMP JUMPDEST SWAP3 POP POP PUSH1 0x80 PUSH2 0x1A24 DUP9 DUP3 DUP10 ADD PUSH2 0x184F JUMP JUMPDEST SWAP2 POP POP SWAP3 SWAP6 POP SWAP3 SWAP6 SWAP1 SWAP4 POP JUMP JUMPDEST PUSH0 PUSH1 0x20 DUP3 ADD SWAP1 POP PUSH2 0x1A44 PUSH0 DUP4 ADD DUP5 PUSH2 0x18CD JUMP JUMPDEST SWAP3 SWAP2 POP POP JUMP JUMPDEST PUSH0 DUP1 REVERT JUMPDEST PUSH0 DUP1 REVERT JUMPDEST PUSH0 DUP1 REVERT JUMPDEST PUSH0 DUP1 DUP4 PUSH1 0x1F DUP5 ADD SLT PUSH2 0x1A6B JUMPI PUSH2 0x1A6A PUSH2 0x1A4A JUMP JUMPDEST JUMPDEST DUP3 CALLDATALOAD SWAP1 POP PUSH8 0xFFFFFFFFFFFFFFFF DUP2 GT ISZERO PUSH2 0x1A88 JUMPI PUSH2 0x1A87 PUSH2 0x1A4E JUMP JUMPDEST JUMPDEST PUSH1 0x20 DUP4 ADD SWAP2 POP DUP4 PUSH1 0x20 DUP3 MUL DUP4 ADD GT ISZERO PUSH2 0x1AA4 JUMPI PUSH2 0x1AA3 PUSH2 0x1A52 JUMP JUMPDEST JUMPDEST SWAP3 POP SWAP3 SWAP1 POP JUMP JUMPDEST PUSH0 DUP1 DUP4 PUSH1 0x1F DUP5 ADD SLT PUSH2 0x1AC0 JUMPI PUSH2 0x1ABF PUSH2 0x1A4A JUMP JUMPDEST JUMPDEST DUP3 CALLDATALOAD SWAP1 POP PUSH8 0xFFFFFFFFFFFFFFFF DUP2 GT ISZERO PUSH2 0x1ADD JUMPI PUSH2 0x1ADC PUSH2 0x1A4E JUMP JUMPDEST JUMPDEST PUSH1 0x20 DUP4 ADD SWAP2 POP DUP4 PUSH1 0x1 DUP3 MUL DUP4 ADD GT ISZERO PUSH2 0x1AF9 JUMPI PUSH2 0x1AF8 PUSH2 0x1A52 JUMP JUMPDEST JUMPDEST SWAP3 POP SWAP3 SWAP1 POP JUMP JUMPDEST PUSH0 DUP1 PUSH0 DUP1 PUSH0 DUP1 PUSH0 DUP1 PUSH1 0xA0 DUP10 DUP12 SUB SLT ISZERO PUSH2 0x1B1C JUMPI PUSH2 0x1B1B PUSH2 0x1828 JUMP JUMPDEST JUMPDEST PUSH0 PUSH2 0x1B29 DUP12 DUP3 DUP13 ADD PUSH2 0x19A6 JUMP JUMPDEST SWAP9 POP POP PUSH1 0x20 PUSH2 0x1B3A DUP12 DUP3 DUP13 ADD PUSH2 0x19A6 JUMP JUMPDEST SWAP8 POP POP PUSH1 0x40 DUP10 ADD CALLDATALOAD PUSH8 0xFFFFFFFFFFFFFFFF DUP2 GT ISZERO PUSH2 0x1B5B JUMPI PUSH2 0x1B5A PUSH2 0x182C JUMP JUMPDEST JUMPDEST PUSH2 0x1B67 DUP12 DUP3 DUP13 ADD PUSH2 0x1A56 JUMP JUMPDEST SWAP7 POP SWAP7 POP POP PUSH1 0x60 DUP10 ADD CALLDATALOAD PUSH8 0xFFFFFFFFFFFFFFFF DUP2 GT ISZERO PUSH2 0x1B8A JUMPI PUSH2 0x1B89 PUSH2 0x182C JUMP JUMPDEST JUMPDEST PUSH2 0x1B96 DUP12 DUP3 DUP13 ADD PUSH2 0x1A56 JUMP JUMPDEST SWAP5 POP SWAP5 POP POP PUSH1 0x80 DUP10 ADD CALLDATALOAD PUSH8 0xFFFFFFFFFFFFFFFF DUP2 GT ISZERO PUSH2 0x1BB9 JUMPI PUSH2 0x1BB8 PUSH2 0x182C JUMP JUMPDEST JUMPDEST PUSH2 0x1BC5 DUP12 DUP3 DUP13 ADD PUSH2 0x1AAB JUMP JUMPDEST SWAP3 POP SWAP3 POP POP SWAP3 SWAP6 SWAP9 POP SWAP3 SWAP6 SWAP9 SWAP1 SWAP4 SWAP7 POP JUMP JUMPDEST PUSH0 PUSH32 0xFFFFFFFF00000000000000000000000000000000000000000000000000000000 DUP3 AND SWAP1 POP SWAP2 SWAP1 POP JUMP JUMPDEST PUSH2 0x1C0B DUP2 PUSH2 0x1BD7 JUMP JUMPDEST DUP3 MSTORE POP POP JUMP JUMPDEST PUSH0 PUSH1 0x20 DUP3 ADD SWAP1 POP PUSH2 0x1C24 PUSH0 DUP4 ADD DUP5 PUSH2 0x1C02 JUMP JUMPDEST SWAP3 SWAP2 POP POP JUMP JUMPDEST PUSH0 DUP1 PUSH0 DUP1 PUSH0 DUP1 PUSH1 0xA0 DUP8 DUP10 SUB SLT ISZERO PUSH2 0x1C44 JUMPI PUSH2 0x1C43 PUSH2 0x1828 JUMP JUMPDEST JUMPDEST PUSH0 PUSH2 0x1C51 DUP10 DUP3 DUP11 ADD PUSH2 0x19A6 JUMP JUMPDEST SWAP7 POP POP PUSH1 0x20 PUSH2 0x1C62 DUP10 DUP3 DUP11 ADD PUSH2 0x19A6 JUMP JUMPDEST SWAP6 POP POP PUSH1 0x40 PUSH2 0x1C73 DUP10 DUP3 DUP11 ADD PUSH2 0x184F JUMP JUMPDEST SWAP5 POP POP PUSH1 0x60 PUSH2 0x1C84 DUP10 DUP3 DUP11 ADD PUSH2 0x184F JUMP JUMPDEST SWAP4 POP POP PUSH1 0x80 DUP8 ADD CALLDATALOAD PUSH8 0xFFFFFFFFFFFFFFFF DUP2 GT ISZERO PUSH2 0x1CA5 JUMPI PUSH2 0x1CA4 PUSH2 0x182C JUMP JUMPDEST JUMPDEST PUSH2 0x1CB1 DUP10 DUP3 DUP11 ADD PUSH2 0x1AAB JUMP JUMPDEST SWAP3 POP SWAP3 POP POP SWAP3 SWAP6 POP SWAP3 SWAP6 POP SWAP3 SWAP6 JUMP JUMPDEST PUSH0 DUP3 DUP3 MSTORE PUSH1 0x20 DUP3 ADD SWAP1 POP SWAP3 SWAP2 POP POP JUMP JUMPDEST PUSH32 0x5072696365206D757374206265203E2030000000000000000000000000000000 PUSH0 DUP3 ADD MSTORE POP JUMP JUMPDEST PUSH0 PUSH2 0x1D04 PUSH1 0x11 DUP4 PUSH2 0x1CC0 JUMP JUMPDEST SWAP2 POP PUSH2 0x1D0F DUP3 PUSH2 0x1CD0 JUMP JUMPDEST PUSH1 0x20 DUP3 ADD SWAP1 POP SWAP2 SWAP1 POP JUMP JUMPDEST PUSH0 PUSH1 0x20 DUP3 ADD SWAP1 POP DUP2 DUP2 SUB PUSH0 DUP4 ADD MSTORE PUSH2 0x1D31 DUP2 PUSH2 0x1CF8 JUMP JUMPDEST SWAP1 POP SWAP2 SWAP1 POP JUMP JUMPDEST PUSH32 0x416D6F756E74206D757374206265203E20300000000000000000000000000000 PUSH0 DUP3 ADD MSTORE POP JUMP JUMPDEST PUSH0 PUSH2 0x1D6C PUSH1 0x12 DUP4 PUSH2 0x1CC0 JUMP JUMPDEST SWAP2 POP PUSH2 0x1D77 DUP3 PUSH2 0x1D38 JUMP JUMPDEST PUSH1 0x20 DUP3 ADD SWAP1 POP SWAP2 SWAP1 POP JUMP JUMPDEST PUSH0 PUSH1 0x20 DUP3 ADD SWAP1 POP DUP2 DUP2 SUB PUSH0 DUP4 ADD MSTORE PUSH2 0x1D99 DUP2 PUSH2 0x1D60 JUMP JUMPDEST SWAP1 POP SWAP2 SWAP1 POP JUMP JUMPDEST PUSH32 0x42757965722063616E6E6F74206265207A65726F206164647265737300000000 PUSH0 DUP3 ADD MSTORE POP JUMP JUMPDEST PUSH0 PUSH2 0x1DD4 PUSH1 0x1C DUP4 PUSH2 0x1CC0 JUMP JUMPDEST SWAP2 POP PUSH2 0x1DDF DUP3 PUSH2 0x1DA0 JUMP JUMPDEST PUSH1 0x20 DUP3 ADD SWAP1 POP SWAP2 SWAP1 POP JUMP JUMPDEST PUSH0 PUSH1 0x20 DUP3 ADD SWAP1 POP DUP2 DUP2 SUB PUSH0 DUP4 ADD MSTORE PUSH2 0x1E01 DUP2 PUSH2 0x1DC8 JUMP JUMPDEST SWAP1 POP SWAP2 SWAP1 POP JUMP JUMPDEST PUSH32 0x4E487B7100000000000000000000000000000000000000000000000000000000 PUSH0 MSTORE PUSH1 0x11 PUSH1 0x4 MSTORE PUSH1 0x24 PUSH0 REVERT JUMPDEST PUSH0 PUSH2 0x1E3F DUP3 PUSH2 0x1830 JUMP JUMPDEST SWAP2 POP PUSH32 0xFFFFFFFFFFFFFFFFFFFFFFFFFFFFFFFFFFFFFFFFFFFFFFFFFFFFFFFFFFFFFFFF DUP3 SUB PUSH2 0x1E71 JUMPI PUSH2 0x1E70 PUSH2 0x1E08 JUMP JUMPDEST JUMPDEST PUSH1 0x1 DUP3 ADD SWAP1 POP SWAP2 SWAP1 POP JUMP JUMPDEST PUSH0 DUP3 DUP3 MSTORE PUSH1 0x20 DUP3 ADD SWAP1 POP SWAP3 SWAP2 POP POP JUMP JUMPDEST POP JUMP JUMPDEST PUSH0 PUSH2 0x1E9A PUSH0 DUP4 PUSH2 0x1E7C JUMP JUMPDEST SWAP2 POP PUSH2 0x1EA5 DUP3 PUSH2 0x1E8C JUMP JUMPDEST PUSH0 DUP3 ADD SWAP1 POP SWAP2 SWAP1 POP JUMP JUMPDEST PUSH0 PUSH1 0xA0 DUP3 ADD SWAP1 POP PUSH2 0x1EC2 PUSH0 DUP4 ADD DUP8 PUSH2 0x18BE JUMP JUMPDEST PUSH2 0x1ECF PUSH1 0x20 DUP4 ADD DUP7 PUSH2 0x18BE JUMP JUMPDEST PUSH2 0x1EDC PUSH1 0x40 DUP4 ADD DUP6 PUSH2 0x18CD JUMP JUMPDEST PUSH2 0x1EE9 PUSH1 0x60 DUP4 ADD DUP5 PUSH2 0x18CD JUMP JUMPDEST DUP2 DUP2 SUB PUSH1 0x80 DUP4 ADD MSTORE PUSH2 0x1EFA DUP2 PUSH2 0x1E8F JUMP JUMPDEST SWAP1 POP SWAP6 SWAP5 POP POP POP POP POP JUMP JUMPDEST PUSH0 PUSH1 0x80 DUP3 ADD SWAP1 POP PUSH2 0x1F18 PUSH0 DUP4 ADD DUP8 PUSH2 0x18BE JUMP JUMPDEST PUSH2 0x1F25 PUSH1 0x20 DUP4 ADD DUP7 PUSH2 0x18CD JUMP JUMPDEST PUSH2 0x1F32 PUSH1 0x40 DUP4 ADD DUP6 PUSH2 0x18CD JUMP JUMPDEST PUSH2 0x1F3F PUSH1 0x60 DUP4 ADD DUP5 PUSH2 0x18CD JUMP JUMPDEST SWAP6 SWAP5 POP POP POP POP POP JUMP JUMPDEST PUSH32 0x457363726F77206E6F7420616374697665000000000000000000000000000000 PUSH0 DUP3 ADD MSTORE POP JUMP JUMPDEST PUSH0 PUSH2 0x1F7C PUSH1 0x11 DUP4 PUSH2 0x1CC0 JUMP JUMPDEST SWAP2 POP PUSH2 0x1F87 DUP3 PUSH2 0x1F48 JUMP JUMPDEST PUSH1 0x20 DUP3 ADD SWAP1 POP SWAP2 SWAP1 POP JUMP JUMPDEST PUSH0 PUSH1 0x20 DUP3 ADD SWAP1 POP DUP2 DUP2 SUB PUSH0 DUP4 ADD MSTORE PUSH2 0x1FA9 DUP2 PUSH2 0x1F70 JUMP JUMPDEST SWAP1 POP SWAP2 SWAP1 POP JUMP JUMPDEST PUSH32 0x457363726F77206E6F742066756E646564000000000000000000000000000000 PUSH0 DUP3 ADD MSTORE POP JUMP JUMPDEST PUSH0 PUSH2 0x1FE4 PUSH1 0x11 DUP4 PUSH2 0x1CC0 JUMP JUMPDEST SWAP2 POP PUSH2 0x1FEF DUP3 PUSH2 0x1FB0 JUMP JUMPDEST PUSH1 0x20 DUP3 ADD SWAP1 POP SWAP2 SWAP1 POP JUMP JUMPDEST PUSH0 PUSH1 0x20 DUP3 ADD SWAP1 POP DUP2 DUP2 SUB PUSH0 DUP4 ADD MSTORE PUSH2 0x2011 DUP2 PUSH2 0x1FD8 JUMP JUMPDEST SWAP1 POP SWAP2 SWAP1 POP JUMP JUMPDEST PUSH32 0x426F74682070617274696573206D75737420636F6E6669726D00000000000000 PUSH0 DUP3 ADD MSTORE POP JUMP JUMPDEST PUSH0 PUSH2 0x204C PUSH1 0x19 DUP4 PUSH2 0x1CC0 JUMP JUMPDEST SWAP2 POP PUSH2 0x2057 DUP3 PUSH2 0x2018 JUMP JUMPDEST PUSH1 0x20 DUP3 ADD SWAP1 POP SWAP2 SWAP1 POP JUMP JUMPDEST PUSH0 PUSH1 0x20 DUP3 ADD SWAP1 POP DUP2 DUP2 SUB PUSH0 DUP4 ADD MSTORE PUSH2 0x2079 DUP2 PUSH2 0x2040 JUMP JUMPDEST SWAP1 POP SWAP2 SWAP1 POP JUMP JUMPDEST PUSH32 0x4F6E6C792073656C6C6572206F722062757965722063616E2066696E616C697A PUSH0 DUP3 ADD MSTORE PUSH32 0x6500000000000000000000000000000000000000000000000000000000000000 PUSH1 0x20 DUP3 ADD MSTORE POP JUMP JUMPDEST PUSH0 PUSH2 0x20DA PUSH1 0x21 DUP4 PUSH2 0x1CC0 JUMP JUMPDEST SWAP2 POP PUSH2 0x20E5 DUP3 PUSH2 0x2080 JUMP JUMPDEST PUSH1 0x40 DUP3 ADD SWAP1 POP SWAP2 SWAP1 POP JUMP JUMPDEST PUSH0 PUSH1 0x20 DUP3 ADD SWAP1 POP DUP2 DUP2 SUB PUSH0 DUP4 ADD MSTORE PUSH2 0x2107 DUP2 PUSH2 0x20CE JUMP JUMPDEST SWAP1 POP SWAP2 SWAP1 POP JUMP JUMPDEST PUSH32 0x457363726F7720616C726561647920636F6D706C657465640000000000000000 PUSH0 DUP3 ADD MSTORE POP JUMP JUMPDEST PUSH0 PUSH2 0x2142 PUSH1 0x18 DUP4 PUSH2 0x1CC0 JUMP JUMPDEST SWAP2 POP PUSH2 0x214D DUP3 PUSH2 0x210E JUMP JUMPDEST PUSH1 0x20 DUP3 ADD SWAP1 POP SWAP2 SWAP1 POP JUMP JUMPDEST PUSH0 PUSH1 0x20 DUP3 ADD SWAP1 POP DUP2 DUP2 SUB PUSH0 DUP4 ADD MSTORE PUSH2 0x216F DUP2 PUSH2 0x2136 JUMP JUMPDEST SWAP1 POP SWAP2 SWAP1 POP JUMP JUMPDEST PUSH32 0x4F6E6C792062757965722063616E2066756E6420657363726F77000000000000 PUSH0 DUP3 ADD MSTORE POP JUMP JUMPDEST PUSH0 PUSH2 0x21AA PUSH1 0x1A DUP4 PUSH2 0x1CC0 JUMP JUMPDEST SWAP2 POP PUSH2 0x21B5 DUP3 PUSH2 0x2176 JUMP JUMPDEST PUSH1 0x20 DUP3 ADD SWAP1 POP SWAP2 SWAP1 POP JUMP JUMPDEST PUSH0 PUSH1 0x20 DUP3 ADD SWAP1 POP DUP2 DUP2 SUB PUSH0 DUP4 ADD MSTORE PUSH2 0x21D7 DUP2 PUSH2 0x219E JUMP JUMPDEST SWAP1 POP SWAP2 SWAP1 POP JUMP JUMPDEST PUSH32 0x416C72656164792066756E646564000000000000000000000000000000000000 PUSH0 DUP3 ADD MSTORE POP JUMP JUMPDEST PUSH0 PUSH2 0x2212 PUSH1 0xE DUP4 PUSH2 0x1CC0 JUMP JUMPDEST SWAP2 POP PUSH2 0x221D DUP3 PUSH2 0x21DE JUMP JUMPDEST PUSH1 0x20 DUP3 ADD SWAP1 POP SWAP2 SWAP1 POP JUMP JUMPDEST PUSH0 PUSH1 0x20 DUP3 ADD SWAP1 POP DUP2 DUP2 SUB PUSH0 DUP4 ADD MSTORE PUSH2 0x223F DUP2 PUSH2 0x2206 JUMP JUMPDEST SWAP1 POP SWAP2 SWAP1 POP JUMP JUMPDEST PUSH32 0x496E76616C69642045544820616D6F756E740000000000000000000000000000 PUSH0 DUP3 ADD MSTORE POP JUMP JUMPDEST PUSH0 PUSH2 0x227A PUSH1 0x12 DUP4 PUSH2 0x1CC0 JUMP JUMPDEST SWAP2 POP PUSH2 0x2285 DUP3 PUSH2 0x2246 JUMP JUMPDEST PUSH1 0x20 DUP3 ADD SWAP1 POP SWAP2 SWAP1 POP JUMP JUMPDEST PUSH0 PUSH1 0x20 DUP3 ADD SWAP1 POP DUP2 DUP2 SUB PUSH0 DUP4 ADD MSTORE PUSH2 0x22A7 DUP2 PUSH2 0x226E JUMP JUMPDEST SWAP1 POP SWAP2 SWAP1 POP JUMP JUMPDEST PUSH32 0x53656C6C657220616C726561647920636F6E6669726D65640000000000000000 PUSH0 DUP3 ADD MSTORE POP JUMP JUMPDEST PUSH0 PUSH2 0x22E2 PUSH1 0x18 DUP4 PUSH2 0x1CC0 JUMP JUMPDEST SWAP2 POP PUSH2 0x22ED DUP3 PUSH2 0x22AE JUMP JUMPDEST PUSH1 0x20 DUP3 ADD SWAP1 POP SWAP2 SWAP1 POP JUMP JUMPDEST PUSH0 PUSH1 0x20 DUP3 ADD SWAP1 POP DUP2 DUP2 SUB PUSH0 DUP4 ADD MSTORE PUSH2 0x230F DUP2 PUSH2 0x22D6 JUMP JUMPDEST SWAP1 POP SWAP2 SWAP1 POP JUMP JUMPDEST PUSH32 0x427579657220616C726561647920636F6E6669726D6564000000000000000000 PUSH0 DUP3 ADD MSTORE POP JUMP JUMPDEST PUSH0 PUSH2 0x234A PUSH1 0x17 DUP4 PUSH2 0x1CC0 JUMP JUMPDEST SWAP2 POP PUSH2 0x2355 DUP3 PUSH2 0x2316 JUMP JUMPDEST PUSH1 0x20 DUP3 ADD SWAP1 POP SWAP2 SWAP1 POP JUMP JUMPDEST PUSH0 PUSH1 0x20 DUP3 ADD SWAP1 POP DUP2 DUP2 SUB PUSH0 DUP4 ADD MSTORE PUSH2 0x2377 DUP2 PUSH2 0x233E JUMP JUMPDEST SWAP1 POP SWAP2 SWAP1 POP JUMP JUMPDEST PUSH32 0x4F6E6C792073656C6C6572206F722062757965722063616E20636F6E6669726D PUSH0 DUP3 ADD MSTORE POP JUMP JUMPDEST PUSH0 PUSH2 0x23B2 PUSH1 0x20 DUP4 PUSH2 0x1CC0 JUMP JUMPDEST SWAP2 POP PUSH2 0x23BD DUP3 PUSH2 0x237E JUMP JUMPDEST PUSH1 0x20 DUP3 ADD SWAP1 POP SWAP2 SWAP1 POP JUMP JUMPDEST PUSH0 PUSH1 0x20 DUP3 ADD SWAP1 POP DUP2 DUP2 SUB PUSH0 DUP4 ADD MSTORE PUSH2 0x23DF DUP2 PUSH2 0x23A6 JUMP JUMPDEST SWAP1 POP SWAP2 SWAP1 POP JUMP JUMPDEST PUSH32 0x4F6E6C792073656C6C6572206F722062757965722063616E2063616E63656C00 PUSH0 DUP3 ADD MSTORE POP JUMP JUMPDEST PUSH0 PUSH2 0x241A PUSH1 0x1F DUP4 PUSH2 0x1CC0 JUMP JUMPDEST SWAP2 POP PUSH2 0x2425 DUP3 PUSH2 0x23E6 JUMP JUMPDEST PUSH1 0x20 DUP3 ADD SWAP1 POP SWAP2 SWAP1 POP JUMP JUMPDEST PUSH0 PUSH1 0x20 DUP3 ADD SWAP1 POP DUP2 DUP2 SUB PUSH0 DUP4 ADD MSTORE PUSH2 0x2447 DUP2 PUSH2 0x240E JUMP JUMPDEST SWAP1 POP SWAP2 SWAP1 POP JUMP JUMPDEST PUSH0 DUP2 SWAP1 POP SWAP3 SWAP2 POP POP JUMP JUMPDEST PUSH0 PUSH2 0x2463 PUSH0 DUP4 PUSH2 0x244E JUMP JUMPDEST SWAP2 POP PUSH2 0x246E DUP3 PUSH2 0x1E8C JUMP JUMPDEST PUSH0 DUP3 ADD SWAP1 POP SWAP2 SWAP1 POP JUMP JUMPDEST PUSH0 PUSH2 0x2482 DUP3 PUSH2 0x2458 JUMP JUMPDEST SWAP2 POP DUP2 SWAP1 POP SWAP2 SWAP1 POP JUMP JUMPDEST PUSH32 0x526566756E6420746F206275796572206661696C656400000000000000000000 PUSH0 DUP3 ADD MSTORE POP JUMP JUMPDEST PUSH0 PUSH2 0x24C0 PUSH1 0x16 DUP4 PUSH2 0x1CC0 JUMP JUMPDEST SWAP2 POP PUSH2 0x24CB DUP3 PUSH2 0x248C JUMP JUMPDEST PUSH1 0x20 DUP3 ADD SWAP1 POP SWAP2 SWAP1 POP JUMP JUMPDEST PUSH0 PUSH1 0x20 DUP3 ADD SWAP1 POP DUP2 DUP2 SUB PUSH0 DUP4 ADD MSTORE PUSH2 0x24ED DUP2 PUSH2 0x24B4 JUMP JUMPDEST SWAP1 POP SWAP2 SWAP1 POP JUMP JUMPDEST PUSH32 0x5265656E7472616E637947756172643A207265656E7472616E742063616C6C00 PUSH0 DUP3 ADD MSTORE POP JUMP JUMPDEST PUSH0 PUSH2 0x2528 PUSH1 0x1F DUP4 PUSH2 0x1CC0 JUMP JUMPDEST SWAP2 POP PUSH2 0x2533 DUP3 PUSH2 0x24F4 JUMP JUMPDEST PUSH1 0x20 DUP3 ADD SWAP1 POP SWAP2 SWAP1 POP JUMP JUMPDEST PUSH0 PUSH1 0x20 DUP3 ADD SWAP1 POP DUP2 DUP2 SUB PUSH0 DUP4 ADD MSTORE PUSH2 0x2555 DUP2 PUSH2 0x251C JUMP JUMPDEST SWAP1 POP SWAP2 SWAP1 POP JUMP JUMPDEST PUSH32 0x5472616E73666572206661696C65640000000000000000000000000000000000 PUSH0 DUP3 ADD MSTORE POP JUMP JUMPDEST PUSH0 PUSH2 0x2590 PUSH1 0xF DUP4 PUSH2 0x1CC0 JUMP JUMPDEST SWAP2 POP PUSH2 0x259B DUP3 PUSH2 0x255C JUMP JUMPDEST PUSH1 0x20 DUP3 ADD SWAP1 POP SWAP2 SWAP1 POP JUMP JUMPDEST PUSH0 PUSH1 0x20 DUP3 ADD SWAP1 POP DUP2 DUP2 SUB PUSH0 DUP4 ADD MSTORE PUSH2 0x25BD DUP2 PUSH2 0x2584 JUMP JUMPDEST SWAP1 POP SWAP2 SWAP1 POP JUMP INVALID LOG2 PUSH5 0x6970667358 0x22 SLT KECCAK256 PUSH19 0xED6850B42418CFA2B603C45579296A07AD80DA 0xED GT 0xEF PUSH28 0xA31864E7F85DA6DF64736F6C634300081A0033000000000000000000 "
				},
				"gasEstimates": {
					"creation": {
						"codeDepositCost": "1944400",
						"executionCost": "24166",
						"totalCost": "1968566"
					},
					"external": {
						"cancelEscrow(uint256)": "infinite",
						"confirmFinalize(uint256)": "infinite",
						"createEscrow(address,address,uint256,uint256,uint256)": "infinite",
						"escrows(uint256)": "infinite",
						"finalizeEscrow(uint256)": "infinite",
						"fundEscrow(uint256)": "infinite",
						"nextEscrowId()": "2470",
						"onERC1155BatchReceived(address,address,uint256[],uint256[],bytes)": "infinite",
						"onERC1155Received(address,address,uint256,uint256,bytes)": "infinite"
					},
					"internal": {
						"_finalizeEscrow(uint256)": "infinite",
						"_isCompleted(struct ERC1155Escrow.EscrowDeal memory)": "infinite"
					}
				},
				"methodIdentifiers": {
					"cancelEscrow(uint256)": "e0182436",
					"confirmFinalize(uint256)": "d9daea51",
					"createEscrow(address,address,uint256,uint256,uint256)": "3bf3110f",
					"escrows(uint256)": "012f52ee",
					"finalizeEscrow(uint256)": "b43a405a",
					"fundEscrow(uint256)": "c9c31af5",
					"nextEscrowId()": "89cb29dd",
					"onERC1155BatchReceived(address,address,uint256[],uint256[],bytes)": "bc197c81",
					"onERC1155Received(address,address,uint256,uint256,bytes)": "f23a6e61"
				}
			},
			"storageLayout": {
				"storage": [
					{
						"astId": 10,
						"contract": "contract-8f3861590a.sol:ERC1155Escrow",
						"label": "_status",
						"offset": 0,
						"slot": "0",
						"type": "t_uint256"
					},
					{
						"astId": 265,
						"contract": "contract-8f3861590a.sol:ERC1155Escrow",
						"label": "escrows",
						"offset": 0,
						"slot": "1",
						"type": "t_mapping(t_uint256,t_struct(EscrowDeal)260_storage)"
					},
					{
						"astId": 267,
						"contract": "contract-8f3861590a.sol:ERC1155Escrow",
						"label": "nextEscrowId",
						"offset": 0,
						"slot": "2",
						"type": "t_uint256"
					}
				],
				"types": {
					"t_address": {
						"encoding": "inplace",
						"label": "address",
						"numberOfBytes": "20"
					},
					"t_bool": {
						"encoding": "inplace",
						"label": "bool",
						"numberOfBytes": "1"
					},
					"t_mapping(t_uint256,t_struct(EscrowDeal)260_storage)": {
						"encoding": "mapping",
						"key": "t_uint256",
						"label": "mapping(uint256 => struct ERC1155Escrow.EscrowDeal)",
						"numberOfBytes": "32",
						"value": "t_struct(EscrowDeal)260_storage"
					},
					"t_struct(EscrowDeal)260_storage": {
						"encoding": "inplace",
						"label": "struct ERC1155Escrow.EscrowDeal",
						"members": [
							{
								"astId": 241,
								"contract": "contract-8f3861590a.sol:ERC1155Escrow",
								"label": "seller",
								"offset": 0,
								"slot": "0",
								"type": "t_address"
							},
							{
								"astId": 243,
								"contract": "contract-8f3861590a.sol:ERC1155Escrow",
								"label": "buyer",
								"offset": 0,
								"slot": "1",
								"type": "t_address"
							},
							{
								"astId": 245,
								"contract": "contract-8f3861590a.sol:ERC1155Escrow",
								"label": "nftAddress",
								"offset": 0,
								"slot": "2",
								"type": "t_address"
							},
							{
								"astId": 247,
								"contract": "contract-8f3861590a.sol:ERC1155Escrow",
								"label": "tokenId",
								"offset": 0,
								"slot": "3",
								"type": "t_uint256"
							},
							{
								"astId": 249,
								"contract": "contract-8f3861590a.sol:ERC1155Escrow",
								"label": "amount",
								"offset": 0,
								"slot": "4",
								"type": "t_uint256"
							},
							{
								"astId": 251,
								"contract": "contract-8f3861590a.sol:ERC1155Escrow",
								"label": "price",
								"offset": 0,
								"slot": "5",
								"type": "t_uint256"
							},
							{
								"astId": 253,
								"contract": "contract-8f3861590a.sol:ERC1155Escrow",
								"label": "isActive",
								"offset": 0,
								"slot": "6",
								"type": "t_bool"
							},
							{
								"astId": 255,
								"contract": "contract-8f3861590a.sol:ERC1155Escrow",
								"label": "isFunded",
								"offset": 1,
								"slot": "6",
								"type": "t_bool"
							},
							{
								"astId": 257,
								"contract": "contract-8f3861590a.sol:ERC1155Escrow",
								"label": "sellerConfirmed",
								"offset": 2,
								"slot": "6",
								"type": "t_bool"
							},
							{
								"astId": 259,
								"contract": "contract-8f3861590a.sol:ERC1155Escrow",
								"label": "buyerConfirmed",
								"offset": 3,
								"slot": "6",
								"type": "t_bool"
							}
						],
						"numberOfBytes": "224"
					},
					"t_uint256": {
						"encoding": "inplace",
						"label": "uint256",
						"numberOfBytes": "32"
					}
				}
			},
			"userdoc": {
				"kind": "user",
				"methods": {
					"cancelEscrow(uint256)": {
						"notice": "거래 취소"
					},
					"confirmFinalize(uint256)": {
						"notice": "거래 확정 의사 표시 (양측 모두가 호출해야 최종 finalize 가능)         단, 한쪽이 이미 누른 상태라면 이 함수 내에서 즉시 finalize 처리"
					},
					"createEscrow(address,address,uint256,uint256,uint256)": {
						"notice": "에스크로 생성(판매자가 호출)"
					},
					"finalizeEscrow(uint256)": {
						"notice": "실제 거래를 최종 확정하는 외부 함수         confirmFinalize에서 자동으로 finalize되지 않았다면, 이 함수를 직접 호출할 수도 있음."
					},
					"fundEscrow(uint256)": {
						"notice": "구매자가 자금을 에스크로에 예치"
					}
				},
				"notice": "ERC1155 토큰 거래를 위한 간단한 에스크로 컨트랙트 (양측 모두 Confirm 필요)         - confirmFinalize()를 한 사람이 눌렀을 때, 상대방이 이미 confirm한 상태라면 즉시 finalize         - 그렇지 않다면 두 번째 사람이 confirm 시 finalize",
				"version": 1
			}
		}
	}
}